{
	"tasks/Task_03.sol": {
		"Task_03": {
			"abi": [
				{
					"inputs": [
						{
							"internalType": "string",
							"name": "_name",
							"type": "string"
						},
						{
							"internalType": "uint8",
							"name": "_age",
							"type": "uint8"
						}
					],
					"name": "addPerson",
					"outputs": [],
					"stateMutability": "nonpayable",
					"type": "function"
				},
				{
					"inputs": [
						{
							"internalType": "uint256",
							"name": "_index",
							"type": "uint256"
						}
					],
					"name": "getUser",
					"outputs": [
						{
							"internalType": "string",
							"name": "",
							"type": "string"
						},
						{
							"internalType": "uint8",
							"name": "",
							"type": "uint8"
						}
					],
					"stateMutability": "view",
					"type": "function"
				},
				{
					"inputs": [
						{
							"internalType": "uint256",
							"name": "",
							"type": "uint256"
						}
					],
					"name": "people",
					"outputs": [
						{
							"internalType": "string",
							"name": "name",
							"type": "string"
						},
						{
							"internalType": "uint8",
							"name": "age",
							"type": "uint8"
						}
					],
					"stateMutability": "view",
					"type": "function"
				}
			],
			"devdoc": {
				"kind": "dev",
				"methods": {},
				"version": 1
			},
			"evm": {
				"assembly": "    /* \"tasks/Task_03.sol\":0:572  contract Task_03 {... */\n  mstore(0x40, 0x80)\n  callvalue\n  dup1\n  iszero\n  tag_1\n  jumpi\n  revert(0x00, 0x00)\ntag_1:\n  pop\n  dataSize(sub_0)\n  dup1\n  dataOffset(sub_0)\n  0x00\n  codecopy\n  0x00\n  return\nstop\n\nsub_0: assembly {\n        /* \"tasks/Task_03.sol\":0:572  contract Task_03 {... */\n      mstore(0x40, 0x80)\n      callvalue\n      dup1\n      iszero\n      tag_1\n      jumpi\n      revert(0x00, 0x00)\n    tag_1:\n      pop\n      jumpi(tag_2, lt(calldatasize, 0x04))\n      shr(0xe0, calldataload(0x00))\n      dup1\n      0x57322f09\n      eq\n      tag_3\n      jumpi\n      dup1\n      0x9e7a13ad\n      eq\n      tag_4\n      jumpi\n      dup1\n      0xb0467deb\n      eq\n      tag_5\n      jumpi\n    tag_2:\n      revert(0x00, 0x00)\n        /* \"tasks/Task_03.sol\":151:329  function addPerson(string memory _name, uint8 _age) external {... */\n    tag_3:\n      tag_6\n      0x04\n      dup1\n      calldatasize\n      sub\n      dup2\n      add\n      swap1\n      tag_7\n      swap2\n      swap1\n      tag_8\n      jump\t// in\n    tag_7:\n      tag_9\n      jump\t// in\n    tag_6:\n      stop\n        /* \"tasks/Task_03.sol\":89:111  Person[] public people */\n    tag_4:\n      tag_10\n      0x04\n      dup1\n      calldatasize\n      sub\n      dup2\n      add\n      swap1\n      tag_11\n      swap2\n      swap1\n      tag_12\n      jump\t// in\n    tag_11:\n      tag_13\n      jump\t// in\n    tag_10:\n      mload(0x40)\n      tag_14\n      swap3\n      swap2\n      swap1\n      tag_15\n      jump\t// in\n    tag_14:\n      mload(0x40)\n      dup1\n      swap2\n      sub\n      swap1\n      return\n        /* \"tasks/Task_03.sol\":334:570  function getUser(uint _index) external view returns (string memory, uint8) {... */\n    tag_5:\n      tag_16\n      0x04\n      dup1\n      calldatasize\n      sub\n      dup2\n      add\n      swap1\n      tag_17\n      swap2\n      swap1\n      tag_12\n      jump\t// in\n    tag_17:\n      tag_18\n      jump\t// in\n    tag_16:\n      mload(0x40)\n      tag_19\n      swap3\n      swap2\n      swap1\n      tag_15\n      jump\t// in\n    tag_19:\n      mload(0x40)\n      dup1\n      swap2\n      sub\n      swap1\n      return\n        /* \"tasks/Task_03.sol\":151:329  function addPerson(string memory _name, uint8 _age) external {... */\n    tag_9:\n        /* \"tasks/Task_03.sol\":221:227  people */\n      0x00\n        /* \"tasks/Task_03.sol\":233:252  Person(_name, _age) */\n      mload(0x40)\n      dup1\n      0x40\n      add\n      0x40\n      mstore\n      dup1\n        /* \"tasks/Task_03.sol\":240:245  _name */\n      dup5\n        /* \"tasks/Task_03.sol\":233:252  Person(_name, _age) */\n      dup2\n      mstore\n      0x20\n      add\n        /* \"tasks/Task_03.sol\":247:251  _age */\n      dup4\n        /* \"tasks/Task_03.sol\":233:252  Person(_name, _age) */\n      0xff\n      and\n      dup2\n      mstore\n      pop\n        /* \"tasks/Task_03.sol\":221:253  people.push(Person(_name, _age)) */\n      swap1\n      dup1\n      0x01\n      dup2\n      sload\n      add\n      dup1\n      dup3\n      sstore\n      dup1\n      swap2\n      pop\n      pop\n      0x01\n      swap1\n      sub\n      swap1\n      0x00\n      mstore\n      keccak256(0x00, 0x20)\n      swap1\n      0x02\n      mul\n      add\n      0x00\n      swap1\n      swap2\n      swap1\n      swap2\n      swap1\n      swap2\n      pop\n      0x00\n      dup3\n      add\n      mload\n      dup2\n      0x00\n      add\n      swap1\n      dup2\n      tag_22\n      swap2\n      swap1\n      tag_23\n      jump\t// in\n    tag_22:\n      pop\n      0x20\n      dup3\n      add\n      mload\n      dup2\n      0x01\n      add\n      exp(0x0100, 0x00)\n      dup2\n      sload\n      dup2\n      0xff\n      mul\n      not\n      and\n      swap1\n      dup4\n      0xff\n      and\n      mul\n      or\n      swap1\n      sstore\n      pop\n      pop\n      pop\n        /* \"tasks/Task_03.sol\":151:329  function addPerson(string memory _name, uint8 _age) external {... */\n      pop\n      pop\n      jump\t// out\n        /* \"tasks/Task_03.sol\":89:111  Person[] public people */\n    tag_13:\n      0x00\n      dup2\n      dup2\n      sload\n      dup2\n      lt\n      tag_24\n      jumpi\n      0x00\n      dup1\n      revert\n    tag_24:\n      swap1\n      0x00\n      mstore\n      keccak256(0x00, 0x20)\n      swap1\n      0x02\n      mul\n      add\n      0x00\n      swap2\n      pop\n      swap1\n      pop\n      dup1\n      0x00\n      add\n      dup1\n      sload\n      tag_26\n      swap1\n      tag_27\n      jump\t// in\n    tag_26:\n      dup1\n      0x1f\n      add\n      0x20\n      dup1\n      swap2\n      div\n      mul\n      0x20\n      add\n      mload(0x40)\n      swap1\n      dup2\n      add\n      0x40\n      mstore\n      dup1\n      swap3\n      swap2\n      swap1\n      dup2\n      dup2\n      mstore\n      0x20\n      add\n      dup3\n      dup1\n      sload\n      tag_28\n      swap1\n      tag_27\n      jump\t// in\n    tag_28:\n      dup1\n      iszero\n      tag_29\n      jumpi\n      dup1\n      0x1f\n      lt\n      tag_30\n      jumpi\n      0x0100\n      dup1\n      dup4\n      sload\n      div\n      mul\n      dup4\n      mstore\n      swap2\n      0x20\n      add\n      swap2\n      jump(tag_29)\n    tag_30:\n      dup3\n      add\n      swap2\n      swap1\n      0x00\n      mstore\n      keccak256(0x00, 0x20)\n      swap1\n    tag_31:\n      dup2\n      sload\n      dup2\n      mstore\n      swap1\n      0x01\n      add\n      swap1\n      0x20\n      add\n      dup1\n      dup4\n      gt\n      tag_31\n      jumpi\n      dup3\n      swap1\n      sub\n      0x1f\n      and\n      dup3\n      add\n      swap2\n    tag_29:\n      pop\n      pop\n      pop\n      pop\n      pop\n      swap1\n      dup1\n      0x01\n      add\n      0x00\n      swap1\n      sload\n      swap1\n      0x0100\n      exp\n      swap1\n      div\n      0xff\n      and\n      swap1\n      pop\n      dup3\n      jump\t// out\n        /* \"tasks/Task_03.sol\":334:570  function getUser(uint _index) external view returns (string memory, uint8) {... */\n    tag_18:\n        /* \"tasks/Task_03.sol\":387:400  string memory */\n      0x60\n        /* \"tasks/Task_03.sol\":402:407  uint8 */\n      0x00\n        /* \"tasks/Task_03.sol\":436:442  people */\n      0x00\n        /* \"tasks/Task_03.sol\":436:449  people.length */\n      dup1\n      sload\n      swap1\n      pop\n        /* \"tasks/Task_03.sol\":427:433  _index */\n      dup4\n        /* \"tasks/Task_03.sol\":427:449  _index < people.length */\n      lt\n        /* \"tasks/Task_03.sol\":419:473  require(_index < people.length, \"Index out of bounds\") */\n      tag_33\n      jumpi\n      mload(0x40)\n      0x08c379a000000000000000000000000000000000000000000000000000000000\n      dup2\n      mstore\n      0x04\n      add\n      tag_34\n      swap1\n      tag_35\n      jump\t// in\n    tag_34:\n      mload(0x40)\n      dup1\n      swap2\n      sub\n      swap1\n      revert\n    tag_33:\n        /* \"tasks/Task_03.sol\":483:504  Person storage person */\n      0x00\n        /* \"tasks/Task_03.sol\":507:513  people */\n      0x00\n        /* \"tasks/Task_03.sol\":514:520  _index */\n      dup5\n        /* \"tasks/Task_03.sol\":507:521  people[_index] */\n      dup2\n      sload\n      dup2\n      lt\n      tag_36\n      jumpi\n      tag_37\n      tag_38\n      jump\t// in\n    tag_37:\n    tag_36:\n      swap1\n      0x00\n      mstore\n      keccak256(0x00, 0x20)\n      swap1\n      0x02\n      mul\n      add\n        /* \"tasks/Task_03.sol\":483:521  Person storage person = people[_index] */\n      swap1\n      pop\n        /* \"tasks/Task_03.sol\":539:545  person */\n      dup1\n        /* \"tasks/Task_03.sol\":539:550  person.name */\n      0x00\n      add\n        /* \"tasks/Task_03.sol\":552:558  person */\n      dup2\n        /* \"tasks/Task_03.sol\":552:562  person.age */\n      0x01\n      add\n      0x00\n      swap1\n      sload\n      swap1\n      0x0100\n      exp\n      swap1\n      div\n      0xff\n      and\n        /* \"tasks/Task_03.sol\":531:563  return (person.name, person.age) */\n      dup2\n      dup1\n      sload\n      tag_40\n      swap1\n      tag_27\n      jump\t// in\n    tag_40:\n      dup1\n      0x1f\n      add\n      0x20\n      dup1\n      swap2\n      div\n      mul\n      0x20\n      add\n      mload(0x40)\n      swap1\n      dup2\n      add\n      0x40\n      mstore\n      dup1\n      swap3\n      swap2\n      swap1\n      dup2\n      dup2\n      mstore\n      0x20\n      add\n      dup3\n      dup1\n      sload\n      tag_41\n      swap1\n      tag_27\n      jump\t// in\n    tag_41:\n      dup1\n      iszero\n      tag_42\n      jumpi\n      dup1\n      0x1f\n      lt\n      tag_43\n      jumpi\n      0x0100\n      dup1\n      dup4\n      sload\n      div\n      mul\n      dup4\n      mstore\n      swap2\n      0x20\n      add\n      swap2\n      jump(tag_42)\n    tag_43:\n      dup3\n      add\n      swap2\n      swap1\n      0x00\n      mstore\n      keccak256(0x00, 0x20)\n      swap1\n    tag_44:\n      dup2\n      sload\n      dup2\n      mstore\n      swap1\n      0x01\n      add\n      swap1\n      0x20\n      add\n      dup1\n      dup4\n      gt\n      tag_44\n      jumpi\n      dup3\n      swap1\n      sub\n      0x1f\n      and\n      dup3\n      add\n      swap2\n    tag_42:\n      pop\n      pop\n      pop\n      pop\n      pop\n      swap2\n      pop\n      swap3\n      pop\n      swap3\n      pop\n      pop\n        /* \"tasks/Task_03.sol\":334:570  function getUser(uint _index) external view returns (string memory, uint8) {... */\n      swap2\n      pop\n      swap2\n      jump\t// out\n        /* \"#utility.yul\":7:82   */\n    tag_45:\n        /* \"#utility.yul\":40:46   */\n      0x00\n        /* \"#utility.yul\":73:75   */\n      0x40\n        /* \"#utility.yul\":67:76   */\n      mload\n        /* \"#utility.yul\":57:76   */\n      swap1\n      pop\n        /* \"#utility.yul\":7:82   */\n      swap1\n      jump\t// out\n        /* \"#utility.yul\":88:205   */\n    tag_46:\n        /* \"#utility.yul\":197:198   */\n      0x00\n        /* \"#utility.yul\":194:195   */\n      0x00\n        /* \"#utility.yul\":187:199   */\n      revert\n        /* \"#utility.yul\":211:328   */\n    tag_47:\n        /* \"#utility.yul\":320:321   */\n      0x00\n        /* \"#utility.yul\":317:318   */\n      0x00\n        /* \"#utility.yul\":310:322   */\n      revert\n        /* \"#utility.yul\":334:451   */\n    tag_48:\n        /* \"#utility.yul\":443:444   */\n      0x00\n        /* \"#utility.yul\":440:441   */\n      0x00\n        /* \"#utility.yul\":433:445   */\n      revert\n        /* \"#utility.yul\":457:574   */\n    tag_49:\n        /* \"#utility.yul\":566:567   */\n      0x00\n        /* \"#utility.yul\":563:564   */\n      0x00\n        /* \"#utility.yul\":556:568   */\n      revert\n        /* \"#utility.yul\":580:682   */\n    tag_50:\n        /* \"#utility.yul\":621:627   */\n      0x00\n        /* \"#utility.yul\":672:674   */\n      0x1f\n        /* \"#utility.yul\":668:675   */\n      not\n        /* \"#utility.yul\":663:665   */\n      0x1f\n        /* \"#utility.yul\":656:661   */\n      dup4\n        /* \"#utility.yul\":652:666   */\n      add\n        /* \"#utility.yul\":648:676   */\n      and\n        /* \"#utility.yul\":638:676   */\n      swap1\n      pop\n        /* \"#utility.yul\":580:682   */\n      swap2\n      swap1\n      pop\n      jump\t// out\n        /* \"#utility.yul\":688:868   */\n    tag_51:\n        /* \"#utility.yul\":736:813   */\n      0x4e487b7100000000000000000000000000000000000000000000000000000000\n        /* \"#utility.yul\":733:734   */\n      0x00\n        /* \"#utility.yul\":726:814   */\n      mstore\n        /* \"#utility.yul\":833:837   */\n      0x41\n        /* \"#utility.yul\":830:831   */\n      0x04\n        /* \"#utility.yul\":823:838   */\n      mstore\n        /* \"#utility.yul\":857:861   */\n      0x24\n        /* \"#utility.yul\":854:855   */\n      0x00\n        /* \"#utility.yul\":847:862   */\n      revert\n        /* \"#utility.yul\":874:1155   */\n    tag_52:\n        /* \"#utility.yul\":957:984   */\n      tag_96\n        /* \"#utility.yul\":979:983   */\n      dup3\n        /* \"#utility.yul\":957:984   */\n      tag_50\n      jump\t// in\n    tag_96:\n        /* \"#utility.yul\":949:955   */\n      dup2\n        /* \"#utility.yul\":945:985   */\n      add\n        /* \"#utility.yul\":1087:1093   */\n      dup2\n        /* \"#utility.yul\":1075:1085   */\n      dup2\n        /* \"#utility.yul\":1072:1094   */\n      lt\n        /* \"#utility.yul\":1051:1069   */\n      0xffffffffffffffff\n        /* \"#utility.yul\":1039:1049   */\n      dup3\n        /* \"#utility.yul\":1036:1070   */\n      gt\n        /* \"#utility.yul\":1033:1095   */\n      or\n        /* \"#utility.yul\":1030:1118   */\n      iszero\n      tag_97\n      jumpi\n        /* \"#utility.yul\":1098:1116   */\n      tag_98\n      tag_51\n      jump\t// in\n    tag_98:\n        /* \"#utility.yul\":1030:1118   */\n    tag_97:\n        /* \"#utility.yul\":1138:1148   */\n      dup1\n        /* \"#utility.yul\":1134:1136   */\n      0x40\n        /* \"#utility.yul\":1127:1149   */\n      mstore\n        /* \"#utility.yul\":917:1155   */\n      pop\n        /* \"#utility.yul\":874:1155   */\n      pop\n      pop\n      jump\t// out\n        /* \"#utility.yul\":1161:1290   */\n    tag_53:\n        /* \"#utility.yul\":1195:1201   */\n      0x00\n        /* \"#utility.yul\":1222:1242   */\n      tag_100\n      tag_45\n      jump\t// in\n    tag_100:\n        /* \"#utility.yul\":1212:1242   */\n      swap1\n      pop\n        /* \"#utility.yul\":1251:1284   */\n      tag_101\n        /* \"#utility.yul\":1279:1283   */\n      dup3\n        /* \"#utility.yul\":1271:1277   */\n      dup3\n        /* \"#utility.yul\":1251:1284   */\n      tag_52\n      jump\t// in\n    tag_101:\n        /* \"#utility.yul\":1161:1290   */\n      swap2\n      swap1\n      pop\n      jump\t// out\n        /* \"#utility.yul\":1296:1604   */\n    tag_54:\n        /* \"#utility.yul\":1358:1362   */\n      0x00\n        /* \"#utility.yul\":1448:1466   */\n      0xffffffffffffffff\n        /* \"#utility.yul\":1440:1446   */\n      dup3\n        /* \"#utility.yul\":1437:1467   */\n      gt\n        /* \"#utility.yul\":1434:1490   */\n      iszero\n      tag_103\n      jumpi\n        /* \"#utility.yul\":1470:1488   */\n      tag_104\n      tag_51\n      jump\t// in\n    tag_104:\n        /* \"#utility.yul\":1434:1490   */\n    tag_103:\n        /* \"#utility.yul\":1508:1537   */\n      tag_105\n        /* \"#utility.yul\":1530:1536   */\n      dup3\n        /* \"#utility.yul\":1508:1537   */\n      tag_50\n      jump\t// in\n    tag_105:\n        /* \"#utility.yul\":1500:1537   */\n      swap1\n      pop\n        /* \"#utility.yul\":1592:1596   */\n      0x20\n        /* \"#utility.yul\":1586:1590   */\n      dup2\n        /* \"#utility.yul\":1582:1597   */\n      add\n        /* \"#utility.yul\":1574:1597   */\n      swap1\n      pop\n        /* \"#utility.yul\":1296:1604   */\n      swap2\n      swap1\n      pop\n      jump\t// out\n        /* \"#utility.yul\":1610:1758   */\n    tag_55:\n        /* \"#utility.yul\":1708:1714   */\n      dup3\n        /* \"#utility.yul\":1703:1706   */\n      dup2\n        /* \"#utility.yul\":1698:1701   */\n      dup4\n        /* \"#utility.yul\":1685:1715   */\n      calldatacopy\n        /* \"#utility.yul\":1749:1750   */\n      0x00\n        /* \"#utility.yul\":1740:1746   */\n      dup4\n        /* \"#utility.yul\":1735:1738   */\n      dup4\n        /* \"#utility.yul\":1731:1747   */\n      add\n        /* \"#utility.yul\":1724:1751   */\n      mstore\n        /* \"#utility.yul\":1610:1758   */\n      pop\n      pop\n      pop\n      jump\t// out\n        /* \"#utility.yul\":1764:2189   */\n    tag_56:\n        /* \"#utility.yul\":1842:1847   */\n      0x00\n        /* \"#utility.yul\":1867:1933   */\n      tag_108\n        /* \"#utility.yul\":1883:1932   */\n      tag_109\n        /* \"#utility.yul\":1925:1931   */\n      dup5\n        /* \"#utility.yul\":1883:1932   */\n      tag_54\n      jump\t// in\n    tag_109:\n        /* \"#utility.yul\":1867:1933   */\n      tag_53\n      jump\t// in\n    tag_108:\n        /* \"#utility.yul\":1858:1933   */\n      swap1\n      pop\n        /* \"#utility.yul\":1956:1962   */\n      dup3\n        /* \"#utility.yul\":1949:1954   */\n      dup2\n        /* \"#utility.yul\":1942:1963   */\n      mstore\n        /* \"#utility.yul\":1994:1998   */\n      0x20\n        /* \"#utility.yul\":1987:1992   */\n      dup2\n        /* \"#utility.yul\":1983:1999   */\n      add\n        /* \"#utility.yul\":2032:2035   */\n      dup5\n        /* \"#utility.yul\":2023:2029   */\n      dup5\n        /* \"#utility.yul\":2018:2021   */\n      dup5\n        /* \"#utility.yul\":2014:2030   */\n      add\n        /* \"#utility.yul\":2011:2036   */\n      gt\n        /* \"#utility.yul\":2008:2120   */\n      iszero\n      tag_110\n      jumpi\n        /* \"#utility.yul\":2039:2118   */\n      tag_111\n      tag_49\n      jump\t// in\n    tag_111:\n        /* \"#utility.yul\":2008:2120   */\n    tag_110:\n        /* \"#utility.yul\":2129:2183   */\n      tag_112\n        /* \"#utility.yul\":2176:2182   */\n      dup5\n        /* \"#utility.yul\":2171:2174   */\n      dup3\n        /* \"#utility.yul\":2166:2169   */\n      dup6\n        /* \"#utility.yul\":2129:2183   */\n      tag_55\n      jump\t// in\n    tag_112:\n        /* \"#utility.yul\":1848:2189   */\n      pop\n        /* \"#utility.yul\":1764:2189   */\n      swap4\n      swap3\n      pop\n      pop\n      pop\n      jump\t// out\n        /* \"#utility.yul\":2209:2549   */\n    tag_57:\n        /* \"#utility.yul\":2265:2270   */\n      0x00\n        /* \"#utility.yul\":2314:2317   */\n      dup3\n        /* \"#utility.yul\":2307:2311   */\n      0x1f\n        /* \"#utility.yul\":2299:2305   */\n      dup4\n        /* \"#utility.yul\":2295:2312   */\n      add\n        /* \"#utility.yul\":2291:2318   */\n      slt\n        /* \"#utility.yul\":2281:2403   */\n      tag_114\n      jumpi\n        /* \"#utility.yul\":2322:2401   */\n      tag_115\n      tag_48\n      jump\t// in\n    tag_115:\n        /* \"#utility.yul\":2281:2403   */\n    tag_114:\n        /* \"#utility.yul\":2439:2445   */\n      dup2\n        /* \"#utility.yul\":2426:2446   */\n      calldataload\n        /* \"#utility.yul\":2464:2543   */\n      tag_116\n        /* \"#utility.yul\":2539:2542   */\n      dup5\n        /* \"#utility.yul\":2531:2537   */\n      dup3\n        /* \"#utility.yul\":2524:2528   */\n      0x20\n        /* \"#utility.yul\":2516:2522   */\n      dup7\n        /* \"#utility.yul\":2512:2529   */\n      add\n        /* \"#utility.yul\":2464:2543   */\n      tag_56\n      jump\t// in\n    tag_116:\n        /* \"#utility.yul\":2455:2543   */\n      swap2\n      pop\n        /* \"#utility.yul\":2271:2549   */\n      pop\n        /* \"#utility.yul\":2209:2549   */\n      swap3\n      swap2\n      pop\n      pop\n      jump\t// out\n        /* \"#utility.yul\":2555:2641   */\n    tag_58:\n        /* \"#utility.yul\":2590:2597   */\n      0x00\n        /* \"#utility.yul\":2630:2634   */\n      0xff\n        /* \"#utility.yul\":2623:2628   */\n      dup3\n        /* \"#utility.yul\":2619:2635   */\n      and\n        /* \"#utility.yul\":2608:2635   */\n      swap1\n      pop\n        /* \"#utility.yul\":2555:2641   */\n      swap2\n      swap1\n      pop\n      jump\t// out\n        /* \"#utility.yul\":2647:2765   */\n    tag_59:\n        /* \"#utility.yul\":2718:2740   */\n      tag_119\n        /* \"#utility.yul\":2734:2739   */\n      dup2\n        /* \"#utility.yul\":2718:2740   */\n      tag_58\n      jump\t// in\n    tag_119:\n        /* \"#utility.yul\":2711:2716   */\n      dup2\n        /* \"#utility.yul\":2708:2741   */\n      eq\n        /* \"#utility.yul\":2698:2759   */\n      tag_120\n      jumpi\n        /* \"#utility.yul\":2755:2756   */\n      0x00\n        /* \"#utility.yul\":2752:2753   */\n      0x00\n        /* \"#utility.yul\":2745:2757   */\n      revert\n        /* \"#utility.yul\":2698:2759   */\n    tag_120:\n        /* \"#utility.yul\":2647:2765   */\n      pop\n      jump\t// out\n        /* \"#utility.yul\":2771:2906   */\n    tag_60:\n        /* \"#utility.yul\":2815:2820   */\n      0x00\n        /* \"#utility.yul\":2853:2859   */\n      dup2\n        /* \"#utility.yul\":2840:2860   */\n      calldataload\n        /* \"#utility.yul\":2831:2860   */\n      swap1\n      pop\n        /* \"#utility.yul\":2869:2900   */\n      tag_122\n        /* \"#utility.yul\":2894:2899   */\n      dup2\n        /* \"#utility.yul\":2869:2900   */\n      tag_59\n      jump\t// in\n    tag_122:\n        /* \"#utility.yul\":2771:2906   */\n      swap3\n      swap2\n      pop\n      pop\n      jump\t// out\n        /* \"#utility.yul\":2912:3562   */\n    tag_8:\n        /* \"#utility.yul\":2988:2994   */\n      0x00\n        /* \"#utility.yul\":2996:3002   */\n      0x00\n        /* \"#utility.yul\":3045:3047   */\n      0x40\n        /* \"#utility.yul\":3033:3042   */\n      dup4\n        /* \"#utility.yul\":3024:3031   */\n      dup6\n        /* \"#utility.yul\":3020:3043   */\n      sub\n        /* \"#utility.yul\":3016:3048   */\n      slt\n        /* \"#utility.yul\":3013:3132   */\n      iszero\n      tag_124\n      jumpi\n        /* \"#utility.yul\":3051:3130   */\n      tag_125\n      tag_46\n      jump\t// in\n    tag_125:\n        /* \"#utility.yul\":3013:3132   */\n    tag_124:\n        /* \"#utility.yul\":3199:3200   */\n      0x00\n        /* \"#utility.yul\":3188:3197   */\n      dup4\n        /* \"#utility.yul\":3184:3201   */\n      add\n        /* \"#utility.yul\":3171:3202   */\n      calldataload\n        /* \"#utility.yul\":3229:3247   */\n      0xffffffffffffffff\n        /* \"#utility.yul\":3221:3227   */\n      dup2\n        /* \"#utility.yul\":3218:3248   */\n      gt\n        /* \"#utility.yul\":3215:3332   */\n      iszero\n      tag_126\n      jumpi\n        /* \"#utility.yul\":3251:3330   */\n      tag_127\n      tag_47\n      jump\t// in\n    tag_127:\n        /* \"#utility.yul\":3215:3332   */\n    tag_126:\n        /* \"#utility.yul\":3356:3419   */\n      tag_128\n        /* \"#utility.yul\":3411:3418   */\n      dup6\n        /* \"#utility.yul\":3402:3408   */\n      dup3\n        /* \"#utility.yul\":3391:3400   */\n      dup7\n        /* \"#utility.yul\":3387:3409   */\n      add\n        /* \"#utility.yul\":3356:3419   */\n      tag_57\n      jump\t// in\n    tag_128:\n        /* \"#utility.yul\":3346:3419   */\n      swap3\n      pop\n        /* \"#utility.yul\":3142:3429   */\n      pop\n        /* \"#utility.yul\":3468:3470   */\n      0x20\n        /* \"#utility.yul\":3494:3545   */\n      tag_129\n        /* \"#utility.yul\":3537:3544   */\n      dup6\n        /* \"#utility.yul\":3528:3534   */\n      dup3\n        /* \"#utility.yul\":3517:3526   */\n      dup7\n        /* \"#utility.yul\":3513:3535   */\n      add\n        /* \"#utility.yul\":3494:3545   */\n      tag_60\n      jump\t// in\n    tag_129:\n        /* \"#utility.yul\":3484:3545   */\n      swap2\n      pop\n        /* \"#utility.yul\":3439:3555   */\n      pop\n        /* \"#utility.yul\":2912:3562   */\n      swap3\n      pop\n      swap3\n      swap1\n      pop\n      jump\t// out\n        /* \"#utility.yul\":3568:3645   */\n    tag_61:\n        /* \"#utility.yul\":3605:3612   */\n      0x00\n        /* \"#utility.yul\":3634:3639   */\n      dup2\n        /* \"#utility.yul\":3623:3639   */\n      swap1\n      pop\n        /* \"#utility.yul\":3568:3645   */\n      swap2\n      swap1\n      pop\n      jump\t// out\n        /* \"#utility.yul\":3651:3773   */\n    tag_62:\n        /* \"#utility.yul\":3724:3748   */\n      tag_132\n        /* \"#utility.yul\":3742:3747   */\n      dup2\n        /* \"#utility.yul\":3724:3748   */\n      tag_61\n      jump\t// in\n    tag_132:\n        /* \"#utility.yul\":3717:3722   */\n      dup2\n        /* \"#utility.yul\":3714:3749   */\n      eq\n        /* \"#utility.yul\":3704:3767   */\n      tag_133\n      jumpi\n        /* \"#utility.yul\":3763:3764   */\n      0x00\n        /* \"#utility.yul\":3760:3761   */\n      0x00\n        /* \"#utility.yul\":3753:3765   */\n      revert\n        /* \"#utility.yul\":3704:3767   */\n    tag_133:\n        /* \"#utility.yul\":3651:3773   */\n      pop\n      jump\t// out\n        /* \"#utility.yul\":3779:3918   */\n    tag_63:\n        /* \"#utility.yul\":3825:3830   */\n      0x00\n        /* \"#utility.yul\":3863:3869   */\n      dup2\n        /* \"#utility.yul\":3850:3870   */\n      calldataload\n        /* \"#utility.yul\":3841:3870   */\n      swap1\n      pop\n        /* \"#utility.yul\":3879:3912   */\n      tag_135\n        /* \"#utility.yul\":3906:3911   */\n      dup2\n        /* \"#utility.yul\":3879:3912   */\n      tag_62\n      jump\t// in\n    tag_135:\n        /* \"#utility.yul\":3779:3918   */\n      swap3\n      swap2\n      pop\n      pop\n      jump\t// out\n        /* \"#utility.yul\":3924:4253   */\n    tag_12:\n        /* \"#utility.yul\":3983:3989   */\n      0x00\n        /* \"#utility.yul\":4032:4034   */\n      0x20\n        /* \"#utility.yul\":4020:4029   */\n      dup3\n        /* \"#utility.yul\":4011:4018   */\n      dup5\n        /* \"#utility.yul\":4007:4030   */\n      sub\n        /* \"#utility.yul\":4003:4035   */\n      slt\n        /* \"#utility.yul\":4000:4119   */\n      iszero\n      tag_137\n      jumpi\n        /* \"#utility.yul\":4038:4117   */\n      tag_138\n      tag_46\n      jump\t// in\n    tag_138:\n        /* \"#utility.yul\":4000:4119   */\n    tag_137:\n        /* \"#utility.yul\":4158:4159   */\n      0x00\n        /* \"#utility.yul\":4183:4236   */\n      tag_139\n        /* \"#utility.yul\":4228:4235   */\n      dup5\n        /* \"#utility.yul\":4219:4225   */\n      dup3\n        /* \"#utility.yul\":4208:4217   */\n      dup6\n        /* \"#utility.yul\":4204:4226   */\n      add\n        /* \"#utility.yul\":4183:4236   */\n      tag_63\n      jump\t// in\n    tag_139:\n        /* \"#utility.yul\":4173:4236   */\n      swap2\n      pop\n        /* \"#utility.yul\":4129:4246   */\n      pop\n        /* \"#utility.yul\":3924:4253   */\n      swap3\n      swap2\n      pop\n      pop\n      jump\t// out\n        /* \"#utility.yul\":4259:4358   */\n    tag_64:\n        /* \"#utility.yul\":4311:4317   */\n      0x00\n        /* \"#utility.yul\":4345:4350   */\n      dup2\n        /* \"#utility.yul\":4339:4351   */\n      mload\n        /* \"#utility.yul\":4329:4351   */\n      swap1\n      pop\n        /* \"#utility.yul\":4259:4358   */\n      swap2\n      swap1\n      pop\n      jump\t// out\n        /* \"#utility.yul\":4364:4533   */\n    tag_65:\n        /* \"#utility.yul\":4448:4459   */\n      0x00\n        /* \"#utility.yul\":4482:4488   */\n      dup3\n        /* \"#utility.yul\":4477:4480   */\n      dup3\n        /* \"#utility.yul\":4470:4489   */\n      mstore\n        /* \"#utility.yul\":4522:4526   */\n      0x20\n        /* \"#utility.yul\":4517:4520   */\n      dup3\n        /* \"#utility.yul\":4513:4527   */\n      add\n        /* \"#utility.yul\":4498:4527   */\n      swap1\n      pop\n        /* \"#utility.yul\":4364:4533   */\n      swap3\n      swap2\n      pop\n      pop\n      jump\t// out\n        /* \"#utility.yul\":4539:4678   */\n    tag_66:\n        /* \"#utility.yul\":4628:4634   */\n      dup3\n        /* \"#utility.yul\":4623:4626   */\n      dup2\n        /* \"#utility.yul\":4618:4621   */\n      dup4\n        /* \"#utility.yul\":4612:4635   */\n      mcopy\n        /* \"#utility.yul\":4669:4670   */\n      0x00\n        /* \"#utility.yul\":4660:4666   */\n      dup4\n        /* \"#utility.yul\":4655:4658   */\n      dup4\n        /* \"#utility.yul\":4651:4667   */\n      add\n        /* \"#utility.yul\":4644:4671   */\n      mstore\n        /* \"#utility.yul\":4539:4678   */\n      pop\n      pop\n      pop\n      jump\t// out\n        /* \"#utility.yul\":4684:5061   */\n    tag_67:\n        /* \"#utility.yul\":4772:4775   */\n      0x00\n        /* \"#utility.yul\":4800:4839   */\n      tag_144\n        /* \"#utility.yul\":4833:4838   */\n      dup3\n        /* \"#utility.yul\":4800:4839   */\n      tag_64\n      jump\t// in\n    tag_144:\n        /* \"#utility.yul\":4855:4926   */\n      tag_145\n        /* \"#utility.yul\":4919:4925   */\n      dup2\n        /* \"#utility.yul\":4914:4917   */\n      dup6\n        /* \"#utility.yul\":4855:4926   */\n      tag_65\n      jump\t// in\n    tag_145:\n        /* \"#utility.yul\":4848:4926   */\n      swap4\n      pop\n        /* \"#utility.yul\":4935:5000   */\n      tag_146\n        /* \"#utility.yul\":4993:4999   */\n      dup2\n        /* \"#utility.yul\":4988:4991   */\n      dup6\n        /* \"#utility.yul\":4981:4985   */\n      0x20\n        /* \"#utility.yul\":4974:4979   */\n      dup7\n        /* \"#utility.yul\":4970:4986   */\n      add\n        /* \"#utility.yul\":4935:5000   */\n      tag_66\n      jump\t// in\n    tag_146:\n        /* \"#utility.yul\":5025:5054   */\n      tag_147\n        /* \"#utility.yul\":5047:5053   */\n      dup2\n        /* \"#utility.yul\":5025:5054   */\n      tag_50\n      jump\t// in\n    tag_147:\n        /* \"#utility.yul\":5020:5023   */\n      dup5\n        /* \"#utility.yul\":5016:5055   */\n      add\n        /* \"#utility.yul\":5009:5055   */\n      swap2\n      pop\n        /* \"#utility.yul\":4776:5061   */\n      pop\n        /* \"#utility.yul\":4684:5061   */\n      swap3\n      swap2\n      pop\n      pop\n      jump\t// out\n        /* \"#utility.yul\":5067:5179   */\n    tag_68:\n        /* \"#utility.yul\":5150:5172   */\n      tag_149\n        /* \"#utility.yul\":5166:5171   */\n      dup2\n        /* \"#utility.yul\":5150:5172   */\n      tag_58\n      jump\t// in\n    tag_149:\n        /* \"#utility.yul\":5145:5148   */\n      dup3\n        /* \"#utility.yul\":5138:5173   */\n      mstore\n        /* \"#utility.yul\":5067:5179   */\n      pop\n      pop\n      jump\t// out\n        /* \"#utility.yul\":5185:5600   */\n    tag_15:\n        /* \"#utility.yul\":5322:5326   */\n      0x00\n        /* \"#utility.yul\":5360:5362   */\n      0x40\n        /* \"#utility.yul\":5349:5358   */\n      dup3\n        /* \"#utility.yul\":5345:5363   */\n      add\n        /* \"#utility.yul\":5337:5363   */\n      swap1\n      pop\n        /* \"#utility.yul\":5409:5418   */\n      dup2\n        /* \"#utility.yul\":5403:5407   */\n      dup2\n        /* \"#utility.yul\":5399:5419   */\n      sub\n        /* \"#utility.yul\":5395:5396   */\n      0x00\n        /* \"#utility.yul\":5384:5393   */\n      dup4\n        /* \"#utility.yul\":5380:5397   */\n      add\n        /* \"#utility.yul\":5373:5420   */\n      mstore\n        /* \"#utility.yul\":5437:5515   */\n      tag_151\n        /* \"#utility.yul\":5510:5514   */\n      dup2\n        /* \"#utility.yul\":5501:5507   */\n      dup6\n        /* \"#utility.yul\":5437:5515   */\n      tag_67\n      jump\t// in\n    tag_151:\n        /* \"#utility.yul\":5429:5515   */\n      swap1\n      pop\n        /* \"#utility.yul\":5525:5593   */\n      tag_152\n        /* \"#utility.yul\":5589:5591   */\n      0x20\n        /* \"#utility.yul\":5578:5587   */\n      dup4\n        /* \"#utility.yul\":5574:5592   */\n      add\n        /* \"#utility.yul\":5565:5571   */\n      dup5\n        /* \"#utility.yul\":5525:5593   */\n      tag_68\n      jump\t// in\n    tag_152:\n        /* \"#utility.yul\":5185:5600   */\n      swap4\n      swap3\n      pop\n      pop\n      pop\n      jump\t// out\n        /* \"#utility.yul\":5606:5786   */\n    tag_69:\n        /* \"#utility.yul\":5654:5731   */\n      0x4e487b7100000000000000000000000000000000000000000000000000000000\n        /* \"#utility.yul\":5651:5652   */\n      0x00\n        /* \"#utility.yul\":5644:5732   */\n      mstore\n        /* \"#utility.yul\":5751:5755   */\n      0x22\n        /* \"#utility.yul\":5748:5749   */\n      0x04\n        /* \"#utility.yul\":5741:5756   */\n      mstore\n        /* \"#utility.yul\":5775:5779   */\n      0x24\n        /* \"#utility.yul\":5772:5773   */\n      0x00\n        /* \"#utility.yul\":5765:5780   */\n      revert\n        /* \"#utility.yul\":5792:6112   */\n    tag_27:\n        /* \"#utility.yul\":5836:5842   */\n      0x00\n        /* \"#utility.yul\":5873:5874   */\n      0x02\n        /* \"#utility.yul\":5867:5871   */\n      dup3\n        /* \"#utility.yul\":5863:5875   */\n      div\n        /* \"#utility.yul\":5853:5875   */\n      swap1\n      pop\n        /* \"#utility.yul\":5920:5921   */\n      0x01\n        /* \"#utility.yul\":5914:5918   */\n      dup3\n        /* \"#utility.yul\":5910:5922   */\n      and\n        /* \"#utility.yul\":5941:5959   */\n      dup1\n        /* \"#utility.yul\":5931:6012   */\n      tag_155\n      jumpi\n        /* \"#utility.yul\":5997:6001   */\n      0x7f\n        /* \"#utility.yul\":5989:5995   */\n      dup3\n        /* \"#utility.yul\":5985:6002   */\n      and\n        /* \"#utility.yul\":5975:6002   */\n      swap2\n      pop\n        /* \"#utility.yul\":5931:6012   */\n    tag_155:\n        /* \"#utility.yul\":6059:6061   */\n      0x20\n        /* \"#utility.yul\":6051:6057   */\n      dup3\n        /* \"#utility.yul\":6048:6062   */\n      lt\n        /* \"#utility.yul\":6028:6046   */\n      dup2\n        /* \"#utility.yul\":6025:6063   */\n      sub\n        /* \"#utility.yul\":6022:6106   */\n      tag_156\n      jumpi\n        /* \"#utility.yul\":6078:6096   */\n      tag_157\n      tag_69\n      jump\t// in\n    tag_157:\n        /* \"#utility.yul\":6022:6106   */\n    tag_156:\n        /* \"#utility.yul\":5843:6112   */\n      pop\n        /* \"#utility.yul\":5792:6112   */\n      swap2\n      swap1\n      pop\n      jump\t// out\n        /* \"#utility.yul\":6118:6259   */\n    tag_70:\n        /* \"#utility.yul\":6167:6171   */\n      0x00\n        /* \"#utility.yul\":6190:6193   */\n      dup2\n        /* \"#utility.yul\":6182:6193   */\n      swap1\n      pop\n        /* \"#utility.yul\":6213:6216   */\n      dup2\n        /* \"#utility.yul\":6210:6211   */\n      0x00\n        /* \"#utility.yul\":6203:6217   */\n      mstore\n        /* \"#utility.yul\":6247:6251   */\n      0x20\n        /* \"#utility.yul\":6244:6245   */\n      0x00\n        /* \"#utility.yul\":6234:6252   */\n      keccak256\n        /* \"#utility.yul\":6226:6252   */\n      swap1\n      pop\n        /* \"#utility.yul\":6118:6259   */\n      swap2\n      swap1\n      pop\n      jump\t// out\n        /* \"#utility.yul\":6265:6358   */\n    tag_71:\n        /* \"#utility.yul\":6302:6308   */\n      0x00\n        /* \"#utility.yul\":6349:6351   */\n      0x20\n        /* \"#utility.yul\":6344:6346   */\n      0x1f\n        /* \"#utility.yul\":6337:6342   */\n      dup4\n        /* \"#utility.yul\":6333:6347   */\n      add\n        /* \"#utility.yul\":6329:6352   */\n      div\n        /* \"#utility.yul\":6319:6352   */\n      swap1\n      pop\n        /* \"#utility.yul\":6265:6358   */\n      swap2\n      swap1\n      pop\n      jump\t// out\n        /* \"#utility.yul\":6364:6471   */\n    tag_72:\n        /* \"#utility.yul\":6408:6416   */\n      0x00\n        /* \"#utility.yul\":6458:6463   */\n      dup3\n        /* \"#utility.yul\":6452:6456   */\n      dup3\n        /* \"#utility.yul\":6448:6464   */\n      shl\n        /* \"#utility.yul\":6427:6464   */\n      swap1\n      pop\n        /* \"#utility.yul\":6364:6471   */\n      swap3\n      swap2\n      pop\n      pop\n      jump\t// out\n        /* \"#utility.yul\":6477:6870   */\n    tag_73:\n        /* \"#utility.yul\":6546:6552   */\n      0x00\n        /* \"#utility.yul\":6596:6597   */\n      0x08\n        /* \"#utility.yul\":6584:6594   */\n      dup4\n        /* \"#utility.yul\":6580:6598   */\n      mul\n        /* \"#utility.yul\":6619:6716   */\n      tag_162\n        /* \"#utility.yul\":6649:6715   */\n      0xffffffffffffffffffffffffffffffffffffffffffffffffffffffffffffffff\n        /* \"#utility.yul\":6638:6647   */\n      dup3\n        /* \"#utility.yul\":6619:6716   */\n      tag_72\n      jump\t// in\n    tag_162:\n        /* \"#utility.yul\":6737:6776   */\n      tag_163\n        /* \"#utility.yul\":6767:6775   */\n      dup7\n        /* \"#utility.yul\":6756:6765   */\n      dup4\n        /* \"#utility.yul\":6737:6776   */\n      tag_72\n      jump\t// in\n    tag_163:\n        /* \"#utility.yul\":6725:6776   */\n      swap6\n      pop\n        /* \"#utility.yul\":6809:6813   */\n      dup1\n        /* \"#utility.yul\":6805:6814   */\n      not\n        /* \"#utility.yul\":6798:6803   */\n      dup5\n        /* \"#utility.yul\":6794:6815   */\n      and\n        /* \"#utility.yul\":6785:6815   */\n      swap4\n      pop\n        /* \"#utility.yul\":6858:6862   */\n      dup1\n        /* \"#utility.yul\":6848:6856   */\n      dup7\n        /* \"#utility.yul\":6844:6863   */\n      and\n        /* \"#utility.yul\":6837:6842   */\n      dup5\n        /* \"#utility.yul\":6834:6864   */\n      or\n        /* \"#utility.yul\":6824:6864   */\n      swap3\n      pop\n        /* \"#utility.yul\":6553:6870   */\n      pop\n      pop\n        /* \"#utility.yul\":6477:6870   */\n      swap4\n      swap3\n      pop\n      pop\n      pop\n      jump\t// out\n        /* \"#utility.yul\":6876:6936   */\n    tag_74:\n        /* \"#utility.yul\":6904:6907   */\n      0x00\n        /* \"#utility.yul\":6925:6930   */\n      dup2\n        /* \"#utility.yul\":6918:6930   */\n      swap1\n      pop\n        /* \"#utility.yul\":6876:6936   */\n      swap2\n      swap1\n      pop\n      jump\t// out\n        /* \"#utility.yul\":6942:7084   */\n    tag_75:\n        /* \"#utility.yul\":6992:7001   */\n      0x00\n        /* \"#utility.yul\":7025:7078   */\n      tag_166\n        /* \"#utility.yul\":7043:7077   */\n      tag_167\n        /* \"#utility.yul\":7052:7076   */\n      tag_168\n        /* \"#utility.yul\":7070:7075   */\n      dup5\n        /* \"#utility.yul\":7052:7076   */\n      tag_61\n      jump\t// in\n    tag_168:\n        /* \"#utility.yul\":7043:7077   */\n      tag_74\n      jump\t// in\n    tag_167:\n        /* \"#utility.yul\":7025:7078   */\n      tag_61\n      jump\t// in\n    tag_166:\n        /* \"#utility.yul\":7012:7078   */\n      swap1\n      pop\n        /* \"#utility.yul\":6942:7084   */\n      swap2\n      swap1\n      pop\n      jump\t// out\n        /* \"#utility.yul\":7090:7165   */\n    tag_76:\n        /* \"#utility.yul\":7133:7136   */\n      0x00\n        /* \"#utility.yul\":7154:7159   */\n      dup2\n        /* \"#utility.yul\":7147:7159   */\n      swap1\n      pop\n        /* \"#utility.yul\":7090:7165   */\n      swap2\n      swap1\n      pop\n      jump\t// out\n        /* \"#utility.yul\":7171:7440   */\n    tag_77:\n        /* \"#utility.yul\":7281:7320   */\n      tag_171\n        /* \"#utility.yul\":7312:7319   */\n      dup4\n        /* \"#utility.yul\":7281:7320   */\n      tag_75\n      jump\t// in\n    tag_171:\n        /* \"#utility.yul\":7342:7433   */\n      tag_172\n        /* \"#utility.yul\":7391:7432   */\n      tag_173\n        /* \"#utility.yul\":7415:7431   */\n      dup3\n        /* \"#utility.yul\":7391:7432   */\n      tag_76\n      jump\t// in\n    tag_173:\n        /* \"#utility.yul\":7383:7389   */\n      dup5\n        /* \"#utility.yul\":7376:7380   */\n      dup5\n        /* \"#utility.yul\":7370:7381   */\n      sload\n        /* \"#utility.yul\":7342:7433   */\n      tag_73\n      jump\t// in\n    tag_172:\n        /* \"#utility.yul\":7336:7340   */\n      dup3\n        /* \"#utility.yul\":7329:7434   */\n      sstore\n        /* \"#utility.yul\":7247:7440   */\n      pop\n        /* \"#utility.yul\":7171:7440   */\n      pop\n      pop\n      pop\n      jump\t// out\n        /* \"#utility.yul\":7446:7519   */\n    tag_78:\n        /* \"#utility.yul\":7491:7494   */\n      0x00\n        /* \"#utility.yul\":7512:7513   */\n      0x00\n        /* \"#utility.yul\":7505:7513   */\n      swap1\n      pop\n        /* \"#utility.yul\":7446:7519   */\n      swap1\n      jump\t// out\n        /* \"#utility.yul\":7525:7714   */\n    tag_79:\n        /* \"#utility.yul\":7602:7634   */\n      tag_176\n      tag_78\n      jump\t// in\n    tag_176:\n        /* \"#utility.yul\":7643:7708   */\n      tag_177\n        /* \"#utility.yul\":7701:7707   */\n      dup2\n        /* \"#utility.yul\":7693:7699   */\n      dup5\n        /* \"#utility.yul\":7687:7691   */\n      dup5\n        /* \"#utility.yul\":7643:7708   */\n      tag_77\n      jump\t// in\n    tag_177:\n        /* \"#utility.yul\":7578:7714   */\n      pop\n        /* \"#utility.yul\":7525:7714   */\n      pop\n      pop\n      jump\t// out\n        /* \"#utility.yul\":7720:7906   */\n    tag_80:\n        /* \"#utility.yul\":7780:7900   */\n    tag_179:\n        /* \"#utility.yul\":7797:7800   */\n      dup2\n        /* \"#utility.yul\":7790:7795   */\n      dup2\n        /* \"#utility.yul\":7787:7801   */\n      lt\n        /* \"#utility.yul\":7780:7900   */\n      iszero\n      tag_181\n      jumpi\n        /* \"#utility.yul\":7851:7890   */\n      tag_182\n        /* \"#utility.yul\":7888:7889   */\n      0x00\n        /* \"#utility.yul\":7881:7886   */\n      dup3\n        /* \"#utility.yul\":7851:7890   */\n      tag_79\n      jump\t// in\n    tag_182:\n        /* \"#utility.yul\":7824:7825   */\n      0x01\n        /* \"#utility.yul\":7817:7822   */\n      dup2\n        /* \"#utility.yul\":7813:7826   */\n      add\n        /* \"#utility.yul\":7804:7826   */\n      swap1\n      pop\n        /* \"#utility.yul\":7780:7900   */\n      jump(tag_179)\n    tag_181:\n        /* \"#utility.yul\":7720:7906   */\n      pop\n      pop\n      jump\t// out\n        /* \"#utility.yul\":7912:8455   */\n    tag_81:\n        /* \"#utility.yul\":8013:8015   */\n      0x1f\n        /* \"#utility.yul\":8008:8011   */\n      dup3\n        /* \"#utility.yul\":8005:8016   */\n      gt\n        /* \"#utility.yul\":8002:8448   */\n      iszero\n      tag_184\n      jumpi\n        /* \"#utility.yul\":8047:8085   */\n      tag_185\n        /* \"#utility.yul\":8079:8084   */\n      dup2\n        /* \"#utility.yul\":8047:8085   */\n      tag_70\n      jump\t// in\n    tag_185:\n        /* \"#utility.yul\":8131:8160   */\n      tag_186\n        /* \"#utility.yul\":8149:8159   */\n      dup5\n        /* \"#utility.yul\":8131:8160   */\n      tag_71\n      jump\t// in\n    tag_186:\n        /* \"#utility.yul\":8121:8129   */\n      dup2\n        /* \"#utility.yul\":8117:8161   */\n      add\n        /* \"#utility.yul\":8314:8316   */\n      0x20\n        /* \"#utility.yul\":8302:8312   */\n      dup6\n        /* \"#utility.yul\":8299:8317   */\n      lt\n        /* \"#utility.yul\":8296:8345   */\n      iszero\n      tag_187\n      jumpi\n        /* \"#utility.yul\":8335:8343   */\n      dup2\n        /* \"#utility.yul\":8320:8343   */\n      swap1\n      pop\n        /* \"#utility.yul\":8296:8345   */\n    tag_187:\n        /* \"#utility.yul\":8358:8438   */\n      tag_188\n        /* \"#utility.yul\":8414:8436   */\n      tag_189\n        /* \"#utility.yul\":8432:8435   */\n      dup6\n        /* \"#utility.yul\":8414:8436   */\n      tag_71\n      jump\t// in\n    tag_189:\n        /* \"#utility.yul\":8404:8412   */\n      dup4\n        /* \"#utility.yul\":8400:8437   */\n      add\n        /* \"#utility.yul\":8387:8398   */\n      dup3\n        /* \"#utility.yul\":8358:8438   */\n      tag_80\n      jump\t// in\n    tag_188:\n        /* \"#utility.yul\":8017:8448   */\n      pop\n      pop\n        /* \"#utility.yul\":8002:8448   */\n    tag_184:\n        /* \"#utility.yul\":7912:8455   */\n      pop\n      pop\n      pop\n      jump\t// out\n        /* \"#utility.yul\":8461:8578   */\n    tag_82:\n        /* \"#utility.yul\":8515:8523   */\n      0x00\n        /* \"#utility.yul\":8565:8570   */\n      dup3\n        /* \"#utility.yul\":8559:8563   */\n      dup3\n        /* \"#utility.yul\":8555:8571   */\n      shr\n        /* \"#utility.yul\":8534:8571   */\n      swap1\n      pop\n        /* \"#utility.yul\":8461:8578   */\n      swap3\n      swap2\n      pop\n      pop\n      jump\t// out\n        /* \"#utility.yul\":8584:8753   */\n    tag_83:\n        /* \"#utility.yul\":8628:8634   */\n      0x00\n        /* \"#utility.yul\":8661:8712   */\n      tag_192\n        /* \"#utility.yul\":8709:8710   */\n      0x00\n        /* \"#utility.yul\":8705:8711   */\n      not\n        /* \"#utility.yul\":8697:8702   */\n      dup5\n        /* \"#utility.yul\":8694:8695   */\n      0x08\n        /* \"#utility.yul\":8690:8703   */\n      mul\n        /* \"#utility.yul\":8661:8712   */\n      tag_82\n      jump\t// in\n    tag_192:\n        /* \"#utility.yul\":8657:8713   */\n      not\n        /* \"#utility.yul\":8742:8746   */\n      dup1\n        /* \"#utility.yul\":8736:8740   */\n      dup4\n        /* \"#utility.yul\":8732:8747   */\n      and\n        /* \"#utility.yul\":8722:8747   */\n      swap2\n      pop\n        /* \"#utility.yul\":8635:8753   */\n      pop\n        /* \"#utility.yul\":8584:8753   */\n      swap3\n      swap2\n      pop\n      pop\n      jump\t// out\n        /* \"#utility.yul\":8758:9053   */\n    tag_84:\n        /* \"#utility.yul\":8834:8838   */\n      0x00\n        /* \"#utility.yul\":8980:9009   */\n      tag_194\n        /* \"#utility.yul\":9005:9008   */\n      dup4\n        /* \"#utility.yul\":8999:9003   */\n      dup4\n        /* \"#utility.yul\":8980:9009   */\n      tag_83\n      jump\t// in\n    tag_194:\n        /* \"#utility.yul\":8972:9009   */\n      swap2\n      pop\n        /* \"#utility.yul\":9042:9045   */\n      dup3\n        /* \"#utility.yul\":9039:9040   */\n      0x02\n        /* \"#utility.yul\":9035:9046   */\n      mul\n        /* \"#utility.yul\":9029:9033   */\n      dup3\n        /* \"#utility.yul\":9026:9047   */\n      or\n        /* \"#utility.yul\":9018:9047   */\n      swap1\n      pop\n        /* \"#utility.yul\":8758:9053   */\n      swap3\n      swap2\n      pop\n      pop\n      jump\t// out\n        /* \"#utility.yul\":9058:10453   */\n    tag_23:\n        /* \"#utility.yul\":9175:9212   */\n      tag_196\n        /* \"#utility.yul\":9208:9211   */\n      dup3\n        /* \"#utility.yul\":9175:9212   */\n      tag_64\n      jump\t// in\n    tag_196:\n        /* \"#utility.yul\":9277:9295   */\n      0xffffffffffffffff\n        /* \"#utility.yul\":9269:9275   */\n      dup2\n        /* \"#utility.yul\":9266:9296   */\n      gt\n        /* \"#utility.yul\":9263:9319   */\n      iszero\n      tag_197\n      jumpi\n        /* \"#utility.yul\":9299:9317   */\n      tag_198\n      tag_51\n      jump\t// in\n    tag_198:\n        /* \"#utility.yul\":9263:9319   */\n    tag_197:\n        /* \"#utility.yul\":9343:9381   */\n      tag_199\n        /* \"#utility.yul\":9375:9379   */\n      dup3\n        /* \"#utility.yul\":9369:9380   */\n      sload\n        /* \"#utility.yul\":9343:9381   */\n      tag_27\n      jump\t// in\n    tag_199:\n        /* \"#utility.yul\":9428:9495   */\n      tag_200\n        /* \"#utility.yul\":9488:9494   */\n      dup3\n        /* \"#utility.yul\":9480:9486   */\n      dup3\n        /* \"#utility.yul\":9474:9478   */\n      dup6\n        /* \"#utility.yul\":9428:9495   */\n      tag_81\n      jump\t// in\n    tag_200:\n        /* \"#utility.yul\":9522:9523   */\n      0x00\n        /* \"#utility.yul\":9546:9550   */\n      0x20\n        /* \"#utility.yul\":9533:9550   */\n      swap1\n      pop\n        /* \"#utility.yul\":9578:9580   */\n      0x1f\n        /* \"#utility.yul\":9570:9576   */\n      dup4\n        /* \"#utility.yul\":9567:9581   */\n      gt\n        /* \"#utility.yul\":9595:9596   */\n      0x01\n        /* \"#utility.yul\":9590:10208   */\n      dup2\n      eq\n      tag_202\n      jumpi\n        /* \"#utility.yul\":10252:10253   */\n      0x00\n        /* \"#utility.yul\":10269:10275   */\n      dup5\n        /* \"#utility.yul\":10266:10343   */\n      iszero\n      tag_203\n      jumpi\n        /* \"#utility.yul\":10318:10327   */\n      dup3\n        /* \"#utility.yul\":10313:10316   */\n      dup8\n        /* \"#utility.yul\":10309:10328   */\n      add\n        /* \"#utility.yul\":10303:10329   */\n      mload\n        /* \"#utility.yul\":10294:10329   */\n      swap1\n      pop\n        /* \"#utility.yul\":10266:10343   */\n    tag_203:\n        /* \"#utility.yul\":10369:10436   */\n      tag_204\n        /* \"#utility.yul\":10429:10435   */\n      dup6\n        /* \"#utility.yul\":10422:10427   */\n      dup3\n        /* \"#utility.yul\":10369:10436   */\n      tag_84\n      jump\t// in\n    tag_204:\n        /* \"#utility.yul\":10363:10367   */\n      dup7\n        /* \"#utility.yul\":10356:10437   */\n      sstore\n        /* \"#utility.yul\":10225:10447   */\n      pop\n        /* \"#utility.yul\":9560:10447   */\n      jump(tag_201)\n        /* \"#utility.yul\":9590:10208   */\n    tag_202:\n        /* \"#utility.yul\":9642:9646   */\n      0x1f\n        /* \"#utility.yul\":9638:9647   */\n      not\n        /* \"#utility.yul\":9630:9636   */\n      dup5\n        /* \"#utility.yul\":9626:9648   */\n      and\n        /* \"#utility.yul\":9676:9713   */\n      tag_205\n        /* \"#utility.yul\":9708:9712   */\n      dup7\n        /* \"#utility.yul\":9676:9713   */\n      tag_70\n      jump\t// in\n    tag_205:\n        /* \"#utility.yul\":9735:9736   */\n      0x00\n        /* \"#utility.yul\":9749:9957   */\n    tag_206:\n        /* \"#utility.yul\":9763:9770   */\n      dup3\n        /* \"#utility.yul\":9760:9761   */\n      dup2\n        /* \"#utility.yul\":9757:9771   */\n      lt\n        /* \"#utility.yul\":9749:9957   */\n      iszero\n      tag_208\n      jumpi\n        /* \"#utility.yul\":9842:9851   */\n      dup5\n        /* \"#utility.yul\":9837:9840   */\n      dup10\n        /* \"#utility.yul\":9833:9852   */\n      add\n        /* \"#utility.yul\":9827:9853   */\n      mload\n        /* \"#utility.yul\":9819:9825   */\n      dup3\n        /* \"#utility.yul\":9812:9854   */\n      sstore\n        /* \"#utility.yul\":9893:9894   */\n      0x01\n        /* \"#utility.yul\":9885:9891   */\n      dup3\n        /* \"#utility.yul\":9881:9895   */\n      add\n        /* \"#utility.yul\":9871:9895   */\n      swap2\n      pop\n        /* \"#utility.yul\":9940:9942   */\n      0x20\n        /* \"#utility.yul\":9929:9938   */\n      dup6\n        /* \"#utility.yul\":9925:9943   */\n      add\n        /* \"#utility.yul\":9912:9943   */\n      swap5\n      pop\n        /* \"#utility.yul\":9786:9790   */\n      0x20\n        /* \"#utility.yul\":9783:9784   */\n      dup2\n        /* \"#utility.yul\":9779:9791   */\n      add\n        /* \"#utility.yul\":9774:9791   */\n      swap1\n      pop\n        /* \"#utility.yul\":9749:9957   */\n      jump(tag_206)\n    tag_208:\n        /* \"#utility.yul\":9985:9991   */\n      dup7\n        /* \"#utility.yul\":9976:9983   */\n      dup4\n        /* \"#utility.yul\":9973:9992   */\n      lt\n        /* \"#utility.yul\":9970:10149   */\n      iszero\n      tag_209\n      jumpi\n        /* \"#utility.yul\":10043:10052   */\n      dup5\n        /* \"#utility.yul\":10038:10041   */\n      dup10\n        /* \"#utility.yul\":10034:10053   */\n      add\n        /* \"#utility.yul\":10028:10054   */\n      mload\n        /* \"#utility.yul\":10086:10134   */\n      tag_210\n        /* \"#utility.yul\":10128:10132   */\n      0x1f\n        /* \"#utility.yul\":10120:10126   */\n      dup10\n        /* \"#utility.yul\":10116:10133   */\n      and\n        /* \"#utility.yul\":10105:10114   */\n      dup3\n        /* \"#utility.yul\":10086:10134   */\n      tag_83\n      jump\t// in\n    tag_210:\n        /* \"#utility.yul\":10078:10084   */\n      dup4\n        /* \"#utility.yul\":10071:10135   */\n      sstore\n        /* \"#utility.yul\":9993:10149   */\n      pop\n        /* \"#utility.yul\":9970:10149   */\n    tag_209:\n        /* \"#utility.yul\":10195:10196   */\n      0x01\n        /* \"#utility.yul\":10191:10192   */\n      0x02\n        /* \"#utility.yul\":10183:10189   */\n      dup9\n        /* \"#utility.yul\":10179:10193   */\n      mul\n        /* \"#utility.yul\":10175:10197   */\n      add\n        /* \"#utility.yul\":10169:10173   */\n      dup9\n        /* \"#utility.yul\":10162:10198   */\n      sstore\n        /* \"#utility.yul\":9597:10208   */\n      pop\n      pop\n      pop\n        /* \"#utility.yul\":9560:10447   */\n    tag_201:\n      pop\n        /* \"#utility.yul\":9150:10453   */\n      pop\n      pop\n      pop\n        /* \"#utility.yul\":9058:10453   */\n      pop\n      pop\n      jump\t// out\n        /* \"#utility.yul\":10459:10628   */\n    tag_85:\n        /* \"#utility.yul\":10599:10620   */\n      0x496e646578206f7574206f6620626f756e647300000000000000000000000000\n        /* \"#utility.yul\":10595:10596   */\n      0x00\n        /* \"#utility.yul\":10587:10593   */\n      dup3\n        /* \"#utility.yul\":10583:10597   */\n      add\n        /* \"#utility.yul\":10576:10621   */\n      mstore\n        /* \"#utility.yul\":10459:10628   */\n      pop\n      jump\t// out\n        /* \"#utility.yul\":10634:11000   */\n    tag_86:\n        /* \"#utility.yul\":10776:10779   */\n      0x00\n        /* \"#utility.yul\":10797:10864   */\n      tag_213\n        /* \"#utility.yul\":10861:10863   */\n      0x13\n        /* \"#utility.yul\":10856:10859   */\n      dup4\n        /* \"#utility.yul\":10797:10864   */\n      tag_65\n      jump\t// in\n    tag_213:\n        /* \"#utility.yul\":10790:10864   */\n      swap2\n      pop\n        /* \"#utility.yul\":10873:10966   */\n      tag_214\n        /* \"#utility.yul\":10962:10965   */\n      dup3\n        /* \"#utility.yul\":10873:10966   */\n      tag_85\n      jump\t// in\n    tag_214:\n        /* \"#utility.yul\":10991:10993   */\n      0x20\n        /* \"#utility.yul\":10986:10989   */\n      dup3\n        /* \"#utility.yul\":10982:10994   */\n      add\n        /* \"#utility.yul\":10975:10994   */\n      swap1\n      pop\n        /* \"#utility.yul\":10634:11000   */\n      swap2\n      swap1\n      pop\n      jump\t// out\n        /* \"#utility.yul\":11006:11425   */\n    tag_35:\n        /* \"#utility.yul\":11172:11176   */\n      0x00\n        /* \"#utility.yul\":11210:11212   */\n      0x20\n        /* \"#utility.yul\":11199:11208   */\n      dup3\n        /* \"#utility.yul\":11195:11213   */\n      add\n        /* \"#utility.yul\":11187:11213   */\n      swap1\n      pop\n        /* \"#utility.yul\":11259:11268   */\n      dup2\n        /* \"#utility.yul\":11253:11257   */\n      dup2\n        /* \"#utility.yul\":11249:11269   */\n      sub\n        /* \"#utility.yul\":11245:11246   */\n      0x00\n        /* \"#utility.yul\":11234:11243   */\n      dup4\n        /* \"#utility.yul\":11230:11247   */\n      add\n        /* \"#utility.yul\":11223:11270   */\n      mstore\n        /* \"#utility.yul\":11287:11418   */\n      tag_216\n        /* \"#utility.yul\":11413:11417   */\n      dup2\n        /* \"#utility.yul\":11287:11418   */\n      tag_86\n      jump\t// in\n    tag_216:\n        /* \"#utility.yul\":11279:11418   */\n      swap1\n      pop\n        /* \"#utility.yul\":11006:11425   */\n      swap2\n      swap1\n      pop\n      jump\t// out\n        /* \"#utility.yul\":11431:11611   */\n    tag_38:\n        /* \"#utility.yul\":11479:11556   */\n      0x4e487b7100000000000000000000000000000000000000000000000000000000\n        /* \"#utility.yul\":11476:11477   */\n      0x00\n        /* \"#utility.yul\":11469:11557   */\n      mstore\n        /* \"#utility.yul\":11576:11580   */\n      0x32\n        /* \"#utility.yul\":11573:11574   */\n      0x04\n        /* \"#utility.yul\":11566:11581   */\n      mstore\n        /* \"#utility.yul\":11600:11604   */\n      0x24\n        /* \"#utility.yul\":11597:11598   */\n      0x00\n        /* \"#utility.yul\":11590:11605   */\n      revert\n\n    auxdata: 0xa2646970667358221220b51aae4a503cd4a03f900821da90e807e64488f61937a6ddc209907d29671b0864736f6c634300081e0033\n}\n",
				"bytecode": {
					"linkReferences": {},
					"object": "6080604052348015600e575f5ffd5b5061097c8061001c5f395ff3fe608060405234801561000f575f5ffd5b506004361061003f575f3560e01c806357322f09146100435780639e7a13ad1461005f578063b0467deb14610090575b5f5ffd5b61005d60048036038101906100589190610490565b6100c1565b005b6100796004803603810190610074919061051d565b61013a565b6040516100879291906105b7565b60405180910390f35b6100aa60048036038101906100a5919061051d565b6101fa565b6040516100b89291906105b7565b60405180910390f35b5f60405180604001604052808481526020018360ff16815250908060018154018082558091505060019003905f5260205f2090600202015f909190919091505f820151815f01908161011391906107e2565b506020820151816001015f6101000a81548160ff021916908360ff16021790555050505050565b5f8181548110610148575f80fd5b905f5260205f2090600202015f91509050805f01805461016790610612565b80601f016020809104026020016040519081016040528092919081815260200182805461019390610612565b80156101de5780601f106101b5576101008083540402835291602001916101de565b820191905f5260205f20905b8154815290600101906020018083116101c157829003601f168201915b505050505090806001015f9054906101000a900460ff16905082565b60605f5f805490508310610243576040517f08c379a000000000000000000000000000000000000000000000000000000000815260040161023a906108fb565b60405180910390fd5b5f5f848154811061025757610256610919565b5b905f5260205f2090600202019050805f01816001015f9054906101000a900460ff1681805461028590610612565b80601f01602080910402602001604051908101604052809291908181526020018280546102b190610612565b80156102fc5780601f106102d3576101008083540402835291602001916102fc565b820191905f5260205f20905b8154815290600101906020018083116102df57829003601f168201915b505050505091509250925050915091565b5f604051905090565b5f5ffd5b5f5ffd5b5f5ffd5b5f5ffd5b5f601f19601f8301169050919050565b7f4e487b71000000000000000000000000000000000000000000000000000000005f52604160045260245ffd5b61036c82610326565b810181811067ffffffffffffffff8211171561038b5761038a610336565b5b80604052505050565b5f61039d61030d565b90506103a98282610363565b919050565b5f67ffffffffffffffff8211156103c8576103c7610336565b5b6103d182610326565b9050602081019050919050565b828183375f83830152505050565b5f6103fe6103f9846103ae565b610394565b90508281526020810184848401111561041a57610419610322565b5b6104258482856103de565b509392505050565b5f82601f8301126104415761044061031e565b5b81356104518482602086016103ec565b91505092915050565b5f60ff82169050919050565b61046f8161045a565b8114610479575f5ffd5b50565b5f8135905061048a81610466565b92915050565b5f5f604083850312156104a6576104a5610316565b5b5f83013567ffffffffffffffff8111156104c3576104c261031a565b5b6104cf8582860161042d565b92505060206104e08582860161047c565b9150509250929050565b5f819050919050565b6104fc816104ea565b8114610506575f5ffd5b50565b5f81359050610517816104f3565b92915050565b5f6020828403121561053257610531610316565b5b5f61053f84828501610509565b91505092915050565b5f81519050919050565b5f82825260208201905092915050565b8281835e5f83830152505050565b5f61057a82610548565b6105848185610552565b9350610594818560208601610562565b61059d81610326565b840191505092915050565b6105b18161045a565b82525050565b5f6040820190508181035f8301526105cf8185610570565b90506105de60208301846105a8565b9392505050565b7f4e487b71000000000000000000000000000000000000000000000000000000005f52602260045260245ffd5b5f600282049050600182168061062957607f821691505b60208210810361063c5761063b6105e5565b5b50919050565b5f819050815f5260205f209050919050565b5f6020601f8301049050919050565b5f82821b905092915050565b5f6008830261069e7fffffffffffffffffffffffffffffffffffffffffffffffffffffffffffffffff82610663565b6106a88683610663565b95508019841693508086168417925050509392505050565b5f819050919050565b5f6106e36106de6106d9846104ea565b6106c0565b6104ea565b9050919050565b5f819050919050565b6106fc836106c9565b610710610708826106ea565b84845461066f565b825550505050565b5f5f905090565b610727610718565b6107328184846106f3565b505050565b5b818110156107555761074a5f8261071f565b600181019050610738565b5050565b601f82111561079a5761076b81610642565b61077484610654565b81016020851015610783578190505b61079761078f85610654565b830182610737565b50505b505050565b5f82821c905092915050565b5f6107ba5f198460080261079f565b1980831691505092915050565b5f6107d283836107ab565b9150826002028217905092915050565b6107eb82610548565b67ffffffffffffffff81111561080457610803610336565b5b61080e8254610612565b610819828285610759565b5f60209050601f83116001811461084a575f8415610838578287015190505b61084285826107c7565b8655506108a9565b601f19841661085886610642565b5f5b8281101561087f5784890151825560018201915060208501945060208101905061085a565b8683101561089c5784890151610898601f8916826107ab565b8355505b6001600288020188555050505b505050505050565b7f496e646578206f7574206f6620626f756e6473000000000000000000000000005f82015250565b5f6108e5601383610552565b91506108f0826108b1565b602082019050919050565b5f6020820190508181035f830152610912816108d9565b9050919050565b7f4e487b71000000000000000000000000000000000000000000000000000000005f52603260045260245ffdfea2646970667358221220b51aae4a503cd4a03f900821da90e807e64488f61937a6ddc209907d29671b0864736f6c634300081e0033",
					"opcodes": "PUSH1 0x80 PUSH1 0x40 MSTORE CALLVALUE DUP1 ISZERO PUSH1 0xE JUMPI PUSH0 PUSH0 REVERT JUMPDEST POP PUSH2 0x97C DUP1 PUSH2 0x1C PUSH0 CODECOPY PUSH0 RETURN INVALID PUSH1 0x80 PUSH1 0x40 MSTORE CALLVALUE DUP1 ISZERO PUSH2 0xF JUMPI PUSH0 PUSH0 REVERT JUMPDEST POP PUSH1 0x4 CALLDATASIZE LT PUSH2 0x3F JUMPI PUSH0 CALLDATALOAD PUSH1 0xE0 SHR DUP1 PUSH4 0x57322F09 EQ PUSH2 0x43 JUMPI DUP1 PUSH4 0x9E7A13AD EQ PUSH2 0x5F JUMPI DUP1 PUSH4 0xB0467DEB EQ PUSH2 0x90 JUMPI JUMPDEST PUSH0 PUSH0 REVERT JUMPDEST PUSH2 0x5D PUSH1 0x4 DUP1 CALLDATASIZE SUB DUP2 ADD SWAP1 PUSH2 0x58 SWAP2 SWAP1 PUSH2 0x490 JUMP JUMPDEST PUSH2 0xC1 JUMP JUMPDEST STOP JUMPDEST PUSH2 0x79 PUSH1 0x4 DUP1 CALLDATASIZE SUB DUP2 ADD SWAP1 PUSH2 0x74 SWAP2 SWAP1 PUSH2 0x51D JUMP JUMPDEST PUSH2 0x13A JUMP JUMPDEST PUSH1 0x40 MLOAD PUSH2 0x87 SWAP3 SWAP2 SWAP1 PUSH2 0x5B7 JUMP JUMPDEST PUSH1 0x40 MLOAD DUP1 SWAP2 SUB SWAP1 RETURN JUMPDEST PUSH2 0xAA PUSH1 0x4 DUP1 CALLDATASIZE SUB DUP2 ADD SWAP1 PUSH2 0xA5 SWAP2 SWAP1 PUSH2 0x51D JUMP JUMPDEST PUSH2 0x1FA JUMP JUMPDEST PUSH1 0x40 MLOAD PUSH2 0xB8 SWAP3 SWAP2 SWAP1 PUSH2 0x5B7 JUMP JUMPDEST PUSH1 0x40 MLOAD DUP1 SWAP2 SUB SWAP1 RETURN JUMPDEST PUSH0 PUSH1 0x40 MLOAD DUP1 PUSH1 0x40 ADD PUSH1 0x40 MSTORE DUP1 DUP5 DUP2 MSTORE PUSH1 0x20 ADD DUP4 PUSH1 0xFF AND DUP2 MSTORE POP SWAP1 DUP1 PUSH1 0x1 DUP2 SLOAD ADD DUP1 DUP3 SSTORE DUP1 SWAP2 POP POP PUSH1 0x1 SWAP1 SUB SWAP1 PUSH0 MSTORE PUSH1 0x20 PUSH0 KECCAK256 SWAP1 PUSH1 0x2 MUL ADD PUSH0 SWAP1 SWAP2 SWAP1 SWAP2 SWAP1 SWAP2 POP PUSH0 DUP3 ADD MLOAD DUP2 PUSH0 ADD SWAP1 DUP2 PUSH2 0x113 SWAP2 SWAP1 PUSH2 0x7E2 JUMP JUMPDEST POP PUSH1 0x20 DUP3 ADD MLOAD DUP2 PUSH1 0x1 ADD PUSH0 PUSH2 0x100 EXP DUP2 SLOAD DUP2 PUSH1 0xFF MUL NOT AND SWAP1 DUP4 PUSH1 0xFF AND MUL OR SWAP1 SSTORE POP POP POP POP POP JUMP JUMPDEST PUSH0 DUP2 DUP2 SLOAD DUP2 LT PUSH2 0x148 JUMPI PUSH0 DUP1 REVERT JUMPDEST SWAP1 PUSH0 MSTORE PUSH1 0x20 PUSH0 KECCAK256 SWAP1 PUSH1 0x2 MUL ADD PUSH0 SWAP2 POP SWAP1 POP DUP1 PUSH0 ADD DUP1 SLOAD PUSH2 0x167 SWAP1 PUSH2 0x612 JUMP JUMPDEST DUP1 PUSH1 0x1F ADD PUSH1 0x20 DUP1 SWAP2 DIV MUL PUSH1 0x20 ADD PUSH1 0x40 MLOAD SWAP1 DUP2 ADD PUSH1 0x40 MSTORE DUP1 SWAP3 SWAP2 SWAP1 DUP2 DUP2 MSTORE PUSH1 0x20 ADD DUP3 DUP1 SLOAD PUSH2 0x193 SWAP1 PUSH2 0x612 JUMP JUMPDEST DUP1 ISZERO PUSH2 0x1DE JUMPI DUP1 PUSH1 0x1F LT PUSH2 0x1B5 JUMPI PUSH2 0x100 DUP1 DUP4 SLOAD DIV MUL DUP4 MSTORE SWAP2 PUSH1 0x20 ADD SWAP2 PUSH2 0x1DE JUMP JUMPDEST DUP3 ADD SWAP2 SWAP1 PUSH0 MSTORE PUSH1 0x20 PUSH0 KECCAK256 SWAP1 JUMPDEST DUP2 SLOAD DUP2 MSTORE SWAP1 PUSH1 0x1 ADD SWAP1 PUSH1 0x20 ADD DUP1 DUP4 GT PUSH2 0x1C1 JUMPI DUP3 SWAP1 SUB PUSH1 0x1F AND DUP3 ADD SWAP2 JUMPDEST POP POP POP POP POP SWAP1 DUP1 PUSH1 0x1 ADD PUSH0 SWAP1 SLOAD SWAP1 PUSH2 0x100 EXP SWAP1 DIV PUSH1 0xFF AND SWAP1 POP DUP3 JUMP JUMPDEST PUSH1 0x60 PUSH0 PUSH0 DUP1 SLOAD SWAP1 POP DUP4 LT PUSH2 0x243 JUMPI PUSH1 0x40 MLOAD PUSH32 0x8C379A000000000000000000000000000000000000000000000000000000000 DUP2 MSTORE PUSH1 0x4 ADD PUSH2 0x23A SWAP1 PUSH2 0x8FB JUMP JUMPDEST PUSH1 0x40 MLOAD DUP1 SWAP2 SUB SWAP1 REVERT JUMPDEST PUSH0 PUSH0 DUP5 DUP2 SLOAD DUP2 LT PUSH2 0x257 JUMPI PUSH2 0x256 PUSH2 0x919 JUMP JUMPDEST JUMPDEST SWAP1 PUSH0 MSTORE PUSH1 0x20 PUSH0 KECCAK256 SWAP1 PUSH1 0x2 MUL ADD SWAP1 POP DUP1 PUSH0 ADD DUP2 PUSH1 0x1 ADD PUSH0 SWAP1 SLOAD SWAP1 PUSH2 0x100 EXP SWAP1 DIV PUSH1 0xFF AND DUP2 DUP1 SLOAD PUSH2 0x285 SWAP1 PUSH2 0x612 JUMP JUMPDEST DUP1 PUSH1 0x1F ADD PUSH1 0x20 DUP1 SWAP2 DIV MUL PUSH1 0x20 ADD PUSH1 0x40 MLOAD SWAP1 DUP2 ADD PUSH1 0x40 MSTORE DUP1 SWAP3 SWAP2 SWAP1 DUP2 DUP2 MSTORE PUSH1 0x20 ADD DUP3 DUP1 SLOAD PUSH2 0x2B1 SWAP1 PUSH2 0x612 JUMP JUMPDEST DUP1 ISZERO PUSH2 0x2FC JUMPI DUP1 PUSH1 0x1F LT PUSH2 0x2D3 JUMPI PUSH2 0x100 DUP1 DUP4 SLOAD DIV MUL DUP4 MSTORE SWAP2 PUSH1 0x20 ADD SWAP2 PUSH2 0x2FC JUMP JUMPDEST DUP3 ADD SWAP2 SWAP1 PUSH0 MSTORE PUSH1 0x20 PUSH0 KECCAK256 SWAP1 JUMPDEST DUP2 SLOAD DUP2 MSTORE SWAP1 PUSH1 0x1 ADD SWAP1 PUSH1 0x20 ADD DUP1 DUP4 GT PUSH2 0x2DF JUMPI DUP3 SWAP1 SUB PUSH1 0x1F AND DUP3 ADD SWAP2 JUMPDEST POP POP POP POP POP SWAP2 POP SWAP3 POP SWAP3 POP POP SWAP2 POP SWAP2 JUMP JUMPDEST PUSH0 PUSH1 0x40 MLOAD SWAP1 POP SWAP1 JUMP JUMPDEST PUSH0 PUSH0 REVERT JUMPDEST PUSH0 PUSH0 REVERT JUMPDEST PUSH0 PUSH0 REVERT JUMPDEST PUSH0 PUSH0 REVERT JUMPDEST PUSH0 PUSH1 0x1F NOT PUSH1 0x1F DUP4 ADD AND SWAP1 POP SWAP2 SWAP1 POP JUMP JUMPDEST PUSH32 0x4E487B7100000000000000000000000000000000000000000000000000000000 PUSH0 MSTORE PUSH1 0x41 PUSH1 0x4 MSTORE PUSH1 0x24 PUSH0 REVERT JUMPDEST PUSH2 0x36C DUP3 PUSH2 0x326 JUMP JUMPDEST DUP2 ADD DUP2 DUP2 LT PUSH8 0xFFFFFFFFFFFFFFFF DUP3 GT OR ISZERO PUSH2 0x38B JUMPI PUSH2 0x38A PUSH2 0x336 JUMP JUMPDEST JUMPDEST DUP1 PUSH1 0x40 MSTORE POP POP POP JUMP JUMPDEST PUSH0 PUSH2 0x39D PUSH2 0x30D JUMP JUMPDEST SWAP1 POP PUSH2 0x3A9 DUP3 DUP3 PUSH2 0x363 JUMP JUMPDEST SWAP2 SWAP1 POP JUMP JUMPDEST PUSH0 PUSH8 0xFFFFFFFFFFFFFFFF DUP3 GT ISZERO PUSH2 0x3C8 JUMPI PUSH2 0x3C7 PUSH2 0x336 JUMP JUMPDEST JUMPDEST PUSH2 0x3D1 DUP3 PUSH2 0x326 JUMP JUMPDEST SWAP1 POP PUSH1 0x20 DUP2 ADD SWAP1 POP SWAP2 SWAP1 POP JUMP JUMPDEST DUP3 DUP2 DUP4 CALLDATACOPY PUSH0 DUP4 DUP4 ADD MSTORE POP POP POP JUMP JUMPDEST PUSH0 PUSH2 0x3FE PUSH2 0x3F9 DUP5 PUSH2 0x3AE JUMP JUMPDEST PUSH2 0x394 JUMP JUMPDEST SWAP1 POP DUP3 DUP2 MSTORE PUSH1 0x20 DUP2 ADD DUP5 DUP5 DUP5 ADD GT ISZERO PUSH2 0x41A JUMPI PUSH2 0x419 PUSH2 0x322 JUMP JUMPDEST JUMPDEST PUSH2 0x425 DUP5 DUP3 DUP6 PUSH2 0x3DE JUMP JUMPDEST POP SWAP4 SWAP3 POP POP POP JUMP JUMPDEST PUSH0 DUP3 PUSH1 0x1F DUP4 ADD SLT PUSH2 0x441 JUMPI PUSH2 0x440 PUSH2 0x31E JUMP JUMPDEST JUMPDEST DUP2 CALLDATALOAD PUSH2 0x451 DUP5 DUP3 PUSH1 0x20 DUP7 ADD PUSH2 0x3EC JUMP JUMPDEST SWAP2 POP POP SWAP3 SWAP2 POP POP JUMP JUMPDEST PUSH0 PUSH1 0xFF DUP3 AND SWAP1 POP SWAP2 SWAP1 POP JUMP JUMPDEST PUSH2 0x46F DUP2 PUSH2 0x45A JUMP JUMPDEST DUP2 EQ PUSH2 0x479 JUMPI PUSH0 PUSH0 REVERT JUMPDEST POP JUMP JUMPDEST PUSH0 DUP2 CALLDATALOAD SWAP1 POP PUSH2 0x48A DUP2 PUSH2 0x466 JUMP JUMPDEST SWAP3 SWAP2 POP POP JUMP JUMPDEST PUSH0 PUSH0 PUSH1 0x40 DUP4 DUP6 SUB SLT ISZERO PUSH2 0x4A6 JUMPI PUSH2 0x4A5 PUSH2 0x316 JUMP JUMPDEST JUMPDEST PUSH0 DUP4 ADD CALLDATALOAD PUSH8 0xFFFFFFFFFFFFFFFF DUP2 GT ISZERO PUSH2 0x4C3 JUMPI PUSH2 0x4C2 PUSH2 0x31A JUMP JUMPDEST JUMPDEST PUSH2 0x4CF DUP6 DUP3 DUP7 ADD PUSH2 0x42D JUMP JUMPDEST SWAP3 POP POP PUSH1 0x20 PUSH2 0x4E0 DUP6 DUP3 DUP7 ADD PUSH2 0x47C JUMP JUMPDEST SWAP2 POP POP SWAP3 POP SWAP3 SWAP1 POP JUMP JUMPDEST PUSH0 DUP2 SWAP1 POP SWAP2 SWAP1 POP JUMP JUMPDEST PUSH2 0x4FC DUP2 PUSH2 0x4EA JUMP JUMPDEST DUP2 EQ PUSH2 0x506 JUMPI PUSH0 PUSH0 REVERT JUMPDEST POP JUMP JUMPDEST PUSH0 DUP2 CALLDATALOAD SWAP1 POP PUSH2 0x517 DUP2 PUSH2 0x4F3 JUMP JUMPDEST SWAP3 SWAP2 POP POP JUMP JUMPDEST PUSH0 PUSH1 0x20 DUP3 DUP5 SUB SLT ISZERO PUSH2 0x532 JUMPI PUSH2 0x531 PUSH2 0x316 JUMP JUMPDEST JUMPDEST PUSH0 PUSH2 0x53F DUP5 DUP3 DUP6 ADD PUSH2 0x509 JUMP JUMPDEST SWAP2 POP POP SWAP3 SWAP2 POP POP JUMP JUMPDEST PUSH0 DUP2 MLOAD SWAP1 POP SWAP2 SWAP1 POP JUMP JUMPDEST PUSH0 DUP3 DUP3 MSTORE PUSH1 0x20 DUP3 ADD SWAP1 POP SWAP3 SWAP2 POP POP JUMP JUMPDEST DUP3 DUP2 DUP4 MCOPY PUSH0 DUP4 DUP4 ADD MSTORE POP POP POP JUMP JUMPDEST PUSH0 PUSH2 0x57A DUP3 PUSH2 0x548 JUMP JUMPDEST PUSH2 0x584 DUP2 DUP6 PUSH2 0x552 JUMP JUMPDEST SWAP4 POP PUSH2 0x594 DUP2 DUP6 PUSH1 0x20 DUP7 ADD PUSH2 0x562 JUMP JUMPDEST PUSH2 0x59D DUP2 PUSH2 0x326 JUMP JUMPDEST DUP5 ADD SWAP2 POP POP SWAP3 SWAP2 POP POP JUMP JUMPDEST PUSH2 0x5B1 DUP2 PUSH2 0x45A JUMP JUMPDEST DUP3 MSTORE POP POP JUMP JUMPDEST PUSH0 PUSH1 0x40 DUP3 ADD SWAP1 POP DUP2 DUP2 SUB PUSH0 DUP4 ADD MSTORE PUSH2 0x5CF DUP2 DUP6 PUSH2 0x570 JUMP JUMPDEST SWAP1 POP PUSH2 0x5DE PUSH1 0x20 DUP4 ADD DUP5 PUSH2 0x5A8 JUMP JUMPDEST SWAP4 SWAP3 POP POP POP JUMP JUMPDEST PUSH32 0x4E487B7100000000000000000000000000000000000000000000000000000000 PUSH0 MSTORE PUSH1 0x22 PUSH1 0x4 MSTORE PUSH1 0x24 PUSH0 REVERT JUMPDEST PUSH0 PUSH1 0x2 DUP3 DIV SWAP1 POP PUSH1 0x1 DUP3 AND DUP1 PUSH2 0x629 JUMPI PUSH1 0x7F DUP3 AND SWAP2 POP JUMPDEST PUSH1 0x20 DUP3 LT DUP2 SUB PUSH2 0x63C JUMPI PUSH2 0x63B PUSH2 0x5E5 JUMP JUMPDEST JUMPDEST POP SWAP2 SWAP1 POP JUMP JUMPDEST PUSH0 DUP2 SWAP1 POP DUP2 PUSH0 MSTORE PUSH1 0x20 PUSH0 KECCAK256 SWAP1 POP SWAP2 SWAP1 POP JUMP JUMPDEST PUSH0 PUSH1 0x20 PUSH1 0x1F DUP4 ADD DIV SWAP1 POP SWAP2 SWAP1 POP JUMP JUMPDEST PUSH0 DUP3 DUP3 SHL SWAP1 POP SWAP3 SWAP2 POP POP JUMP JUMPDEST PUSH0 PUSH1 0x8 DUP4 MUL PUSH2 0x69E PUSH32 0xFFFFFFFFFFFFFFFFFFFFFFFFFFFFFFFFFFFFFFFFFFFFFFFFFFFFFFFFFFFFFFFF DUP3 PUSH2 0x663 JUMP JUMPDEST PUSH2 0x6A8 DUP7 DUP4 PUSH2 0x663 JUMP JUMPDEST SWAP6 POP DUP1 NOT DUP5 AND SWAP4 POP DUP1 DUP7 AND DUP5 OR SWAP3 POP POP POP SWAP4 SWAP3 POP POP POP JUMP JUMPDEST PUSH0 DUP2 SWAP1 POP SWAP2 SWAP1 POP JUMP JUMPDEST PUSH0 PUSH2 0x6E3 PUSH2 0x6DE PUSH2 0x6D9 DUP5 PUSH2 0x4EA JUMP JUMPDEST PUSH2 0x6C0 JUMP JUMPDEST PUSH2 0x4EA JUMP JUMPDEST SWAP1 POP SWAP2 SWAP1 POP JUMP JUMPDEST PUSH0 DUP2 SWAP1 POP SWAP2 SWAP1 POP JUMP JUMPDEST PUSH2 0x6FC DUP4 PUSH2 0x6C9 JUMP JUMPDEST PUSH2 0x710 PUSH2 0x708 DUP3 PUSH2 0x6EA JUMP JUMPDEST DUP5 DUP5 SLOAD PUSH2 0x66F JUMP JUMPDEST DUP3 SSTORE POP POP POP POP JUMP JUMPDEST PUSH0 PUSH0 SWAP1 POP SWAP1 JUMP JUMPDEST PUSH2 0x727 PUSH2 0x718 JUMP JUMPDEST PUSH2 0x732 DUP2 DUP5 DUP5 PUSH2 0x6F3 JUMP JUMPDEST POP POP POP JUMP JUMPDEST JUMPDEST DUP2 DUP2 LT ISZERO PUSH2 0x755 JUMPI PUSH2 0x74A PUSH0 DUP3 PUSH2 0x71F JUMP JUMPDEST PUSH1 0x1 DUP2 ADD SWAP1 POP PUSH2 0x738 JUMP JUMPDEST POP POP JUMP JUMPDEST PUSH1 0x1F DUP3 GT ISZERO PUSH2 0x79A JUMPI PUSH2 0x76B DUP2 PUSH2 0x642 JUMP JUMPDEST PUSH2 0x774 DUP5 PUSH2 0x654 JUMP JUMPDEST DUP2 ADD PUSH1 0x20 DUP6 LT ISZERO PUSH2 0x783 JUMPI DUP2 SWAP1 POP JUMPDEST PUSH2 0x797 PUSH2 0x78F DUP6 PUSH2 0x654 JUMP JUMPDEST DUP4 ADD DUP3 PUSH2 0x737 JUMP JUMPDEST POP POP JUMPDEST POP POP POP JUMP JUMPDEST PUSH0 DUP3 DUP3 SHR SWAP1 POP SWAP3 SWAP2 POP POP JUMP JUMPDEST PUSH0 PUSH2 0x7BA PUSH0 NOT DUP5 PUSH1 0x8 MUL PUSH2 0x79F JUMP JUMPDEST NOT DUP1 DUP4 AND SWAP2 POP POP SWAP3 SWAP2 POP POP JUMP JUMPDEST PUSH0 PUSH2 0x7D2 DUP4 DUP4 PUSH2 0x7AB JUMP JUMPDEST SWAP2 POP DUP3 PUSH1 0x2 MUL DUP3 OR SWAP1 POP SWAP3 SWAP2 POP POP JUMP JUMPDEST PUSH2 0x7EB DUP3 PUSH2 0x548 JUMP JUMPDEST PUSH8 0xFFFFFFFFFFFFFFFF DUP2 GT ISZERO PUSH2 0x804 JUMPI PUSH2 0x803 PUSH2 0x336 JUMP JUMPDEST JUMPDEST PUSH2 0x80E DUP3 SLOAD PUSH2 0x612 JUMP JUMPDEST PUSH2 0x819 DUP3 DUP3 DUP6 PUSH2 0x759 JUMP JUMPDEST PUSH0 PUSH1 0x20 SWAP1 POP PUSH1 0x1F DUP4 GT PUSH1 0x1 DUP2 EQ PUSH2 0x84A JUMPI PUSH0 DUP5 ISZERO PUSH2 0x838 JUMPI DUP3 DUP8 ADD MLOAD SWAP1 POP JUMPDEST PUSH2 0x842 DUP6 DUP3 PUSH2 0x7C7 JUMP JUMPDEST DUP7 SSTORE POP PUSH2 0x8A9 JUMP JUMPDEST PUSH1 0x1F NOT DUP5 AND PUSH2 0x858 DUP7 PUSH2 0x642 JUMP JUMPDEST PUSH0 JUMPDEST DUP3 DUP2 LT ISZERO PUSH2 0x87F JUMPI DUP5 DUP10 ADD MLOAD DUP3 SSTORE PUSH1 0x1 DUP3 ADD SWAP2 POP PUSH1 0x20 DUP6 ADD SWAP5 POP PUSH1 0x20 DUP2 ADD SWAP1 POP PUSH2 0x85A JUMP JUMPDEST DUP7 DUP4 LT ISZERO PUSH2 0x89C JUMPI DUP5 DUP10 ADD MLOAD PUSH2 0x898 PUSH1 0x1F DUP10 AND DUP3 PUSH2 0x7AB JUMP JUMPDEST DUP4 SSTORE POP JUMPDEST PUSH1 0x1 PUSH1 0x2 DUP9 MUL ADD DUP9 SSTORE POP POP POP JUMPDEST POP POP POP POP POP POP JUMP JUMPDEST PUSH32 0x496E646578206F7574206F6620626F756E647300000000000000000000000000 PUSH0 DUP3 ADD MSTORE POP JUMP JUMPDEST PUSH0 PUSH2 0x8E5 PUSH1 0x13 DUP4 PUSH2 0x552 JUMP JUMPDEST SWAP2 POP PUSH2 0x8F0 DUP3 PUSH2 0x8B1 JUMP JUMPDEST PUSH1 0x20 DUP3 ADD SWAP1 POP SWAP2 SWAP1 POP JUMP JUMPDEST PUSH0 PUSH1 0x20 DUP3 ADD SWAP1 POP DUP2 DUP2 SUB PUSH0 DUP4 ADD MSTORE PUSH2 0x912 DUP2 PUSH2 0x8D9 JUMP JUMPDEST SWAP1 POP SWAP2 SWAP1 POP JUMP JUMPDEST PUSH32 0x4E487B7100000000000000000000000000000000000000000000000000000000 PUSH0 MSTORE PUSH1 0x32 PUSH1 0x4 MSTORE PUSH1 0x24 PUSH0 REVERT INVALID LOG2 PUSH5 0x6970667358 0x22 SLT KECCAK256 0xB5 BYTE 0xAE BLOBBASEFEE POP EXTCODECOPY 0xD4 LOG0 EXTCODEHASH SWAP1 ADDMOD 0x21 0xDA SWAP1 0xE8 SMOD DUPN 0x44 DUP9 0xF6 NOT CALLDATACOPY 0xA6 0xDD 0xC2 MULMOD SWAP1 PUSH30 0x29671B0864736F6C634300081E0033000000000000000000000000000000 "
				},
				"gasEstimates": {
					"creation": {
						"codeDepositCost": "485600",
						"executionCost": "516",
						"totalCost": "486116"
					},
					"external": {
						"addPerson(string,uint8)": "infinite",
						"getUser(uint256)": "infinite",
						"people(uint256)": "infinite"
					}
				},
				"methodIdentifiers": {
					"addPerson(string,uint8)": "57322f09",
					"getUser(uint256)": "b0467deb",
					"people(uint256)": "9e7a13ad"
				}
			},
			"storageLayout": {
				"storage": [
					{
						"astId": 9,
						"contract": "tasks/Task_03.sol:Task_03",
						"label": "people",
						"offset": 0,
						"slot": "0",
						"type": "t_array(t_struct(Person)5_storage)dyn_storage"
					}
				],
				"types": {
					"t_array(t_struct(Person)5_storage)dyn_storage": {
						"base": "t_struct(Person)5_storage",
						"encoding": "dynamic_array",
						"label": "struct Task_03.Person[]",
						"numberOfBytes": "32"
					},
					"t_string_storage": {
						"encoding": "bytes",
						"label": "string",
						"numberOfBytes": "32"
					},
					"t_struct(Person)5_storage": {
						"encoding": "inplace",
						"label": "struct Task_03.Person",
						"members": [
							{
								"astId": 2,
								"contract": "tasks/Task_03.sol:Task_03",
								"label": "name",
								"offset": 0,
								"slot": "0",
								"type": "t_string_storage"
							},
							{
								"astId": 4,
								"contract": "tasks/Task_03.sol:Task_03",
								"label": "age",
								"offset": 0,
								"slot": "1",
								"type": "t_uint8"
							}
						],
						"numberOfBytes": "64"
					},
					"t_uint8": {
						"encoding": "inplace",
						"label": "uint8",
						"numberOfBytes": "1"
					}
				}
			},
			"userdoc": {
				"kind": "user",
				"methods": {},
				"version": 1
			}
		}
	}
}