{
	"tasks/Task_07.sol": {
		"Task_07": {
			"abi": [
				{
					"inputs": [],
					"stateMutability": "nonpayable",
					"type": "constructor"
				},
				{
					"inputs": [
						{
							"internalType": "uint256",
							"name": "_value",
							"type": "uint256"
						}
					],
					"name": "getBytes",
					"outputs": [
						{
							"internalType": "bytes",
							"name": "",
							"type": "bytes"
						}
					],
					"stateMutability": "pure",
					"type": "function"
				},
				{
					"inputs": [
						{
							"internalType": "string",
							"name": "_str",
							"type": "string"
						}
					],
					"name": "getBytesFromString",
					"outputs": [
						{
							"internalType": "bytes",
							"name": "",
							"type": "bytes"
						}
					],
					"stateMutability": "pure",
					"type": "function"
				},
				{
					"inputs": [],
					"name": "owner",
					"outputs": [
						{
							"internalType": "address",
							"name": "",
							"type": "address"
						}
					],
					"stateMutability": "view",
					"type": "function"
				}
			],
			"devdoc": {
				"kind": "dev",
				"methods": {},
				"version": 1
			},
			"evm": {
				"assembly": "    /* \"tasks/Task_07.sol\":58:711  contract Task_07 {... */\n  mstore(0x40, 0x80)\n    /* \"tasks/Task_07.sol\":216:263  constructor() {... */\n  callvalue\n  dup1\n  iszero\n  tag_1\n  jumpi\n  revert(0x00, 0x00)\ntag_1:\n  pop\n    /* \"tasks/Task_07.sol\":247:257  msg.sender */\n  caller\n    /* \"tasks/Task_07.sol\":239:244  owner */\n  0x00\n  0x00\n    /* \"tasks/Task_07.sol\":239:257  owner = msg.sender */\n  0x0100\n  exp\n  dup2\n  sload\n  dup2\n  0xffffffffffffffffffffffffffffffffffffffff\n  mul\n  not\n  and\n  swap1\n  dup4\n  0xffffffffffffffffffffffffffffffffffffffff\n  and\n  mul\n  or\n  swap1\n  sstore\n  pop\n    /* \"tasks/Task_07.sol\":58:711  contract Task_07 {... */\n  dataSize(sub_0)\n  dup1\n  dataOffset(sub_0)\n  0x00\n  codecopy\n  0x00\n  return\nstop\n\nsub_0: assembly {\n        /* \"tasks/Task_07.sol\":58:711  contract Task_07 {... */\n      mstore(0x40, 0x80)\n      callvalue\n      dup1\n      iszero\n      tag_1\n      jumpi\n      revert(0x00, 0x00)\n    tag_1:\n      pop\n      jumpi(tag_2, lt(calldatasize, 0x04))\n      shr(0xe0, calldataload(0x00))\n      dup1\n      0x57bc2ef3\n      eq\n      tag_3\n      jumpi\n      dup1\n      0x8da5cb5b\n      eq\n      tag_4\n      jumpi\n      dup1\n      0xa2ca1b24\n      eq\n      tag_5\n      jumpi\n    tag_2:\n      revert(0x00, 0x00)\n        /* \"tasks/Task_07.sol\":471:586  function getBytes(uint256 _value) public pure returns (bytes memory) {... */\n    tag_3:\n      tag_6\n      0x04\n      dup1\n      calldatasize\n      sub\n      dup2\n      add\n      swap1\n      tag_7\n      swap2\n      swap1\n      tag_8\n      jump\t// in\n    tag_7:\n      tag_9\n      jump\t// in\n    tag_6:\n      mload(0x40)\n      tag_10\n      swap2\n      swap1\n      tag_11\n      jump\t// in\n    tag_10:\n      mload(0x40)\n      dup1\n      swap2\n      sub\n      swap1\n      return\n        /* \"tasks/Task_07.sol\":189:209  address public owner */\n    tag_4:\n      tag_12\n      tag_13\n      jump\t// in\n    tag_12:\n      mload(0x40)\n      tag_14\n      swap2\n      swap1\n      tag_15\n      jump\t// in\n    tag_14:\n      mload(0x40)\n      dup1\n      swap2\n      sub\n      swap1\n      return\n        /* \"tasks/Task_07.sol\":591:709  function getBytesFromString(string memory _str) public pure returns (bytes memory) {... */\n    tag_5:\n      tag_16\n      0x04\n      dup1\n      calldatasize\n      sub\n      dup2\n      add\n      swap1\n      tag_17\n      swap2\n      swap1\n      tag_18\n      jump\t// in\n    tag_17:\n      tag_19\n      jump\t// in\n    tag_16:\n      mload(0x40)\n      tag_20\n      swap2\n      swap1\n      tag_11\n      jump\t// in\n    tag_20:\n      mload(0x40)\n      dup1\n      swap2\n      sub\n      swap1\n      return\n        /* \"tasks/Task_07.sol\":471:586  function getBytes(uint256 _value) public pure returns (bytes memory) {... */\n    tag_9:\n        /* \"tasks/Task_07.sol\":526:538  bytes memory */\n      0x60\n        /* \"tasks/Task_07.sol\":573:579  _value */\n      dup2\n        /* \"tasks/Task_07.sol\":556:580  abi.encodePacked(_value) */\n      add(0x20, mload(0x40))\n      tag_22\n      swap2\n      swap1\n      tag_23\n      jump\t// in\n    tag_22:\n      mload(0x40)\n      0x20\n      dup2\n      dup4\n      sub\n      sub\n      dup2\n      mstore\n      swap1\n      0x40\n      mstore\n        /* \"tasks/Task_07.sol\":549:580  return abi.encodePacked(_value) */\n      swap1\n      pop\n        /* \"tasks/Task_07.sol\":471:586  function getBytes(uint256 _value) public pure returns (bytes memory) {... */\n      swap2\n      swap1\n      pop\n      jump\t// out\n        /* \"tasks/Task_07.sol\":189:209  address public owner */\n    tag_13:\n      0x00\n      0x00\n      swap1\n      sload\n      swap1\n      0x0100\n      exp\n      swap1\n      div\n      0xffffffffffffffffffffffffffffffffffffffff\n      and\n      dup2\n      jump\t// out\n        /* \"tasks/Task_07.sol\":591:709  function getBytesFromString(string memory _str) public pure returns (bytes memory) {... */\n    tag_19:\n        /* \"tasks/Task_07.sol\":660:672  bytes memory */\n      0x60\n        /* \"tasks/Task_07.sol\":697:701  _str */\n      dup2\n        /* \"tasks/Task_07.sol\":684:702  return bytes(_str) */\n      swap1\n      pop\n        /* \"tasks/Task_07.sol\":591:709  function getBytesFromString(string memory _str) public pure returns (bytes memory) {... */\n      swap2\n      swap1\n      pop\n      jump\t// out\n        /* \"#utility.yul\":7:82   */\n    tag_25:\n        /* \"#utility.yul\":40:46   */\n      0x00\n        /* \"#utility.yul\":73:75   */\n      0x40\n        /* \"#utility.yul\":67:76   */\n      mload\n        /* \"#utility.yul\":57:76   */\n      swap1\n      pop\n        /* \"#utility.yul\":7:82   */\n      swap1\n      jump\t// out\n        /* \"#utility.yul\":88:205   */\n    tag_26:\n        /* \"#utility.yul\":197:198   */\n      0x00\n        /* \"#utility.yul\":194:195   */\n      0x00\n        /* \"#utility.yul\":187:199   */\n      revert\n        /* \"#utility.yul\":211:328   */\n    tag_27:\n        /* \"#utility.yul\":320:321   */\n      0x00\n        /* \"#utility.yul\":317:318   */\n      0x00\n        /* \"#utility.yul\":310:322   */\n      revert\n        /* \"#utility.yul\":334:411   */\n    tag_28:\n        /* \"#utility.yul\":371:378   */\n      0x00\n        /* \"#utility.yul\":400:405   */\n      dup2\n        /* \"#utility.yul\":389:405   */\n      swap1\n      pop\n        /* \"#utility.yul\":334:411   */\n      swap2\n      swap1\n      pop\n      jump\t// out\n        /* \"#utility.yul\":417:539   */\n    tag_29:\n        /* \"#utility.yul\":490:514   */\n      tag_56\n        /* \"#utility.yul\":508:513   */\n      dup2\n        /* \"#utility.yul\":490:514   */\n      tag_28\n      jump\t// in\n    tag_56:\n        /* \"#utility.yul\":483:488   */\n      dup2\n        /* \"#utility.yul\":480:515   */\n      eq\n        /* \"#utility.yul\":470:533   */\n      tag_57\n      jumpi\n        /* \"#utility.yul\":529:530   */\n      0x00\n        /* \"#utility.yul\":526:527   */\n      0x00\n        /* \"#utility.yul\":519:531   */\n      revert\n        /* \"#utility.yul\":470:533   */\n    tag_57:\n        /* \"#utility.yul\":417:539   */\n      pop\n      jump\t// out\n        /* \"#utility.yul\":545:684   */\n    tag_30:\n        /* \"#utility.yul\":591:596   */\n      0x00\n        /* \"#utility.yul\":629:635   */\n      dup2\n        /* \"#utility.yul\":616:636   */\n      calldataload\n        /* \"#utility.yul\":607:636   */\n      swap1\n      pop\n        /* \"#utility.yul\":645:678   */\n      tag_59\n        /* \"#utility.yul\":672:677   */\n      dup2\n        /* \"#utility.yul\":645:678   */\n      tag_29\n      jump\t// in\n    tag_59:\n        /* \"#utility.yul\":545:684   */\n      swap3\n      swap2\n      pop\n      pop\n      jump\t// out\n        /* \"#utility.yul\":690:1019   */\n    tag_8:\n        /* \"#utility.yul\":749:755   */\n      0x00\n        /* \"#utility.yul\":798:800   */\n      0x20\n        /* \"#utility.yul\":786:795   */\n      dup3\n        /* \"#utility.yul\":777:784   */\n      dup5\n        /* \"#utility.yul\":773:796   */\n      sub\n        /* \"#utility.yul\":769:801   */\n      slt\n        /* \"#utility.yul\":766:885   */\n      iszero\n      tag_61\n      jumpi\n        /* \"#utility.yul\":804:883   */\n      tag_62\n      tag_26\n      jump\t// in\n    tag_62:\n        /* \"#utility.yul\":766:885   */\n    tag_61:\n        /* \"#utility.yul\":924:925   */\n      0x00\n        /* \"#utility.yul\":949:1002   */\n      tag_63\n        /* \"#utility.yul\":994:1001   */\n      dup5\n        /* \"#utility.yul\":985:991   */\n      dup3\n        /* \"#utility.yul\":974:983   */\n      dup6\n        /* \"#utility.yul\":970:992   */\n      add\n        /* \"#utility.yul\":949:1002   */\n      tag_30\n      jump\t// in\n    tag_63:\n        /* \"#utility.yul\":939:1002   */\n      swap2\n      pop\n        /* \"#utility.yul\":895:1012   */\n      pop\n        /* \"#utility.yul\":690:1019   */\n      swap3\n      swap2\n      pop\n      pop\n      jump\t// out\n        /* \"#utility.yul\":1025:1123   */\n    tag_31:\n        /* \"#utility.yul\":1076:1082   */\n      0x00\n        /* \"#utility.yul\":1110:1115   */\n      dup2\n        /* \"#utility.yul\":1104:1116   */\n      mload\n        /* \"#utility.yul\":1094:1116   */\n      swap1\n      pop\n        /* \"#utility.yul\":1025:1123   */\n      swap2\n      swap1\n      pop\n      jump\t// out\n        /* \"#utility.yul\":1129:1297   */\n    tag_32:\n        /* \"#utility.yul\":1212:1223   */\n      0x00\n        /* \"#utility.yul\":1246:1252   */\n      dup3\n        /* \"#utility.yul\":1241:1244   */\n      dup3\n        /* \"#utility.yul\":1234:1253   */\n      mstore\n        /* \"#utility.yul\":1286:1290   */\n      0x20\n        /* \"#utility.yul\":1281:1284   */\n      dup3\n        /* \"#utility.yul\":1277:1291   */\n      add\n        /* \"#utility.yul\":1262:1291   */\n      swap1\n      pop\n        /* \"#utility.yul\":1129:1297   */\n      swap3\n      swap2\n      pop\n      pop\n      jump\t// out\n        /* \"#utility.yul\":1303:1442   */\n    tag_33:\n        /* \"#utility.yul\":1392:1398   */\n      dup3\n        /* \"#utility.yul\":1387:1390   */\n      dup2\n        /* \"#utility.yul\":1382:1385   */\n      dup4\n        /* \"#utility.yul\":1376:1399   */\n      mcopy\n        /* \"#utility.yul\":1433:1434   */\n      0x00\n        /* \"#utility.yul\":1424:1430   */\n      dup4\n        /* \"#utility.yul\":1419:1422   */\n      dup4\n        /* \"#utility.yul\":1415:1431   */\n      add\n        /* \"#utility.yul\":1408:1435   */\n      mstore\n        /* \"#utility.yul\":1303:1442   */\n      pop\n      pop\n      pop\n      jump\t// out\n        /* \"#utility.yul\":1448:1550   */\n    tag_34:\n        /* \"#utility.yul\":1489:1495   */\n      0x00\n        /* \"#utility.yul\":1540:1542   */\n      0x1f\n        /* \"#utility.yul\":1536:1543   */\n      not\n        /* \"#utility.yul\":1531:1533   */\n      0x1f\n        /* \"#utility.yul\":1524:1529   */\n      dup4\n        /* \"#utility.yul\":1520:1534   */\n      add\n        /* \"#utility.yul\":1516:1544   */\n      and\n        /* \"#utility.yul\":1506:1544   */\n      swap1\n      pop\n        /* \"#utility.yul\":1448:1550   */\n      swap2\n      swap1\n      pop\n      jump\t// out\n        /* \"#utility.yul\":1556:1929   */\n    tag_35:\n        /* \"#utility.yul\":1642:1645   */\n      0x00\n        /* \"#utility.yul\":1670:1708   */\n      tag_69\n        /* \"#utility.yul\":1702:1707   */\n      dup3\n        /* \"#utility.yul\":1670:1708   */\n      tag_31\n      jump\t// in\n    tag_69:\n        /* \"#utility.yul\":1724:1794   */\n      tag_70\n        /* \"#utility.yul\":1787:1793   */\n      dup2\n        /* \"#utility.yul\":1782:1785   */\n      dup6\n        /* \"#utility.yul\":1724:1794   */\n      tag_32\n      jump\t// in\n    tag_70:\n        /* \"#utility.yul\":1717:1794   */\n      swap4\n      pop\n        /* \"#utility.yul\":1803:1868   */\n      tag_71\n        /* \"#utility.yul\":1861:1867   */\n      dup2\n        /* \"#utility.yul\":1856:1859   */\n      dup6\n        /* \"#utility.yul\":1849:1853   */\n      0x20\n        /* \"#utility.yul\":1842:1847   */\n      dup7\n        /* \"#utility.yul\":1838:1854   */\n      add\n        /* \"#utility.yul\":1803:1868   */\n      tag_33\n      jump\t// in\n    tag_71:\n        /* \"#utility.yul\":1893:1922   */\n      tag_72\n        /* \"#utility.yul\":1915:1921   */\n      dup2\n        /* \"#utility.yul\":1893:1922   */\n      tag_34\n      jump\t// in\n    tag_72:\n        /* \"#utility.yul\":1888:1891   */\n      dup5\n        /* \"#utility.yul\":1884:1923   */\n      add\n        /* \"#utility.yul\":1877:1923   */\n      swap2\n      pop\n        /* \"#utility.yul\":1646:1929   */\n      pop\n        /* \"#utility.yul\":1556:1929   */\n      swap3\n      swap2\n      pop\n      pop\n      jump\t// out\n        /* \"#utility.yul\":1935:2244   */\n    tag_11:\n        /* \"#utility.yul\":2046:2050   */\n      0x00\n        /* \"#utility.yul\":2084:2086   */\n      0x20\n        /* \"#utility.yul\":2073:2082   */\n      dup3\n        /* \"#utility.yul\":2069:2087   */\n      add\n        /* \"#utility.yul\":2061:2087   */\n      swap1\n      pop\n        /* \"#utility.yul\":2133:2142   */\n      dup2\n        /* \"#utility.yul\":2127:2131   */\n      dup2\n        /* \"#utility.yul\":2123:2143   */\n      sub\n        /* \"#utility.yul\":2119:2120   */\n      0x00\n        /* \"#utility.yul\":2108:2117   */\n      dup4\n        /* \"#utility.yul\":2104:2121   */\n      add\n        /* \"#utility.yul\":2097:2144   */\n      mstore\n        /* \"#utility.yul\":2161:2237   */\n      tag_74\n        /* \"#utility.yul\":2232:2236   */\n      dup2\n        /* \"#utility.yul\":2223:2229   */\n      dup5\n        /* \"#utility.yul\":2161:2237   */\n      tag_35\n      jump\t// in\n    tag_74:\n        /* \"#utility.yul\":2153:2237   */\n      swap1\n      pop\n        /* \"#utility.yul\":1935:2244   */\n      swap3\n      swap2\n      pop\n      pop\n      jump\t// out\n        /* \"#utility.yul\":2250:2376   */\n    tag_36:\n        /* \"#utility.yul\":2287:2294   */\n      0x00\n        /* \"#utility.yul\":2327:2369   */\n      0xffffffffffffffffffffffffffffffffffffffff\n        /* \"#utility.yul\":2320:2325   */\n      dup3\n        /* \"#utility.yul\":2316:2370   */\n      and\n        /* \"#utility.yul\":2305:2370   */\n      swap1\n      pop\n        /* \"#utility.yul\":2250:2376   */\n      swap2\n      swap1\n      pop\n      jump\t// out\n        /* \"#utility.yul\":2382:2478   */\n    tag_37:\n        /* \"#utility.yul\":2419:2426   */\n      0x00\n        /* \"#utility.yul\":2448:2472   */\n      tag_77\n        /* \"#utility.yul\":2466:2471   */\n      dup3\n        /* \"#utility.yul\":2448:2472   */\n      tag_36\n      jump\t// in\n    tag_77:\n        /* \"#utility.yul\":2437:2472   */\n      swap1\n      pop\n        /* \"#utility.yul\":2382:2478   */\n      swap2\n      swap1\n      pop\n      jump\t// out\n        /* \"#utility.yul\":2484:2602   */\n    tag_38:\n        /* \"#utility.yul\":2571:2595   */\n      tag_79\n        /* \"#utility.yul\":2589:2594   */\n      dup2\n        /* \"#utility.yul\":2571:2595   */\n      tag_37\n      jump\t// in\n    tag_79:\n        /* \"#utility.yul\":2566:2569   */\n      dup3\n        /* \"#utility.yul\":2559:2596   */\n      mstore\n        /* \"#utility.yul\":2484:2602   */\n      pop\n      pop\n      jump\t// out\n        /* \"#utility.yul\":2608:2830   */\n    tag_15:\n        /* \"#utility.yul\":2701:2705   */\n      0x00\n        /* \"#utility.yul\":2739:2741   */\n      0x20\n        /* \"#utility.yul\":2728:2737   */\n      dup3\n        /* \"#utility.yul\":2724:2742   */\n      add\n        /* \"#utility.yul\":2716:2742   */\n      swap1\n      pop\n        /* \"#utility.yul\":2752:2823   */\n      tag_81\n        /* \"#utility.yul\":2820:2821   */\n      0x00\n        /* \"#utility.yul\":2809:2818   */\n      dup4\n        /* \"#utility.yul\":2805:2822   */\n      add\n        /* \"#utility.yul\":2796:2802   */\n      dup5\n        /* \"#utility.yul\":2752:2823   */\n      tag_38\n      jump\t// in\n    tag_81:\n        /* \"#utility.yul\":2608:2830   */\n      swap3\n      swap2\n      pop\n      pop\n      jump\t// out\n        /* \"#utility.yul\":2836:2953   */\n    tag_39:\n        /* \"#utility.yul\":2945:2946   */\n      0x00\n        /* \"#utility.yul\":2942:2943   */\n      0x00\n        /* \"#utility.yul\":2935:2947   */\n      revert\n        /* \"#utility.yul\":2959:3076   */\n    tag_40:\n        /* \"#utility.yul\":3068:3069   */\n      0x00\n        /* \"#utility.yul\":3065:3066   */\n      0x00\n        /* \"#utility.yul\":3058:3070   */\n      revert\n        /* \"#utility.yul\":3082:3262   */\n    tag_41:\n        /* \"#utility.yul\":3130:3207   */\n      0x4e487b7100000000000000000000000000000000000000000000000000000000\n        /* \"#utility.yul\":3127:3128   */\n      0x00\n        /* \"#utility.yul\":3120:3208   */\n      mstore\n        /* \"#utility.yul\":3227:3231   */\n      0x41\n        /* \"#utility.yul\":3224:3225   */\n      0x04\n        /* \"#utility.yul\":3217:3232   */\n      mstore\n        /* \"#utility.yul\":3251:3255   */\n      0x24\n        /* \"#utility.yul\":3248:3249   */\n      0x00\n        /* \"#utility.yul\":3241:3256   */\n      revert\n        /* \"#utility.yul\":3268:3549   */\n    tag_42:\n        /* \"#utility.yul\":3351:3378   */\n      tag_86\n        /* \"#utility.yul\":3373:3377   */\n      dup3\n        /* \"#utility.yul\":3351:3378   */\n      tag_34\n      jump\t// in\n    tag_86:\n        /* \"#utility.yul\":3343:3349   */\n      dup2\n        /* \"#utility.yul\":3339:3379   */\n      add\n        /* \"#utility.yul\":3481:3487   */\n      dup2\n        /* \"#utility.yul\":3469:3479   */\n      dup2\n        /* \"#utility.yul\":3466:3488   */\n      lt\n        /* \"#utility.yul\":3445:3463   */\n      0xffffffffffffffff\n        /* \"#utility.yul\":3433:3443   */\n      dup3\n        /* \"#utility.yul\":3430:3464   */\n      gt\n        /* \"#utility.yul\":3427:3489   */\n      or\n        /* \"#utility.yul\":3424:3512   */\n      iszero\n      tag_87\n      jumpi\n        /* \"#utility.yul\":3492:3510   */\n      tag_88\n      tag_41\n      jump\t// in\n    tag_88:\n        /* \"#utility.yul\":3424:3512   */\n    tag_87:\n        /* \"#utility.yul\":3532:3542   */\n      dup1\n        /* \"#utility.yul\":3528:3530   */\n      0x40\n        /* \"#utility.yul\":3521:3543   */\n      mstore\n        /* \"#utility.yul\":3311:3549   */\n      pop\n        /* \"#utility.yul\":3268:3549   */\n      pop\n      pop\n      jump\t// out\n        /* \"#utility.yul\":3555:3684   */\n    tag_43:\n        /* \"#utility.yul\":3589:3595   */\n      0x00\n        /* \"#utility.yul\":3616:3636   */\n      tag_90\n      tag_25\n      jump\t// in\n    tag_90:\n        /* \"#utility.yul\":3606:3636   */\n      swap1\n      pop\n        /* \"#utility.yul\":3645:3678   */\n      tag_91\n        /* \"#utility.yul\":3673:3677   */\n      dup3\n        /* \"#utility.yul\":3665:3671   */\n      dup3\n        /* \"#utility.yul\":3645:3678   */\n      tag_42\n      jump\t// in\n    tag_91:\n        /* \"#utility.yul\":3555:3684   */\n      swap2\n      swap1\n      pop\n      jump\t// out\n        /* \"#utility.yul\":3690:3998   */\n    tag_44:\n        /* \"#utility.yul\":3752:3756   */\n      0x00\n        /* \"#utility.yul\":3842:3860   */\n      0xffffffffffffffff\n        /* \"#utility.yul\":3834:3840   */\n      dup3\n        /* \"#utility.yul\":3831:3861   */\n      gt\n        /* \"#utility.yul\":3828:3884   */\n      iszero\n      tag_93\n      jumpi\n        /* \"#utility.yul\":3864:3882   */\n      tag_94\n      tag_41\n      jump\t// in\n    tag_94:\n        /* \"#utility.yul\":3828:3884   */\n    tag_93:\n        /* \"#utility.yul\":3902:3931   */\n      tag_95\n        /* \"#utility.yul\":3924:3930   */\n      dup3\n        /* \"#utility.yul\":3902:3931   */\n      tag_34\n      jump\t// in\n    tag_95:\n        /* \"#utility.yul\":3894:3931   */\n      swap1\n      pop\n        /* \"#utility.yul\":3986:3990   */\n      0x20\n        /* \"#utility.yul\":3980:3984   */\n      dup2\n        /* \"#utility.yul\":3976:3991   */\n      add\n        /* \"#utility.yul\":3968:3991   */\n      swap1\n      pop\n        /* \"#utility.yul\":3690:3998   */\n      swap2\n      swap1\n      pop\n      jump\t// out\n        /* \"#utility.yul\":4004:4152   */\n    tag_45:\n        /* \"#utility.yul\":4102:4108   */\n      dup3\n        /* \"#utility.yul\":4097:4100   */\n      dup2\n        /* \"#utility.yul\":4092:4095   */\n      dup4\n        /* \"#utility.yul\":4079:4109   */\n      calldatacopy\n        /* \"#utility.yul\":4143:4144   */\n      0x00\n        /* \"#utility.yul\":4134:4140   */\n      dup4\n        /* \"#utility.yul\":4129:4132   */\n      dup4\n        /* \"#utility.yul\":4125:4141   */\n      add\n        /* \"#utility.yul\":4118:4145   */\n      mstore\n        /* \"#utility.yul\":4004:4152   */\n      pop\n      pop\n      pop\n      jump\t// out\n        /* \"#utility.yul\":4158:4583   */\n    tag_46:\n        /* \"#utility.yul\":4236:4241   */\n      0x00\n        /* \"#utility.yul\":4261:4327   */\n      tag_98\n        /* \"#utility.yul\":4277:4326   */\n      tag_99\n        /* \"#utility.yul\":4319:4325   */\n      dup5\n        /* \"#utility.yul\":4277:4326   */\n      tag_44\n      jump\t// in\n    tag_99:\n        /* \"#utility.yul\":4261:4327   */\n      tag_43\n      jump\t// in\n    tag_98:\n        /* \"#utility.yul\":4252:4327   */\n      swap1\n      pop\n        /* \"#utility.yul\":4350:4356   */\n      dup3\n        /* \"#utility.yul\":4343:4348   */\n      dup2\n        /* \"#utility.yul\":4336:4357   */\n      mstore\n        /* \"#utility.yul\":4388:4392   */\n      0x20\n        /* \"#utility.yul\":4381:4386   */\n      dup2\n        /* \"#utility.yul\":4377:4393   */\n      add\n        /* \"#utility.yul\":4426:4429   */\n      dup5\n        /* \"#utility.yul\":4417:4423   */\n      dup5\n        /* \"#utility.yul\":4412:4415   */\n      dup5\n        /* \"#utility.yul\":4408:4424   */\n      add\n        /* \"#utility.yul\":4405:4430   */\n      gt\n        /* \"#utility.yul\":4402:4514   */\n      iszero\n      tag_100\n      jumpi\n        /* \"#utility.yul\":4433:4512   */\n      tag_101\n      tag_40\n      jump\t// in\n    tag_101:\n        /* \"#utility.yul\":4402:4514   */\n    tag_100:\n        /* \"#utility.yul\":4523:4577   */\n      tag_102\n        /* \"#utility.yul\":4570:4576   */\n      dup5\n        /* \"#utility.yul\":4565:4568   */\n      dup3\n        /* \"#utility.yul\":4560:4563   */\n      dup6\n        /* \"#utility.yul\":4523:4577   */\n      tag_45\n      jump\t// in\n    tag_102:\n        /* \"#utility.yul\":4242:4583   */\n      pop\n        /* \"#utility.yul\":4158:4583   */\n      swap4\n      swap3\n      pop\n      pop\n      pop\n      jump\t// out\n        /* \"#utility.yul\":4603:4943   */\n    tag_47:\n        /* \"#utility.yul\":4659:4664   */\n      0x00\n        /* \"#utility.yul\":4708:4711   */\n      dup3\n        /* \"#utility.yul\":4701:4705   */\n      0x1f\n        /* \"#utility.yul\":4693:4699   */\n      dup4\n        /* \"#utility.yul\":4689:4706   */\n      add\n        /* \"#utility.yul\":4685:4712   */\n      slt\n        /* \"#utility.yul\":4675:4797   */\n      tag_104\n      jumpi\n        /* \"#utility.yul\":4716:4795   */\n      tag_105\n      tag_39\n      jump\t// in\n    tag_105:\n        /* \"#utility.yul\":4675:4797   */\n    tag_104:\n        /* \"#utility.yul\":4833:4839   */\n      dup2\n        /* \"#utility.yul\":4820:4840   */\n      calldataload\n        /* \"#utility.yul\":4858:4937   */\n      tag_106\n        /* \"#utility.yul\":4933:4936   */\n      dup5\n        /* \"#utility.yul\":4925:4931   */\n      dup3\n        /* \"#utility.yul\":4918:4922   */\n      0x20\n        /* \"#utility.yul\":4910:4916   */\n      dup7\n        /* \"#utility.yul\":4906:4923   */\n      add\n        /* \"#utility.yul\":4858:4937   */\n      tag_46\n      jump\t// in\n    tag_106:\n        /* \"#utility.yul\":4849:4937   */\n      swap2\n      pop\n        /* \"#utility.yul\":4665:4943   */\n      pop\n        /* \"#utility.yul\":4603:4943   */\n      swap3\n      swap2\n      pop\n      pop\n      jump\t// out\n        /* \"#utility.yul\":4949:5458   */\n    tag_18:\n        /* \"#utility.yul\":5018:5024   */\n      0x00\n        /* \"#utility.yul\":5067:5069   */\n      0x20\n        /* \"#utility.yul\":5055:5064   */\n      dup3\n        /* \"#utility.yul\":5046:5053   */\n      dup5\n        /* \"#utility.yul\":5042:5065   */\n      sub\n        /* \"#utility.yul\":5038:5070   */\n      slt\n        /* \"#utility.yul\":5035:5154   */\n      iszero\n      tag_108\n      jumpi\n        /* \"#utility.yul\":5073:5152   */\n      tag_109\n      tag_26\n      jump\t// in\n    tag_109:\n        /* \"#utility.yul\":5035:5154   */\n    tag_108:\n        /* \"#utility.yul\":5221:5222   */\n      0x00\n        /* \"#utility.yul\":5210:5219   */\n      dup3\n        /* \"#utility.yul\":5206:5223   */\n      add\n        /* \"#utility.yul\":5193:5224   */\n      calldataload\n        /* \"#utility.yul\":5251:5269   */\n      0xffffffffffffffff\n        /* \"#utility.yul\":5243:5249   */\n      dup2\n        /* \"#utility.yul\":5240:5270   */\n      gt\n        /* \"#utility.yul\":5237:5354   */\n      iszero\n      tag_110\n      jumpi\n        /* \"#utility.yul\":5273:5352   */\n      tag_111\n      tag_27\n      jump\t// in\n    tag_111:\n        /* \"#utility.yul\":5237:5354   */\n    tag_110:\n        /* \"#utility.yul\":5378:5441   */\n      tag_112\n        /* \"#utility.yul\":5433:5440   */\n      dup5\n        /* \"#utility.yul\":5424:5430   */\n      dup3\n        /* \"#utility.yul\":5413:5422   */\n      dup6\n        /* \"#utility.yul\":5409:5431   */\n      add\n        /* \"#utility.yul\":5378:5441   */\n      tag_47\n      jump\t// in\n    tag_112:\n        /* \"#utility.yul\":5368:5441   */\n      swap2\n      pop\n        /* \"#utility.yul\":5164:5451   */\n      pop\n        /* \"#utility.yul\":4949:5458   */\n      swap3\n      swap2\n      pop\n      pop\n      jump\t// out\n        /* \"#utility.yul\":5464:5543   */\n    tag_48:\n        /* \"#utility.yul\":5503:5510   */\n      0x00\n        /* \"#utility.yul\":5532:5537   */\n      dup2\n        /* \"#utility.yul\":5521:5537   */\n      swap1\n      pop\n        /* \"#utility.yul\":5464:5543   */\n      swap2\n      swap1\n      pop\n      jump\t// out\n        /* \"#utility.yul\":5549:5706   */\n    tag_49:\n        /* \"#utility.yul\":5654:5699   */\n      tag_115\n        /* \"#utility.yul\":5674:5698   */\n      tag_116\n        /* \"#utility.yul\":5692:5697   */\n      dup3\n        /* \"#utility.yul\":5674:5698   */\n      tag_28\n      jump\t// in\n    tag_116:\n        /* \"#utility.yul\":5654:5699   */\n      tag_48\n      jump\t// in\n    tag_115:\n        /* \"#utility.yul\":5649:5652   */\n      dup3\n        /* \"#utility.yul\":5642:5700   */\n      mstore\n        /* \"#utility.yul\":5549:5706   */\n      pop\n      pop\n      jump\t// out\n        /* \"#utility.yul\":5712:5968   */\n    tag_23:\n        /* \"#utility.yul\":5824:5827   */\n      0x00\n        /* \"#utility.yul\":5839:5914   */\n      tag_118\n        /* \"#utility.yul\":5910:5913   */\n      dup3\n        /* \"#utility.yul\":5901:5907   */\n      dup5\n        /* \"#utility.yul\":5839:5914   */\n      tag_49\n      jump\t// in\n    tag_118:\n        /* \"#utility.yul\":5939:5941   */\n      0x20\n        /* \"#utility.yul\":5934:5937   */\n      dup3\n        /* \"#utility.yul\":5930:5942   */\n      add\n        /* \"#utility.yul\":5923:5942   */\n      swap2\n      pop\n        /* \"#utility.yul\":5959:5962   */\n      dup2\n        /* \"#utility.yul\":5952:5962   */\n      swap1\n      pop\n        /* \"#utility.yul\":5712:5968   */\n      swap3\n      swap2\n      pop\n      pop\n      jump\t// out\n\n    auxdata: 0xa26469706673582212203a495d456452291367b0f972c0942881a29c65af4e3c55d68c93d8e6322d710c64736f6c634300081e0033\n}\n",
				"bytecode": {
					"linkReferences": {},
					"object": "6080604052348015600e575f5ffd5b50335f5f6101000a81548173ffffffffffffffffffffffffffffffffffffffff021916908373ffffffffffffffffffffffffffffffffffffffff1602179055506104528061005b5f395ff3fe608060405234801561000f575f5ffd5b506004361061003f575f3560e01c806357bc2ef3146100435780638da5cb5b14610073578063a2ca1b2414610091575b5f5ffd5b61005d6004803603810190610058919061015c565b6100c1565b60405161006a91906101f7565b60405180910390f35b61007b6100ea565b6040516100889190610256565b60405180910390f35b6100ab60048036038101906100a6919061039b565b61010e565b6040516100b891906101f7565b60405180910390f35b6060816040516020016100d49190610402565b6040516020818303038152906040529050919050565b5f5f9054906101000a900473ffffffffffffffffffffffffffffffffffffffff1681565b6060819050919050565b5f604051905090565b5f5ffd5b5f5ffd5b5f819050919050565b61013b81610129565b8114610145575f5ffd5b50565b5f8135905061015681610132565b92915050565b5f6020828403121561017157610170610121565b5b5f61017e84828501610148565b91505092915050565b5f81519050919050565b5f82825260208201905092915050565b8281835e5f83830152505050565b5f601f19601f8301169050919050565b5f6101c982610187565b6101d38185610191565b93506101e38185602086016101a1565b6101ec816101af565b840191505092915050565b5f6020820190508181035f83015261020f81846101bf565b905092915050565b5f73ffffffffffffffffffffffffffffffffffffffff82169050919050565b5f61024082610217565b9050919050565b61025081610236565b82525050565b5f6020820190506102695f830184610247565b92915050565b5f5ffd5b5f5ffd5b7f4e487b71000000000000000000000000000000000000000000000000000000005f52604160045260245ffd5b6102ad826101af565b810181811067ffffffffffffffff821117156102cc576102cb610277565b5b80604052505050565b5f6102de610118565b90506102ea82826102a4565b919050565b5f67ffffffffffffffff82111561030957610308610277565b5b610312826101af565b9050602081019050919050565b828183375f83830152505050565b5f61033f61033a846102ef565b6102d5565b90508281526020810184848401111561035b5761035a610273565b5b61036684828561031f565b509392505050565b5f82601f8301126103825761038161026f565b5b813561039284826020860161032d565b91505092915050565b5f602082840312156103b0576103af610121565b5b5f82013567ffffffffffffffff8111156103cd576103cc610125565b5b6103d98482850161036e565b91505092915050565b5f819050919050565b6103fc6103f782610129565b6103e2565b82525050565b5f61040d82846103eb565b6020820191508190509291505056fea26469706673582212203a495d456452291367b0f972c0942881a29c65af4e3c55d68c93d8e6322d710c64736f6c634300081e0033",
					"opcodes": "PUSH1 0x80 PUSH1 0x40 MSTORE CALLVALUE DUP1 ISZERO PUSH1 0xE JUMPI PUSH0 PUSH0 REVERT JUMPDEST POP CALLER PUSH0 PUSH0 PUSH2 0x100 EXP DUP2 SLOAD DUP2 PUSH20 0xFFFFFFFFFFFFFFFFFFFFFFFFFFFFFFFFFFFFFFFF MUL NOT AND SWAP1 DUP4 PUSH20 0xFFFFFFFFFFFFFFFFFFFFFFFFFFFFFFFFFFFFFFFF AND MUL OR SWAP1 SSTORE POP PUSH2 0x452 DUP1 PUSH2 0x5B PUSH0 CODECOPY PUSH0 RETURN INVALID PUSH1 0x80 PUSH1 0x40 MSTORE CALLVALUE DUP1 ISZERO PUSH2 0xF JUMPI PUSH0 PUSH0 REVERT JUMPDEST POP PUSH1 0x4 CALLDATASIZE LT PUSH2 0x3F JUMPI PUSH0 CALLDATALOAD PUSH1 0xE0 SHR DUP1 PUSH4 0x57BC2EF3 EQ PUSH2 0x43 JUMPI DUP1 PUSH4 0x8DA5CB5B EQ PUSH2 0x73 JUMPI DUP1 PUSH4 0xA2CA1B24 EQ PUSH2 0x91 JUMPI JUMPDEST PUSH0 PUSH0 REVERT JUMPDEST PUSH2 0x5D PUSH1 0x4 DUP1 CALLDATASIZE SUB DUP2 ADD SWAP1 PUSH2 0x58 SWAP2 SWAP1 PUSH2 0x15C JUMP JUMPDEST PUSH2 0xC1 JUMP JUMPDEST PUSH1 0x40 MLOAD PUSH2 0x6A SWAP2 SWAP1 PUSH2 0x1F7 JUMP JUMPDEST PUSH1 0x40 MLOAD DUP1 SWAP2 SUB SWAP1 RETURN JUMPDEST PUSH2 0x7B PUSH2 0xEA JUMP JUMPDEST PUSH1 0x40 MLOAD PUSH2 0x88 SWAP2 SWAP1 PUSH2 0x256 JUMP JUMPDEST PUSH1 0x40 MLOAD DUP1 SWAP2 SUB SWAP1 RETURN JUMPDEST PUSH2 0xAB PUSH1 0x4 DUP1 CALLDATASIZE SUB DUP2 ADD SWAP1 PUSH2 0xA6 SWAP2 SWAP1 PUSH2 0x39B JUMP JUMPDEST PUSH2 0x10E JUMP JUMPDEST PUSH1 0x40 MLOAD PUSH2 0xB8 SWAP2 SWAP1 PUSH2 0x1F7 JUMP JUMPDEST PUSH1 0x40 MLOAD DUP1 SWAP2 SUB SWAP1 RETURN JUMPDEST PUSH1 0x60 DUP2 PUSH1 0x40 MLOAD PUSH1 0x20 ADD PUSH2 0xD4 SWAP2 SWAP1 PUSH2 0x402 JUMP JUMPDEST PUSH1 0x40 MLOAD PUSH1 0x20 DUP2 DUP4 SUB SUB DUP2 MSTORE SWAP1 PUSH1 0x40 MSTORE SWAP1 POP SWAP2 SWAP1 POP JUMP JUMPDEST PUSH0 PUSH0 SWAP1 SLOAD SWAP1 PUSH2 0x100 EXP SWAP1 DIV PUSH20 0xFFFFFFFFFFFFFFFFFFFFFFFFFFFFFFFFFFFFFFFF AND DUP2 JUMP JUMPDEST PUSH1 0x60 DUP2 SWAP1 POP SWAP2 SWAP1 POP JUMP JUMPDEST PUSH0 PUSH1 0x40 MLOAD SWAP1 POP SWAP1 JUMP JUMPDEST PUSH0 PUSH0 REVERT JUMPDEST PUSH0 PUSH0 REVERT JUMPDEST PUSH0 DUP2 SWAP1 POP SWAP2 SWAP1 POP JUMP JUMPDEST PUSH2 0x13B DUP2 PUSH2 0x129 JUMP JUMPDEST DUP2 EQ PUSH2 0x145 JUMPI PUSH0 PUSH0 REVERT JUMPDEST POP JUMP JUMPDEST PUSH0 DUP2 CALLDATALOAD SWAP1 POP PUSH2 0x156 DUP2 PUSH2 0x132 JUMP JUMPDEST SWAP3 SWAP2 POP POP JUMP JUMPDEST PUSH0 PUSH1 0x20 DUP3 DUP5 SUB SLT ISZERO PUSH2 0x171 JUMPI PUSH2 0x170 PUSH2 0x121 JUMP JUMPDEST JUMPDEST PUSH0 PUSH2 0x17E DUP5 DUP3 DUP6 ADD PUSH2 0x148 JUMP JUMPDEST SWAP2 POP POP SWAP3 SWAP2 POP POP JUMP JUMPDEST PUSH0 DUP2 MLOAD SWAP1 POP SWAP2 SWAP1 POP JUMP JUMPDEST PUSH0 DUP3 DUP3 MSTORE PUSH1 0x20 DUP3 ADD SWAP1 POP SWAP3 SWAP2 POP POP JUMP JUMPDEST DUP3 DUP2 DUP4 MCOPY PUSH0 DUP4 DUP4 ADD MSTORE POP POP POP JUMP JUMPDEST PUSH0 PUSH1 0x1F NOT PUSH1 0x1F DUP4 ADD AND SWAP1 POP SWAP2 SWAP1 POP JUMP JUMPDEST PUSH0 PUSH2 0x1C9 DUP3 PUSH2 0x187 JUMP JUMPDEST PUSH2 0x1D3 DUP2 DUP6 PUSH2 0x191 JUMP JUMPDEST SWAP4 POP PUSH2 0x1E3 DUP2 DUP6 PUSH1 0x20 DUP7 ADD PUSH2 0x1A1 JUMP JUMPDEST PUSH2 0x1EC DUP2 PUSH2 0x1AF JUMP JUMPDEST DUP5 ADD SWAP2 POP POP SWAP3 SWAP2 POP POP JUMP JUMPDEST PUSH0 PUSH1 0x20 DUP3 ADD SWAP1 POP DUP2 DUP2 SUB PUSH0 DUP4 ADD MSTORE PUSH2 0x20F DUP2 DUP5 PUSH2 0x1BF JUMP JUMPDEST SWAP1 POP SWAP3 SWAP2 POP POP JUMP JUMPDEST PUSH0 PUSH20 0xFFFFFFFFFFFFFFFFFFFFFFFFFFFFFFFFFFFFFFFF DUP3 AND SWAP1 POP SWAP2 SWAP1 POP JUMP JUMPDEST PUSH0 PUSH2 0x240 DUP3 PUSH2 0x217 JUMP JUMPDEST SWAP1 POP SWAP2 SWAP1 POP JUMP JUMPDEST PUSH2 0x250 DUP2 PUSH2 0x236 JUMP JUMPDEST DUP3 MSTORE POP POP JUMP JUMPDEST PUSH0 PUSH1 0x20 DUP3 ADD SWAP1 POP PUSH2 0x269 PUSH0 DUP4 ADD DUP5 PUSH2 0x247 JUMP JUMPDEST SWAP3 SWAP2 POP POP JUMP JUMPDEST PUSH0 PUSH0 REVERT JUMPDEST PUSH0 PUSH0 REVERT JUMPDEST PUSH32 0x4E487B7100000000000000000000000000000000000000000000000000000000 PUSH0 MSTORE PUSH1 0x41 PUSH1 0x4 MSTORE PUSH1 0x24 PUSH0 REVERT JUMPDEST PUSH2 0x2AD DUP3 PUSH2 0x1AF JUMP JUMPDEST DUP2 ADD DUP2 DUP2 LT PUSH8 0xFFFFFFFFFFFFFFFF DUP3 GT OR ISZERO PUSH2 0x2CC JUMPI PUSH2 0x2CB PUSH2 0x277 JUMP JUMPDEST JUMPDEST DUP1 PUSH1 0x40 MSTORE POP POP POP JUMP JUMPDEST PUSH0 PUSH2 0x2DE PUSH2 0x118 JUMP JUMPDEST SWAP1 POP PUSH2 0x2EA DUP3 DUP3 PUSH2 0x2A4 JUMP JUMPDEST SWAP2 SWAP1 POP JUMP JUMPDEST PUSH0 PUSH8 0xFFFFFFFFFFFFFFFF DUP3 GT ISZERO PUSH2 0x309 JUMPI PUSH2 0x308 PUSH2 0x277 JUMP JUMPDEST JUMPDEST PUSH2 0x312 DUP3 PUSH2 0x1AF JUMP JUMPDEST SWAP1 POP PUSH1 0x20 DUP2 ADD SWAP1 POP SWAP2 SWAP1 POP JUMP JUMPDEST DUP3 DUP2 DUP4 CALLDATACOPY PUSH0 DUP4 DUP4 ADD MSTORE POP POP POP JUMP JUMPDEST PUSH0 PUSH2 0x33F PUSH2 0x33A DUP5 PUSH2 0x2EF JUMP JUMPDEST PUSH2 0x2D5 JUMP JUMPDEST SWAP1 POP DUP3 DUP2 MSTORE PUSH1 0x20 DUP2 ADD DUP5 DUP5 DUP5 ADD GT ISZERO PUSH2 0x35B JUMPI PUSH2 0x35A PUSH2 0x273 JUMP JUMPDEST JUMPDEST PUSH2 0x366 DUP5 DUP3 DUP6 PUSH2 0x31F JUMP JUMPDEST POP SWAP4 SWAP3 POP POP POP JUMP JUMPDEST PUSH0 DUP3 PUSH1 0x1F DUP4 ADD SLT PUSH2 0x382 JUMPI PUSH2 0x381 PUSH2 0x26F JUMP JUMPDEST JUMPDEST DUP2 CALLDATALOAD PUSH2 0x392 DUP5 DUP3 PUSH1 0x20 DUP7 ADD PUSH2 0x32D JUMP JUMPDEST SWAP2 POP POP SWAP3 SWAP2 POP POP JUMP JUMPDEST PUSH0 PUSH1 0x20 DUP3 DUP5 SUB SLT ISZERO PUSH2 0x3B0 JUMPI PUSH2 0x3AF PUSH2 0x121 JUMP JUMPDEST JUMPDEST PUSH0 DUP3 ADD CALLDATALOAD PUSH8 0xFFFFFFFFFFFFFFFF DUP2 GT ISZERO PUSH2 0x3CD JUMPI PUSH2 0x3CC PUSH2 0x125 JUMP JUMPDEST JUMPDEST PUSH2 0x3D9 DUP5 DUP3 DUP6 ADD PUSH2 0x36E JUMP JUMPDEST SWAP2 POP POP SWAP3 SWAP2 POP POP JUMP JUMPDEST PUSH0 DUP2 SWAP1 POP SWAP2 SWAP1 POP JUMP JUMPDEST PUSH2 0x3FC PUSH2 0x3F7 DUP3 PUSH2 0x129 JUMP JUMPDEST PUSH2 0x3E2 JUMP JUMPDEST DUP3 MSTORE POP POP JUMP JUMPDEST PUSH0 PUSH2 0x40D DUP3 DUP5 PUSH2 0x3EB JUMP JUMPDEST PUSH1 0x20 DUP3 ADD SWAP2 POP DUP2 SWAP1 POP SWAP3 SWAP2 POP POP JUMP INVALID LOG2 PUSH5 0x6970667358 0x22 SLT KECCAK256 GASPRICE BLOBHASH TSTORE GASLIMIT PUSH5 0x52291367B0 EXTDELEGATECALL PUSH19 0xC0942881A29C65AF4E3C55D68C93D8E6322D71 0xC PUSH5 0x736F6C6343 STOP ADDMOD 0x1E STOP CALLER "
				},
				"gasEstimates": {
					"creation": {
						"codeDepositCost": "221200",
						"executionCost": "24525",
						"totalCost": "245725"
					},
					"external": {
						"getBytes(uint256)": "infinite",
						"getBytesFromString(string)": "infinite",
						"owner()": "2507"
					}
				},
				"methodIdentifiers": {
					"getBytes(uint256)": "57bc2ef3",
					"getBytesFromString(string)": "a2ca1b24",
					"owner()": "8da5cb5b"
				}
			},
			"storageLayout": {
				"storage": [
					{
						"astId": 3,
						"contract": "tasks/Task_07.sol:Task_07",
						"label": "owner",
						"offset": 0,
						"slot": "0",
						"type": "t_address"
					}
				],
				"types": {
					"t_address": {
						"encoding": "inplace",
						"label": "address",
						"numberOfBytes": "20"
					}
				}
			},
			"userdoc": {
				"kind": "user",
				"methods": {},
				"version": 1
			}
		}
	}
}