{
	"tasks/Task_09.sol": {
		"Task_09": {
			"abi": [
				{
					"inputs": [],
					"stateMutability": "nonpayable",
					"type": "constructor"
				},
				{
					"inputs": [
						{
							"internalType": "bytes1[4]",
							"name": "_data",
							"type": "bytes1[4]"
						}
					],
					"name": "getFixedByteArrayAverage",
					"outputs": [
						{
							"internalType": "uint8",
							"name": "",
							"type": "uint8"
						}
					],
					"stateMutability": "pure",
					"type": "function"
				},
				{
					"inputs": [
						{
							"internalType": "bytes1[4]",
							"name": "_data",
							"type": "bytes1[4]"
						}
					],
					"name": "getFixedByteArraySum",
					"outputs": [
						{
							"internalType": "uint8",
							"name": "",
							"type": "uint8"
						}
					],
					"stateMutability": "pure",
					"type": "function"
				},
				{
					"inputs": [],
					"name": "owner",
					"outputs": [
						{
							"internalType": "address",
							"name": "",
							"type": "address"
						}
					],
					"stateMutability": "view",
					"type": "function"
				}
			],
			"devdoc": {
				"kind": "dev",
				"methods": {},
				"version": 1
			},
			"evm": {
				"assembly": "    /* \"tasks/Task_09.sol\":58:961  contract Task_09 {... */\n  mstore(0x40, 0x80)\n    /* \"tasks/Task_09.sol\":107:154  constructor() {... */\n  callvalue\n  dup1\n  iszero\n  tag_1\n  jumpi\n  revert(0x00, 0x00)\ntag_1:\n  pop\n    /* \"tasks/Task_09.sol\":138:148  msg.sender */\n  caller\n    /* \"tasks/Task_09.sol\":130:135  owner */\n  0x00\n  0x00\n    /* \"tasks/Task_09.sol\":130:148  owner = msg.sender */\n  0x0100\n  exp\n  dup2\n  sload\n  dup2\n  0xffffffffffffffffffffffffffffffffffffffff\n  mul\n  not\n  and\n  swap1\n  dup4\n  0xffffffffffffffffffffffffffffffffffffffff\n  and\n  mul\n  or\n  swap1\n  sstore\n  pop\n    /* \"tasks/Task_09.sol\":58:961  contract Task_09 {... */\n  dataSize(sub_0)\n  dup1\n  dataOffset(sub_0)\n  0x00\n  codecopy\n  0x00\n  return\nstop\n\nsub_0: assembly {\n        /* \"tasks/Task_09.sol\":58:961  contract Task_09 {... */\n      mstore(0x40, 0x80)\n      callvalue\n      dup1\n      iszero\n      tag_1\n      jumpi\n      revert(0x00, 0x00)\n    tag_1:\n      pop\n      jumpi(tag_2, lt(calldatasize, 0x04))\n      shr(0xe0, calldataload(0x00))\n      dup1\n      0x4c06e024\n      eq\n      tag_3\n      jumpi\n      dup1\n      0x8da5cb5b\n      eq\n      tag_4\n      jumpi\n      dup1\n      0xd9207d1b\n      eq\n      tag_5\n      jumpi\n    tag_2:\n      revert(0x00, 0x00)\n        /* \"tasks/Task_09.sol\":723:959  function getFixedByteArrayAverage(bytes1[4] memory _data) public pure returns (uint8) {... */\n    tag_3:\n      tag_6\n      0x04\n      dup1\n      calldatasize\n      sub\n      dup2\n      add\n      swap1\n      tag_7\n      swap2\n      swap1\n      tag_8\n      jump\t// in\n    tag_7:\n      tag_9\n      jump\t// in\n    tag_6:\n      mload(0x40)\n      tag_10\n      swap2\n      swap1\n      tag_11\n      jump\t// in\n    tag_10:\n      mload(0x40)\n      dup1\n      swap2\n      sub\n      swap1\n      return\n        /* \"tasks/Task_09.sol\":80:100  address public owner */\n    tag_4:\n      tag_12\n      tag_13\n      jump\t// in\n    tag_12:\n      mload(0x40)\n      tag_14\n      swap2\n      swap1\n      tag_15\n      jump\t// in\n    tag_14:\n      mload(0x40)\n      dup1\n      swap2\n      sub\n      swap1\n      return\n        /* \"tasks/Task_09.sol\":495:718  function getFixedByteArraySum(bytes1[4] memory _data) public pure returns (uint8) {... */\n    tag_5:\n      tag_16\n      0x04\n      dup1\n      calldatasize\n      sub\n      dup2\n      add\n      swap1\n      tag_17\n      swap2\n      swap1\n      tag_8\n      jump\t// in\n    tag_17:\n      tag_18\n      jump\t// in\n    tag_16:\n      mload(0x40)\n      tag_19\n      swap2\n      swap1\n      tag_11\n      jump\t// in\n    tag_19:\n      mload(0x40)\n      dup1\n      swap2\n      sub\n      swap1\n      return\n        /* \"tasks/Task_09.sol\":723:959  function getFixedByteArrayAverage(bytes1[4] memory _data) public pure returns (uint8) {... */\n    tag_9:\n        /* \"tasks/Task_09.sol\":802:807  uint8 */\n      0x00\n        /* \"tasks/Task_09.sol\":819:828  uint8 sum */\n      0x00\n        /* \"tasks/Task_09.sol\":831:832  0 */\n      0x00\n        /* \"tasks/Task_09.sol\":819:832  uint8 sum = 0 */\n      swap1\n      pop\n        /* \"tasks/Task_09.sol\":847:854  uint8 i */\n      0x00\n        /* \"tasks/Task_09.sol\":857:858  0 */\n      0x00\n        /* \"tasks/Task_09.sol\":847:858  uint8 i = 0 */\n      swap1\n      pop\n        /* \"tasks/Task_09.sol\":842:930  for (uint8 i = 0; i < _data.length; i++) {... */\n    tag_21:\n        /* \"tasks/Task_09.sol\":864:876  _data.length */\n      0x04\n        /* \"tasks/Task_09.sol\":860:861  i */\n      dup2\n        /* \"tasks/Task_09.sol\":860:876  i < _data.length */\n      0xff\n      and\n      lt\n        /* \"tasks/Task_09.sol\":842:930  for (uint8 i = 0; i < _data.length; i++) {... */\n      iszero\n      tag_22\n      jumpi\n        /* \"tasks/Task_09.sol\":910:915  _data */\n      dup4\n        /* \"tasks/Task_09.sol\":916:917  i */\n      dup2\n        /* \"tasks/Task_09.sol\":910:918  _data[i] */\n      0xff\n      and\n      0x04\n      dup2\n      lt\n      tag_24\n      jumpi\n      tag_25\n      tag_26\n      jump\t// in\n    tag_25:\n    tag_24:\n      0x20\n      mul\n      add\n      mload\n        /* \"tasks/Task_09.sol\":904:919  uint8(_data[i]) */\n      0xf8\n      shr\n        /* \"tasks/Task_09.sol\":897:919  sum += uint8(_data[i]) */\n      dup3\n      tag_27\n      swap2\n      swap1\n      tag_28\n      jump\t// in\n    tag_27:\n      swap2\n      pop\n        /* \"tasks/Task_09.sol\":878:881  i++ */\n      dup1\n      dup1\n      tag_29\n      swap1\n      tag_30\n      jump\t// in\n    tag_29:\n      swap2\n      pop\n      pop\n        /* \"tasks/Task_09.sol\":842:930  for (uint8 i = 0; i < _data.length; i++) {... */\n      jump(tag_21)\n    tag_22:\n      pop\n        /* \"tasks/Task_09.sol\":952:953  4 */\n      0x04\n        /* \"tasks/Task_09.sol\":946:949  sum */\n      dup2\n        /* \"tasks/Task_09.sol\":946:953  sum / 4 */\n      tag_31\n      swap2\n      swap1\n      tag_32\n      jump\t// in\n    tag_31:\n        /* \"tasks/Task_09.sol\":939:953  return sum / 4 */\n      swap2\n      pop\n      pop\n        /* \"tasks/Task_09.sol\":723:959  function getFixedByteArrayAverage(bytes1[4] memory _data) public pure returns (uint8) {... */\n      swap2\n      swap1\n      pop\n      jump\t// out\n        /* \"tasks/Task_09.sol\":80:100  address public owner */\n    tag_13:\n      0x00\n      0x00\n      swap1\n      sload\n      swap1\n      0x0100\n      exp\n      swap1\n      div\n      0xffffffffffffffffffffffffffffffffffffffff\n      and\n      dup2\n      jump\t// out\n        /* \"tasks/Task_09.sol\":495:718  function getFixedByteArraySum(bytes1[4] memory _data) public pure returns (uint8) {... */\n    tag_18:\n        /* \"tasks/Task_09.sol\":570:575  uint8 */\n      0x00\n        /* \"tasks/Task_09.sol\":586:595  uint8 sum */\n      0x00\n        /* \"tasks/Task_09.sol\":598:599  0 */\n      0x00\n        /* \"tasks/Task_09.sol\":586:599  uint8 sum = 0 */\n      swap1\n      pop\n        /* \"tasks/Task_09.sol\":613:620  uint8 i */\n      0x00\n        /* \"tasks/Task_09.sol\":623:624  0 */\n      0x00\n        /* \"tasks/Task_09.sol\":613:624  uint8 i = 0 */\n      swap1\n      pop\n        /* \"tasks/Task_09.sol\":608:694  for (uint8 i = 0; i < _data.length; i++) {... */\n    tag_34:\n        /* \"tasks/Task_09.sol\":630:642  _data.length */\n      0x04\n        /* \"tasks/Task_09.sol\":626:627  i */\n      dup2\n        /* \"tasks/Task_09.sol\":626:642  i < _data.length */\n      0xff\n      and\n      lt\n        /* \"tasks/Task_09.sol\":608:694  for (uint8 i = 0; i < _data.length; i++) {... */\n      iszero\n      tag_35\n      jumpi\n        /* \"tasks/Task_09.sol\":675:680  _data */\n      dup4\n        /* \"tasks/Task_09.sol\":681:682  i */\n      dup2\n        /* \"tasks/Task_09.sol\":675:683  _data[i] */\n      0xff\n      and\n      0x04\n      dup2\n      lt\n      tag_37\n      jumpi\n      tag_38\n      tag_26\n      jump\t// in\n    tag_38:\n    tag_37:\n      0x20\n      mul\n      add\n      mload\n        /* \"tasks/Task_09.sol\":669:684  uint8(_data[i]) */\n      0xf8\n      shr\n        /* \"tasks/Task_09.sol\":662:684  sum += uint8(_data[i]) */\n      dup3\n      tag_39\n      swap2\n      swap1\n      tag_28\n      jump\t// in\n    tag_39:\n      swap2\n      pop\n        /* \"tasks/Task_09.sol\":644:647  i++ */\n      dup1\n      dup1\n      tag_40\n      swap1\n      tag_30\n      jump\t// in\n    tag_40:\n      swap2\n      pop\n      pop\n        /* \"tasks/Task_09.sol\":608:694  for (uint8 i = 0; i < _data.length; i++) {... */\n      jump(tag_34)\n    tag_35:\n      pop\n        /* \"tasks/Task_09.sol\":709:712  sum */\n      dup1\n        /* \"tasks/Task_09.sol\":702:712  return sum */\n      swap2\n      pop\n      pop\n        /* \"tasks/Task_09.sol\":495:718  function getFixedByteArraySum(bytes1[4] memory _data) public pure returns (uint8) {... */\n      swap2\n      swap1\n      pop\n      jump\t// out\n        /* \"#utility.yul\":7:82   */\n    tag_41:\n        /* \"#utility.yul\":40:46   */\n      0x00\n        /* \"#utility.yul\":73:75   */\n      0x40\n        /* \"#utility.yul\":67:76   */\n      mload\n        /* \"#utility.yul\":57:76   */\n      swap1\n      pop\n        /* \"#utility.yul\":7:82   */\n      swap1\n      jump\t// out\n        /* \"#utility.yul\":88:205   */\n    tag_42:\n        /* \"#utility.yul\":197:198   */\n      0x00\n        /* \"#utility.yul\":194:195   */\n      0x00\n        /* \"#utility.yul\":187:199   */\n      revert\n        /* \"#utility.yul\":334:451   */\n    tag_44:\n        /* \"#utility.yul\":443:444   */\n      0x00\n        /* \"#utility.yul\":440:441   */\n      0x00\n        /* \"#utility.yul\":433:445   */\n      revert\n        /* \"#utility.yul\":457:559   */\n    tag_45:\n        /* \"#utility.yul\":498:504   */\n      0x00\n        /* \"#utility.yul\":549:551   */\n      0x1f\n        /* \"#utility.yul\":545:552   */\n      not\n        /* \"#utility.yul\":540:542   */\n      0x1f\n        /* \"#utility.yul\":533:538   */\n      dup4\n        /* \"#utility.yul\":529:543   */\n      add\n        /* \"#utility.yul\":525:553   */\n      and\n        /* \"#utility.yul\":515:553   */\n      swap1\n      pop\n        /* \"#utility.yul\":457:559   */\n      swap2\n      swap1\n      pop\n      jump\t// out\n        /* \"#utility.yul\":565:745   */\n    tag_46:\n        /* \"#utility.yul\":613:690   */\n      0x4e487b7100000000000000000000000000000000000000000000000000000000\n        /* \"#utility.yul\":610:611   */\n      0x00\n        /* \"#utility.yul\":603:691   */\n      mstore\n        /* \"#utility.yul\":710:714   */\n      0x41\n        /* \"#utility.yul\":707:708   */\n      0x04\n        /* \"#utility.yul\":700:715   */\n      mstore\n        /* \"#utility.yul\":734:738   */\n      0x24\n        /* \"#utility.yul\":731:732   */\n      0x00\n        /* \"#utility.yul\":724:739   */\n      revert\n        /* \"#utility.yul\":751:1032   */\n    tag_47:\n        /* \"#utility.yul\":834:861   */\n      tag_71\n        /* \"#utility.yul\":856:860   */\n      dup3\n        /* \"#utility.yul\":834:861   */\n      tag_45\n      jump\t// in\n    tag_71:\n        /* \"#utility.yul\":826:832   */\n      dup2\n        /* \"#utility.yul\":822:862   */\n      add\n        /* \"#utility.yul\":964:970   */\n      dup2\n        /* \"#utility.yul\":952:962   */\n      dup2\n        /* \"#utility.yul\":949:971   */\n      lt\n        /* \"#utility.yul\":928:946   */\n      0xffffffffffffffff\n        /* \"#utility.yul\":916:926   */\n      dup3\n        /* \"#utility.yul\":913:947   */\n      gt\n        /* \"#utility.yul\":910:972   */\n      or\n        /* \"#utility.yul\":907:995   */\n      iszero\n      tag_72\n      jumpi\n        /* \"#utility.yul\":975:993   */\n      tag_73\n      tag_46\n      jump\t// in\n    tag_73:\n        /* \"#utility.yul\":907:995   */\n    tag_72:\n        /* \"#utility.yul\":1015:1025   */\n      dup1\n        /* \"#utility.yul\":1011:1013   */\n      0x40\n        /* \"#utility.yul\":1004:1026   */\n      mstore\n        /* \"#utility.yul\":794:1032   */\n      pop\n        /* \"#utility.yul\":751:1032   */\n      pop\n      pop\n      jump\t// out\n        /* \"#utility.yul\":1038:1167   */\n    tag_48:\n        /* \"#utility.yul\":1072:1078   */\n      0x00\n        /* \"#utility.yul\":1099:1119   */\n      tag_75\n      tag_41\n      jump\t// in\n    tag_75:\n        /* \"#utility.yul\":1089:1119   */\n      swap1\n      pop\n        /* \"#utility.yul\":1128:1161   */\n      tag_76\n        /* \"#utility.yul\":1156:1160   */\n      dup3\n        /* \"#utility.yul\":1148:1154   */\n      dup3\n        /* \"#utility.yul\":1128:1161   */\n      tag_47\n      jump\t// in\n    tag_76:\n        /* \"#utility.yul\":1038:1167   */\n      swap2\n      swap1\n      pop\n      jump\t// out\n        /* \"#utility.yul\":1173:1421   */\n    tag_49:\n        /* \"#utility.yul\":1247:1251   */\n      0x00\n        /* \"#utility.yul\":1337:1355   */\n      0xffffffffffffffff\n        /* \"#utility.yul\":1329:1335   */\n      dup3\n        /* \"#utility.yul\":1326:1356   */\n      gt\n        /* \"#utility.yul\":1323:1379   */\n      iszero\n      tag_78\n      jumpi\n        /* \"#utility.yul\":1359:1377   */\n      tag_79\n      tag_46\n      jump\t// in\n    tag_79:\n        /* \"#utility.yul\":1323:1379   */\n    tag_78:\n        /* \"#utility.yul\":1409:1413   */\n      0x20\n        /* \"#utility.yul\":1401:1407   */\n      dup3\n        /* \"#utility.yul\":1397:1414   */\n      mul\n        /* \"#utility.yul\":1389:1414   */\n      swap1\n      pop\n        /* \"#utility.yul\":1173:1421   */\n      swap2\n      swap1\n      pop\n      jump\t// out\n        /* \"#utility.yul\":1427:1544   */\n    tag_50:\n        /* \"#utility.yul\":1536:1537   */\n      0x00\n        /* \"#utility.yul\":1533:1534   */\n      0x00\n        /* \"#utility.yul\":1526:1538   */\n      revert\n        /* \"#utility.yul\":1550:1699   */\n    tag_51:\n        /* \"#utility.yul\":1586:1593   */\n      0x00\n        /* \"#utility.yul\":1626:1692   */\n      0xff00000000000000000000000000000000000000000000000000000000000000\n        /* \"#utility.yul\":1619:1624   */\n      dup3\n        /* \"#utility.yul\":1615:1693   */\n      and\n        /* \"#utility.yul\":1604:1693   */\n      swap1\n      pop\n        /* \"#utility.yul\":1550:1699   */\n      swap2\n      swap1\n      pop\n      jump\t// out\n        /* \"#utility.yul\":1705:1825   */\n    tag_52:\n        /* \"#utility.yul\":1777:1800   */\n      tag_83\n        /* \"#utility.yul\":1794:1799   */\n      dup2\n        /* \"#utility.yul\":1777:1800   */\n      tag_51\n      jump\t// in\n    tag_83:\n        /* \"#utility.yul\":1770:1775   */\n      dup2\n        /* \"#utility.yul\":1767:1801   */\n      eq\n        /* \"#utility.yul\":1757:1819   */\n      tag_84\n      jumpi\n        /* \"#utility.yul\":1815:1816   */\n      0x00\n        /* \"#utility.yul\":1812:1813   */\n      0x00\n        /* \"#utility.yul\":1805:1817   */\n      revert\n        /* \"#utility.yul\":1757:1819   */\n    tag_84:\n        /* \"#utility.yul\":1705:1825   */\n      pop\n      jump\t// out\n        /* \"#utility.yul\":1831:1968   */\n    tag_53:\n        /* \"#utility.yul\":1876:1881   */\n      0x00\n        /* \"#utility.yul\":1914:1920   */\n      dup2\n        /* \"#utility.yul\":1901:1921   */\n      calldataload\n        /* \"#utility.yul\":1892:1921   */\n      swap1\n      pop\n        /* \"#utility.yul\":1930:1962   */\n      tag_86\n        /* \"#utility.yul\":1956:1961   */\n      dup2\n        /* \"#utility.yul\":1930:1962   */\n      tag_52\n      jump\t// in\n    tag_86:\n        /* \"#utility.yul\":1831:1968   */\n      swap3\n      swap2\n      pop\n      pop\n      jump\t// out\n        /* \"#utility.yul\":1991:2631   */\n    tag_54:\n        /* \"#utility.yul\":2084:2089   */\n      0x00\n        /* \"#utility.yul\":2109:2187   */\n      tag_88\n        /* \"#utility.yul\":2125:2186   */\n      tag_89\n        /* \"#utility.yul\":2179:2185   */\n      dup5\n        /* \"#utility.yul\":2125:2186   */\n      tag_49\n      jump\t// in\n    tag_89:\n        /* \"#utility.yul\":2109:2187   */\n      tag_48\n      jump\t// in\n    tag_88:\n        /* \"#utility.yul\":2100:2187   */\n      swap1\n      pop\n        /* \"#utility.yul\":2207:2212   */\n      dup1\n        /* \"#utility.yul\":2260:2264   */\n      0x20\n        /* \"#utility.yul\":2252:2258   */\n      dup5\n        /* \"#utility.yul\":2248:2265   */\n      mul\n        /* \"#utility.yul\":2240:2246   */\n      dup4\n        /* \"#utility.yul\":2236:2266   */\n      add\n        /* \"#utility.yul\":2289:2292   */\n      dup6\n        /* \"#utility.yul\":2281:2287   */\n      dup2\n        /* \"#utility.yul\":2278:2293   */\n      gt\n        /* \"#utility.yul\":2275:2397   */\n      iszero\n      tag_90\n      jumpi\n        /* \"#utility.yul\":2308:2387   */\n      tag_91\n      tag_50\n      jump\t// in\n    tag_91:\n        /* \"#utility.yul\":2275:2397   */\n    tag_90:\n        /* \"#utility.yul\":2423:2429   */\n      dup4\n        /* \"#utility.yul\":2406:2625   */\n    tag_92:\n        /* \"#utility.yul\":2440:2446   */\n      dup2\n        /* \"#utility.yul\":2435:2438   */\n      dup2\n        /* \"#utility.yul\":2432:2447   */\n      lt\n        /* \"#utility.yul\":2406:2625   */\n      iszero\n      tag_94\n      jumpi\n        /* \"#utility.yul\":2515:2518   */\n      dup1\n        /* \"#utility.yul\":2544:2580   */\n      tag_95\n        /* \"#utility.yul\":2576:2579   */\n      dup9\n        /* \"#utility.yul\":2564:2574   */\n      dup3\n        /* \"#utility.yul\":2544:2580   */\n      tag_53\n      jump\t// in\n    tag_95:\n        /* \"#utility.yul\":2539:2542   */\n      dup5\n        /* \"#utility.yul\":2532:2581   */\n      mstore\n        /* \"#utility.yul\":2610:2614   */\n      0x20\n        /* \"#utility.yul\":2605:2608   */\n      dup5\n        /* \"#utility.yul\":2601:2615   */\n      add\n        /* \"#utility.yul\":2594:2615   */\n      swap4\n      pop\n        /* \"#utility.yul\":2482:2625   */\n      pop\n        /* \"#utility.yul\":2466:2470   */\n      0x20\n        /* \"#utility.yul\":2461:2464   */\n      dup2\n        /* \"#utility.yul\":2457:2471   */\n      add\n        /* \"#utility.yul\":2450:2471   */\n      swap1\n      pop\n        /* \"#utility.yul\":2406:2625   */\n      jump(tag_92)\n    tag_94:\n        /* \"#utility.yul\":2410:2431   */\n      pop\n        /* \"#utility.yul\":2090:2631   */\n      pop\n      pop\n        /* \"#utility.yul\":1991:2631   */\n      swap4\n      swap3\n      pop\n      pop\n      pop\n      jump\t// out\n        /* \"#utility.yul\":2654:2991   */\n    tag_55:\n        /* \"#utility.yul\":2722:2727   */\n      0x00\n        /* \"#utility.yul\":2771:2774   */\n      dup3\n        /* \"#utility.yul\":2764:2768   */\n      0x1f\n        /* \"#utility.yul\":2756:2762   */\n      dup4\n        /* \"#utility.yul\":2752:2769   */\n      add\n        /* \"#utility.yul\":2748:2775   */\n      slt\n        /* \"#utility.yul\":2738:2860   */\n      tag_97\n      jumpi\n        /* \"#utility.yul\":2779:2858   */\n      tag_98\n      tag_44\n      jump\t// in\n    tag_98:\n        /* \"#utility.yul\":2738:2860   */\n    tag_97:\n        /* \"#utility.yul\":2883:2887   */\n      0x04\n        /* \"#utility.yul\":2905:2985   */\n      tag_99\n        /* \"#utility.yul\":2981:2984   */\n      dup5\n        /* \"#utility.yul\":2973:2979   */\n      dup3\n        /* \"#utility.yul\":2965:2971   */\n      dup6\n        /* \"#utility.yul\":2905:2985   */\n      tag_54\n      jump\t// in\n    tag_99:\n        /* \"#utility.yul\":2896:2985   */\n      swap2\n      pop\n        /* \"#utility.yul\":2728:2991   */\n      pop\n        /* \"#utility.yul\":2654:2991   */\n      swap3\n      swap2\n      pop\n      pop\n      jump\t// out\n        /* \"#utility.yul\":2997:3371   */\n    tag_8:\n        /* \"#utility.yul\":3078:3084   */\n      0x00\n        /* \"#utility.yul\":3127:3130   */\n      0x80\n        /* \"#utility.yul\":3115:3124   */\n      dup3\n        /* \"#utility.yul\":3106:3113   */\n      dup5\n        /* \"#utility.yul\":3102:3125   */\n      sub\n        /* \"#utility.yul\":3098:3131   */\n      slt\n        /* \"#utility.yul\":3095:3215   */\n      iszero\n      tag_101\n      jumpi\n        /* \"#utility.yul\":3134:3213   */\n      tag_102\n      tag_42\n      jump\t// in\n    tag_102:\n        /* \"#utility.yul\":3095:3215   */\n    tag_101:\n        /* \"#utility.yul\":3254:3255   */\n      0x00\n        /* \"#utility.yul\":3279:3354   */\n      tag_103\n        /* \"#utility.yul\":3346:3353   */\n      dup5\n        /* \"#utility.yul\":3337:3343   */\n      dup3\n        /* \"#utility.yul\":3326:3335   */\n      dup6\n        /* \"#utility.yul\":3322:3344   */\n      add\n        /* \"#utility.yul\":3279:3354   */\n      tag_55\n      jump\t// in\n    tag_103:\n        /* \"#utility.yul\":3269:3354   */\n      swap2\n      pop\n        /* \"#utility.yul\":3225:3364   */\n      pop\n        /* \"#utility.yul\":2997:3371   */\n      swap3\n      swap2\n      pop\n      pop\n      jump\t// out\n        /* \"#utility.yul\":3377:3463   */\n    tag_56:\n        /* \"#utility.yul\":3412:3419   */\n      0x00\n        /* \"#utility.yul\":3452:3456   */\n      0xff\n        /* \"#utility.yul\":3445:3450   */\n      dup3\n        /* \"#utility.yul\":3441:3457   */\n      and\n        /* \"#utility.yul\":3430:3457   */\n      swap1\n      pop\n        /* \"#utility.yul\":3377:3463   */\n      swap2\n      swap1\n      pop\n      jump\t// out\n        /* \"#utility.yul\":3469:3581   */\n    tag_57:\n        /* \"#utility.yul\":3552:3574   */\n      tag_106\n        /* \"#utility.yul\":3568:3573   */\n      dup2\n        /* \"#utility.yul\":3552:3574   */\n      tag_56\n      jump\t// in\n    tag_106:\n        /* \"#utility.yul\":3547:3550   */\n      dup3\n        /* \"#utility.yul\":3540:3575   */\n      mstore\n        /* \"#utility.yul\":3469:3581   */\n      pop\n      pop\n      jump\t// out\n        /* \"#utility.yul\":3587:3801   */\n    tag_11:\n        /* \"#utility.yul\":3676:3680   */\n      0x00\n        /* \"#utility.yul\":3714:3716   */\n      0x20\n        /* \"#utility.yul\":3703:3712   */\n      dup3\n        /* \"#utility.yul\":3699:3717   */\n      add\n        /* \"#utility.yul\":3691:3717   */\n      swap1\n      pop\n        /* \"#utility.yul\":3727:3794   */\n      tag_108\n        /* \"#utility.yul\":3791:3792   */\n      0x00\n        /* \"#utility.yul\":3780:3789   */\n      dup4\n        /* \"#utility.yul\":3776:3793   */\n      add\n        /* \"#utility.yul\":3767:3773   */\n      dup5\n        /* \"#utility.yul\":3727:3794   */\n      tag_57\n      jump\t// in\n    tag_108:\n        /* \"#utility.yul\":3587:3801   */\n      swap3\n      swap2\n      pop\n      pop\n      jump\t// out\n        /* \"#utility.yul\":3807:3933   */\n    tag_58:\n        /* \"#utility.yul\":3844:3851   */\n      0x00\n        /* \"#utility.yul\":3884:3926   */\n      0xffffffffffffffffffffffffffffffffffffffff\n        /* \"#utility.yul\":3877:3882   */\n      dup3\n        /* \"#utility.yul\":3873:3927   */\n      and\n        /* \"#utility.yul\":3862:3927   */\n      swap1\n      pop\n        /* \"#utility.yul\":3807:3933   */\n      swap2\n      swap1\n      pop\n      jump\t// out\n        /* \"#utility.yul\":3939:4035   */\n    tag_59:\n        /* \"#utility.yul\":3976:3983   */\n      0x00\n        /* \"#utility.yul\":4005:4029   */\n      tag_111\n        /* \"#utility.yul\":4023:4028   */\n      dup3\n        /* \"#utility.yul\":4005:4029   */\n      tag_58\n      jump\t// in\n    tag_111:\n        /* \"#utility.yul\":3994:4029   */\n      swap1\n      pop\n        /* \"#utility.yul\":3939:4035   */\n      swap2\n      swap1\n      pop\n      jump\t// out\n        /* \"#utility.yul\":4041:4159   */\n    tag_60:\n        /* \"#utility.yul\":4128:4152   */\n      tag_113\n        /* \"#utility.yul\":4146:4151   */\n      dup2\n        /* \"#utility.yul\":4128:4152   */\n      tag_59\n      jump\t// in\n    tag_113:\n        /* \"#utility.yul\":4123:4126   */\n      dup3\n        /* \"#utility.yul\":4116:4153   */\n      mstore\n        /* \"#utility.yul\":4041:4159   */\n      pop\n      pop\n      jump\t// out\n        /* \"#utility.yul\":4165:4387   */\n    tag_15:\n        /* \"#utility.yul\":4258:4262   */\n      0x00\n        /* \"#utility.yul\":4296:4298   */\n      0x20\n        /* \"#utility.yul\":4285:4294   */\n      dup3\n        /* \"#utility.yul\":4281:4299   */\n      add\n        /* \"#utility.yul\":4273:4299   */\n      swap1\n      pop\n        /* \"#utility.yul\":4309:4380   */\n      tag_115\n        /* \"#utility.yul\":4377:4378   */\n      0x00\n        /* \"#utility.yul\":4366:4375   */\n      dup4\n        /* \"#utility.yul\":4362:4379   */\n      add\n        /* \"#utility.yul\":4353:4359   */\n      dup5\n        /* \"#utility.yul\":4309:4380   */\n      tag_60\n      jump\t// in\n    tag_115:\n        /* \"#utility.yul\":4165:4387   */\n      swap3\n      swap2\n      pop\n      pop\n      jump\t// out\n        /* \"#utility.yul\":4393:4573   */\n    tag_26:\n        /* \"#utility.yul\":4441:4518   */\n      0x4e487b7100000000000000000000000000000000000000000000000000000000\n        /* \"#utility.yul\":4438:4439   */\n      0x00\n        /* \"#utility.yul\":4431:4519   */\n      mstore\n        /* \"#utility.yul\":4538:4542   */\n      0x32\n        /* \"#utility.yul\":4535:4536   */\n      0x04\n        /* \"#utility.yul\":4528:4543   */\n      mstore\n        /* \"#utility.yul\":4562:4566   */\n      0x24\n        /* \"#utility.yul\":4559:4560   */\n      0x00\n        /* \"#utility.yul\":4552:4567   */\n      revert\n        /* \"#utility.yul\":4579:4759   */\n    tag_61:\n        /* \"#utility.yul\":4627:4704   */\n      0x4e487b7100000000000000000000000000000000000000000000000000000000\n        /* \"#utility.yul\":4624:4625   */\n      0x00\n        /* \"#utility.yul\":4617:4705   */\n      mstore\n        /* \"#utility.yul\":4724:4728   */\n      0x11\n        /* \"#utility.yul\":4721:4722   */\n      0x04\n        /* \"#utility.yul\":4714:4729   */\n      mstore\n        /* \"#utility.yul\":4748:4752   */\n      0x24\n        /* \"#utility.yul\":4745:4746   */\n      0x00\n        /* \"#utility.yul\":4738:4753   */\n      revert\n        /* \"#utility.yul\":4765:4953   */\n    tag_28:\n        /* \"#utility.yul\":4803:4806   */\n      0x00\n        /* \"#utility.yul\":4822:4840   */\n      tag_119\n        /* \"#utility.yul\":4838:4839   */\n      dup3\n        /* \"#utility.yul\":4822:4840   */\n      tag_56\n      jump\t// in\n    tag_119:\n        /* \"#utility.yul\":4817:4840   */\n      swap2\n      pop\n        /* \"#utility.yul\":4854:4872   */\n      tag_120\n        /* \"#utility.yul\":4870:4871   */\n      dup4\n        /* \"#utility.yul\":4854:4872   */\n      tag_56\n      jump\t// in\n    tag_120:\n        /* \"#utility.yul\":4849:4872   */\n      swap3\n      pop\n        /* \"#utility.yul\":4895:4896   */\n      dup3\n        /* \"#utility.yul\":4892:4893   */\n      dup3\n        /* \"#utility.yul\":4888:4897   */\n      add\n        /* \"#utility.yul\":4881:4897   */\n      swap1\n      pop\n        /* \"#utility.yul\":4918:4922   */\n      0xff\n        /* \"#utility.yul\":4913:4916   */\n      dup2\n        /* \"#utility.yul\":4910:4923   */\n      gt\n        /* \"#utility.yul\":4907:4946   */\n      iszero\n      tag_121\n      jumpi\n        /* \"#utility.yul\":4926:4944   */\n      tag_122\n      tag_61\n      jump\t// in\n    tag_122:\n        /* \"#utility.yul\":4907:4946   */\n    tag_121:\n        /* \"#utility.yul\":4765:4953   */\n      swap3\n      swap2\n      pop\n      pop\n      jump\t// out\n        /* \"#utility.yul\":4959:5126   */\n    tag_30:\n        /* \"#utility.yul\":4996:4999   */\n      0x00\n        /* \"#utility.yul\":5019:5041   */\n      tag_124\n        /* \"#utility.yul\":5035:5040   */\n      dup3\n        /* \"#utility.yul\":5019:5041   */\n      tag_56\n      jump\t// in\n    tag_124:\n        /* \"#utility.yul\":5010:5041   */\n      swap2\n      pop\n        /* \"#utility.yul\":5063:5067   */\n      0xff\n        /* \"#utility.yul\":5056:5061   */\n      dup3\n        /* \"#utility.yul\":5053:5068   */\n      sub\n        /* \"#utility.yul\":5050:5091   */\n      tag_125\n      jumpi\n        /* \"#utility.yul\":5071:5089   */\n      tag_126\n      tag_61\n      jump\t// in\n    tag_126:\n        /* \"#utility.yul\":5050:5091   */\n    tag_125:\n        /* \"#utility.yul\":5118:5119   */\n      0x01\n        /* \"#utility.yul\":5111:5116   */\n      dup3\n        /* \"#utility.yul\":5107:5120   */\n      add\n        /* \"#utility.yul\":5100:5120   */\n      swap1\n      pop\n        /* \"#utility.yul\":4959:5126   */\n      swap2\n      swap1\n      pop\n      jump\t// out\n        /* \"#utility.yul\":5132:5312   */\n    tag_62:\n        /* \"#utility.yul\":5180:5257   */\n      0x4e487b7100000000000000000000000000000000000000000000000000000000\n        /* \"#utility.yul\":5177:5178   */\n      0x00\n        /* \"#utility.yul\":5170:5258   */\n      mstore\n        /* \"#utility.yul\":5277:5281   */\n      0x12\n        /* \"#utility.yul\":5274:5275   */\n      0x04\n        /* \"#utility.yul\":5267:5282   */\n      mstore\n        /* \"#utility.yul\":5301:5305   */\n      0x24\n        /* \"#utility.yul\":5298:5299   */\n      0x00\n        /* \"#utility.yul\":5291:5306   */\n      revert\n        /* \"#utility.yul\":5318:5497   */\n    tag_32:\n        /* \"#utility.yul\":5356:5357   */\n      0x00\n        /* \"#utility.yul\":5373:5391   */\n      tag_129\n        /* \"#utility.yul\":5389:5390   */\n      dup3\n        /* \"#utility.yul\":5373:5391   */\n      tag_56\n      jump\t// in\n    tag_129:\n        /* \"#utility.yul\":5368:5391   */\n      swap2\n      pop\n        /* \"#utility.yul\":5405:5423   */\n      tag_130\n        /* \"#utility.yul\":5421:5422   */\n      dup4\n        /* \"#utility.yul\":5405:5423   */\n      tag_56\n      jump\t// in\n    tag_130:\n        /* \"#utility.yul\":5400:5423   */\n      swap3\n      pop\n        /* \"#utility.yul\":5442:5443   */\n      dup3\n        /* \"#utility.yul\":5432:5467   */\n      tag_131\n      jumpi\n        /* \"#utility.yul\":5447:5465   */\n      tag_132\n      tag_62\n      jump\t// in\n    tag_132:\n        /* \"#utility.yul\":5432:5467   */\n    tag_131:\n        /* \"#utility.yul\":5489:5490   */\n      dup3\n        /* \"#utility.yul\":5486:5487   */\n      dup3\n        /* \"#utility.yul\":5482:5491   */\n      div\n        /* \"#utility.yul\":5477:5491   */\n      swap1\n      pop\n        /* \"#utility.yul\":5318:5497   */\n      swap3\n      swap2\n      pop\n      pop\n      jump\t// out\n\n    auxdata: 0xa2646970667358221220ce3669be290093b27207201bdb7b16d85b8fffe3e04b591d09a27603d7252a3f64736f6c634300081e0033\n}\n",
				"bytecode": {
					"linkReferences": {},
					"object": "6080604052348015600e575f5ffd5b50335f5f6101000a81548173ffffffffffffffffffffffffffffffffffffffff021916908373ffffffffffffffffffffffffffffffffffffffff16021790555061054d8061005b5f395ff3fe608060405234801561000f575f5ffd5b506004361061003f575f3560e01c80634c06e024146100435780638da5cb5b14610073578063d9207d1b14610091575b5f5ffd5b61005d6004803603810190610058919061034d565b6100c1565b60405161006a9190610393565b60405180910390f35b61007b61012b565b60405161008891906103eb565b60405180910390f35b6100ab60048036038101906100a6919061034d565b61014f565b6040516100b89190610393565b60405180910390f35b5f5f5f90505f5f90505b60048160ff16101561011557838160ff16600481106100ed576100ec610404565b5b602002015160f81c82610100919061045e565b9150808061010d90610492565b9150506100cb565b5060048161012391906104e7565b915050919050565b5f5f9054906101000a900473ffffffffffffffffffffffffffffffffffffffff1681565b5f5f5f90505f5f90505b60048160ff1610156101a357838160ff166004811061017b5761017a610404565b5b602002015160f81c8261018e919061045e565b9150808061019b90610492565b915050610159565b5080915050919050565b5f604051905090565b5f5ffd5b5f5ffd5b5f601f19601f8301169050919050565b7f4e487b71000000000000000000000000000000000000000000000000000000005f52604160045260245ffd5b610204826101be565b810181811067ffffffffffffffff82111715610223576102226101ce565b5b80604052505050565b5f6102356101ad565b905061024182826101fb565b919050565b5f67ffffffffffffffff8211156102605761025f6101ce565b5b602082029050919050565b5f5ffd5b5f7fff0000000000000000000000000000000000000000000000000000000000000082169050919050565b6102a38161026f565b81146102ad575f5ffd5b50565b5f813590506102be8161029a565b92915050565b5f6102d66102d184610246565b61022c565b905080602084028301858111156102f0576102ef61026b565b5b835b81811015610319578061030588826102b0565b8452602084019350506020810190506102f2565b5050509392505050565b5f82601f830112610337576103366101ba565b5b60046103448482856102c4565b91505092915050565b5f60808284031215610362576103616101b6565b5b5f61036f84828501610323565b91505092915050565b5f60ff82169050919050565b61038d81610378565b82525050565b5f6020820190506103a65f830184610384565b92915050565b5f73ffffffffffffffffffffffffffffffffffffffff82169050919050565b5f6103d5826103ac565b9050919050565b6103e5816103cb565b82525050565b5f6020820190506103fe5f8301846103dc565b92915050565b7f4e487b71000000000000000000000000000000000000000000000000000000005f52603260045260245ffd5b7f4e487b71000000000000000000000000000000000000000000000000000000005f52601160045260245ffd5b5f61046882610378565b915061047383610378565b9250828201905060ff81111561048c5761048b610431565b5b92915050565b5f61049c82610378565b915060ff82036104af576104ae610431565b5b600182019050919050565b7f4e487b71000000000000000000000000000000000000000000000000000000005f52601260045260245ffd5b5f6104f182610378565b91506104fc83610378565b92508261050c5761050b6104ba565b5b82820490509291505056fea2646970667358221220ce3669be290093b27207201bdb7b16d85b8fffe3e04b591d09a27603d7252a3f64736f6c634300081e0033",
					"opcodes": "PUSH1 0x80 PUSH1 0x40 MSTORE CALLVALUE DUP1 ISZERO PUSH1 0xE JUMPI PUSH0 PUSH0 REVERT JUMPDEST POP CALLER PUSH0 PUSH0 PUSH2 0x100 EXP DUP2 SLOAD DUP2 PUSH20 0xFFFFFFFFFFFFFFFFFFFFFFFFFFFFFFFFFFFFFFFF MUL NOT AND SWAP1 DUP4 PUSH20 0xFFFFFFFFFFFFFFFFFFFFFFFFFFFFFFFFFFFFFFFF AND MUL OR SWAP1 SSTORE POP PUSH2 0x54D DUP1 PUSH2 0x5B PUSH0 CODECOPY PUSH0 RETURN INVALID PUSH1 0x80 PUSH1 0x40 MSTORE CALLVALUE DUP1 ISZERO PUSH2 0xF JUMPI PUSH0 PUSH0 REVERT JUMPDEST POP PUSH1 0x4 CALLDATASIZE LT PUSH2 0x3F JUMPI PUSH0 CALLDATALOAD PUSH1 0xE0 SHR DUP1 PUSH4 0x4C06E024 EQ PUSH2 0x43 JUMPI DUP1 PUSH4 0x8DA5CB5B EQ PUSH2 0x73 JUMPI DUP1 PUSH4 0xD9207D1B EQ PUSH2 0x91 JUMPI JUMPDEST PUSH0 PUSH0 REVERT JUMPDEST PUSH2 0x5D PUSH1 0x4 DUP1 CALLDATASIZE SUB DUP2 ADD SWAP1 PUSH2 0x58 SWAP2 SWAP1 PUSH2 0x34D JUMP JUMPDEST PUSH2 0xC1 JUMP JUMPDEST PUSH1 0x40 MLOAD PUSH2 0x6A SWAP2 SWAP1 PUSH2 0x393 JUMP JUMPDEST PUSH1 0x40 MLOAD DUP1 SWAP2 SUB SWAP1 RETURN JUMPDEST PUSH2 0x7B PUSH2 0x12B JUMP JUMPDEST PUSH1 0x40 MLOAD PUSH2 0x88 SWAP2 SWAP1 PUSH2 0x3EB JUMP JUMPDEST PUSH1 0x40 MLOAD DUP1 SWAP2 SUB SWAP1 RETURN JUMPDEST PUSH2 0xAB PUSH1 0x4 DUP1 CALLDATASIZE SUB DUP2 ADD SWAP1 PUSH2 0xA6 SWAP2 SWAP1 PUSH2 0x34D JUMP JUMPDEST PUSH2 0x14F JUMP JUMPDEST PUSH1 0x40 MLOAD PUSH2 0xB8 SWAP2 SWAP1 PUSH2 0x393 JUMP JUMPDEST PUSH1 0x40 MLOAD DUP1 SWAP2 SUB SWAP1 RETURN JUMPDEST PUSH0 PUSH0 PUSH0 SWAP1 POP PUSH0 PUSH0 SWAP1 POP JUMPDEST PUSH1 0x4 DUP2 PUSH1 0xFF AND LT ISZERO PUSH2 0x115 JUMPI DUP4 DUP2 PUSH1 0xFF AND PUSH1 0x4 DUP2 LT PUSH2 0xED JUMPI PUSH2 0xEC PUSH2 0x404 JUMP JUMPDEST JUMPDEST PUSH1 0x20 MUL ADD MLOAD PUSH1 0xF8 SHR DUP3 PUSH2 0x100 SWAP2 SWAP1 PUSH2 0x45E JUMP JUMPDEST SWAP2 POP DUP1 DUP1 PUSH2 0x10D SWAP1 PUSH2 0x492 JUMP JUMPDEST SWAP2 POP POP PUSH2 0xCB JUMP JUMPDEST POP PUSH1 0x4 DUP2 PUSH2 0x123 SWAP2 SWAP1 PUSH2 0x4E7 JUMP JUMPDEST SWAP2 POP POP SWAP2 SWAP1 POP JUMP JUMPDEST PUSH0 PUSH0 SWAP1 SLOAD SWAP1 PUSH2 0x100 EXP SWAP1 DIV PUSH20 0xFFFFFFFFFFFFFFFFFFFFFFFFFFFFFFFFFFFFFFFF AND DUP2 JUMP JUMPDEST PUSH0 PUSH0 PUSH0 SWAP1 POP PUSH0 PUSH0 SWAP1 POP JUMPDEST PUSH1 0x4 DUP2 PUSH1 0xFF AND LT ISZERO PUSH2 0x1A3 JUMPI DUP4 DUP2 PUSH1 0xFF AND PUSH1 0x4 DUP2 LT PUSH2 0x17B JUMPI PUSH2 0x17A PUSH2 0x404 JUMP JUMPDEST JUMPDEST PUSH1 0x20 MUL ADD MLOAD PUSH1 0xF8 SHR DUP3 PUSH2 0x18E SWAP2 SWAP1 PUSH2 0x45E JUMP JUMPDEST SWAP2 POP DUP1 DUP1 PUSH2 0x19B SWAP1 PUSH2 0x492 JUMP JUMPDEST SWAP2 POP POP PUSH2 0x159 JUMP JUMPDEST POP DUP1 SWAP2 POP POP SWAP2 SWAP1 POP JUMP JUMPDEST PUSH0 PUSH1 0x40 MLOAD SWAP1 POP SWAP1 JUMP JUMPDEST PUSH0 PUSH0 REVERT JUMPDEST PUSH0 PUSH0 REVERT JUMPDEST PUSH0 PUSH1 0x1F NOT PUSH1 0x1F DUP4 ADD AND SWAP1 POP SWAP2 SWAP1 POP JUMP JUMPDEST PUSH32 0x4E487B7100000000000000000000000000000000000000000000000000000000 PUSH0 MSTORE PUSH1 0x41 PUSH1 0x4 MSTORE PUSH1 0x24 PUSH0 REVERT JUMPDEST PUSH2 0x204 DUP3 PUSH2 0x1BE JUMP JUMPDEST DUP2 ADD DUP2 DUP2 LT PUSH8 0xFFFFFFFFFFFFFFFF DUP3 GT OR ISZERO PUSH2 0x223 JUMPI PUSH2 0x222 PUSH2 0x1CE JUMP JUMPDEST JUMPDEST DUP1 PUSH1 0x40 MSTORE POP POP POP JUMP JUMPDEST PUSH0 PUSH2 0x235 PUSH2 0x1AD JUMP JUMPDEST SWAP1 POP PUSH2 0x241 DUP3 DUP3 PUSH2 0x1FB JUMP JUMPDEST SWAP2 SWAP1 POP JUMP JUMPDEST PUSH0 PUSH8 0xFFFFFFFFFFFFFFFF DUP3 GT ISZERO PUSH2 0x260 JUMPI PUSH2 0x25F PUSH2 0x1CE JUMP JUMPDEST JUMPDEST PUSH1 0x20 DUP3 MUL SWAP1 POP SWAP2 SWAP1 POP JUMP JUMPDEST PUSH0 PUSH0 REVERT JUMPDEST PUSH0 PUSH32 0xFF00000000000000000000000000000000000000000000000000000000000000 DUP3 AND SWAP1 POP SWAP2 SWAP1 POP JUMP JUMPDEST PUSH2 0x2A3 DUP2 PUSH2 0x26F JUMP JUMPDEST DUP2 EQ PUSH2 0x2AD JUMPI PUSH0 PUSH0 REVERT JUMPDEST POP JUMP JUMPDEST PUSH0 DUP2 CALLDATALOAD SWAP1 POP PUSH2 0x2BE DUP2 PUSH2 0x29A JUMP JUMPDEST SWAP3 SWAP2 POP POP JUMP JUMPDEST PUSH0 PUSH2 0x2D6 PUSH2 0x2D1 DUP5 PUSH2 0x246 JUMP JUMPDEST PUSH2 0x22C JUMP JUMPDEST SWAP1 POP DUP1 PUSH1 0x20 DUP5 MUL DUP4 ADD DUP6 DUP2 GT ISZERO PUSH2 0x2F0 JUMPI PUSH2 0x2EF PUSH2 0x26B JUMP JUMPDEST JUMPDEST DUP4 JUMPDEST DUP2 DUP2 LT ISZERO PUSH2 0x319 JUMPI DUP1 PUSH2 0x305 DUP9 DUP3 PUSH2 0x2B0 JUMP JUMPDEST DUP5 MSTORE PUSH1 0x20 DUP5 ADD SWAP4 POP POP PUSH1 0x20 DUP2 ADD SWAP1 POP PUSH2 0x2F2 JUMP JUMPDEST POP POP POP SWAP4 SWAP3 POP POP POP JUMP JUMPDEST PUSH0 DUP3 PUSH1 0x1F DUP4 ADD SLT PUSH2 0x337 JUMPI PUSH2 0x336 PUSH2 0x1BA JUMP JUMPDEST JUMPDEST PUSH1 0x4 PUSH2 0x344 DUP5 DUP3 DUP6 PUSH2 0x2C4 JUMP JUMPDEST SWAP2 POP POP SWAP3 SWAP2 POP POP JUMP JUMPDEST PUSH0 PUSH1 0x80 DUP3 DUP5 SUB SLT ISZERO PUSH2 0x362 JUMPI PUSH2 0x361 PUSH2 0x1B6 JUMP JUMPDEST JUMPDEST PUSH0 PUSH2 0x36F DUP5 DUP3 DUP6 ADD PUSH2 0x323 JUMP JUMPDEST SWAP2 POP POP SWAP3 SWAP2 POP POP JUMP JUMPDEST PUSH0 PUSH1 0xFF DUP3 AND SWAP1 POP SWAP2 SWAP1 POP JUMP JUMPDEST PUSH2 0x38D DUP2 PUSH2 0x378 JUMP JUMPDEST DUP3 MSTORE POP POP JUMP JUMPDEST PUSH0 PUSH1 0x20 DUP3 ADD SWAP1 POP PUSH2 0x3A6 PUSH0 DUP4 ADD DUP5 PUSH2 0x384 JUMP JUMPDEST SWAP3 SWAP2 POP POP JUMP JUMPDEST PUSH0 PUSH20 0xFFFFFFFFFFFFFFFFFFFFFFFFFFFFFFFFFFFFFFFF DUP3 AND SWAP1 POP SWAP2 SWAP1 POP JUMP JUMPDEST PUSH0 PUSH2 0x3D5 DUP3 PUSH2 0x3AC JUMP JUMPDEST SWAP1 POP SWAP2 SWAP1 POP JUMP JUMPDEST PUSH2 0x3E5 DUP2 PUSH2 0x3CB JUMP JUMPDEST DUP3 MSTORE POP POP JUMP JUMPDEST PUSH0 PUSH1 0x20 DUP3 ADD SWAP1 POP PUSH2 0x3FE PUSH0 DUP4 ADD DUP5 PUSH2 0x3DC JUMP JUMPDEST SWAP3 SWAP2 POP POP JUMP JUMPDEST PUSH32 0x4E487B7100000000000000000000000000000000000000000000000000000000 PUSH0 MSTORE PUSH1 0x32 PUSH1 0x4 MSTORE PUSH1 0x24 PUSH0 REVERT JUMPDEST PUSH32 0x4E487B7100000000000000000000000000000000000000000000000000000000 PUSH0 MSTORE PUSH1 0x11 PUSH1 0x4 MSTORE PUSH1 0x24 PUSH0 REVERT JUMPDEST PUSH0 PUSH2 0x468 DUP3 PUSH2 0x378 JUMP JUMPDEST SWAP2 POP PUSH2 0x473 DUP4 PUSH2 0x378 JUMP JUMPDEST SWAP3 POP DUP3 DUP3 ADD SWAP1 POP PUSH1 0xFF DUP2 GT ISZERO PUSH2 0x48C JUMPI PUSH2 0x48B PUSH2 0x431 JUMP JUMPDEST JUMPDEST SWAP3 SWAP2 POP POP JUMP JUMPDEST PUSH0 PUSH2 0x49C DUP3 PUSH2 0x378 JUMP JUMPDEST SWAP2 POP PUSH1 0xFF DUP3 SUB PUSH2 0x4AF JUMPI PUSH2 0x4AE PUSH2 0x431 JUMP JUMPDEST JUMPDEST PUSH1 0x1 DUP3 ADD SWAP1 POP SWAP2 SWAP1 POP JUMP JUMPDEST PUSH32 0x4E487B7100000000000000000000000000000000000000000000000000000000 PUSH0 MSTORE PUSH1 0x12 PUSH1 0x4 MSTORE PUSH1 0x24 PUSH0 REVERT JUMPDEST PUSH0 PUSH2 0x4F1 DUP3 PUSH2 0x378 JUMP JUMPDEST SWAP2 POP PUSH2 0x4FC DUP4 PUSH2 0x378 JUMP JUMPDEST SWAP3 POP DUP3 PUSH2 0x50C JUMPI PUSH2 0x50B PUSH2 0x4BA JUMP JUMPDEST JUMPDEST DUP3 DUP3 DIV SWAP1 POP SWAP3 SWAP2 POP POP JUMP INVALID LOG2 PUSH5 0x6970667358 0x22 SLT KECCAK256 0xCE CALLDATASIZE PUSH10 0xBE290093B27207201BDB PUSH28 0x16D85B8FFFE3E04B591D09A27603D7252A3F64736F6C634300081E00 CALLER "
				},
				"gasEstimates": {
					"creation": {
						"codeDepositCost": "271400",
						"executionCost": "24574",
						"totalCost": "295974"
					},
					"external": {
						"getFixedByteArrayAverage(bytes1[4])": "infinite",
						"getFixedByteArraySum(bytes1[4])": "infinite",
						"owner()": "2507"
					}
				},
				"methodIdentifiers": {
					"getFixedByteArrayAverage(bytes1[4])": "4c06e024",
					"getFixedByteArraySum(bytes1[4])": "d9207d1b",
					"owner()": "8da5cb5b"
				}
			},
			"storageLayout": {
				"storage": [
					{
						"astId": 3,
						"contract": "tasks/Task_09.sol:Task_09",
						"label": "owner",
						"offset": 0,
						"slot": "0",
						"type": "t_address"
					}
				],
				"types": {
					"t_address": {
						"encoding": "inplace",
						"label": "address",
						"numberOfBytes": "20"
					}
				}
			},
			"userdoc": {
				"kind": "user",
				"methods": {},
				"version": 1
			}
		}
	}
}